:020000040800F2
:1000000000C00020414E0008850E0008870E000841
:10001000890E00088B0E00088D0E000800000000FD
:100020000000000000000000000000008F0E00082B
:10003000910E000800000000930E0008950E0008C5
:10004000894E0008894E0008894E0008894E000834
:10005000894E0008894E0008894E0008894E000824
:10006000894E0008894E0008894E0008894E000814
:10007000894E0008894E0008894E0008894E000804
:10008000894E0008894E0008894E0008894E0008F4
:100090009D0E0008894E0008894E0008894E000810
:1000A000894E0008894E0008894E0008894E0008D4
:1000B000894E0008894E0008894E0008894E0008C4
:1000C000894E0008894E0008894E0008894E0008B4
:1000D000894E0008894E0008894E0008894E0008A4
:1000E000894E0008894E0008894E00080000000073
:1000F0000000000000000000000000000000000000
:0C01000000000000000000005FF808F1A3
:10010C000348044B834202D0034B03B1184770479A
:10011C002C0100202C01002000000000054806499D
:10012C000B1AD90F01EBA301491002D0034B03B1F9
:10013C00184770472C0100202C0100200000000003
:10014C0010B5064C237843B9FFF7DAFF044B13B113
:10015C000448AFF300800123237010BD3001002050
:10016C00000000008C4E000808B5044B1BB104497C
:10017C000448AFF30080BDE80840CFE70000000062
:10018C00340100208C4E000870B50D4E0D4D761BC1
:10019C00B61006D00024013455F8043B9847A6420B
:1001AC00F9D1094E094D04F06BFE761BB61006D042
:1001BC000024013455F8043B9847A642F9D170BD90
:1001CC00BC4F0008BC4F0008C04F0008BC4F0008D3
:1001DC00032A70B412D940EA0105AD0704460B4658
:1001EC0020D11946204653F8045B54F8046BAE42F8
:1001FC0018D1043A032A20461946F2D8541E72B17B
:10020C0003780A789A4208BF241806D00CE010F83C
:10021C00013F11F8012F934206D1A042F7D10020E3
:10022C0070BC7047541EEBE7981A70BC704700BF47
:10023C00844641EA000313F0030349D1403A23D327
:10024C000B6803604B6843608B688360CB68C3604A
:10025C000B6903614B6943618B698361CB69C36132
:10026C000B6A03624B6A43628B6A8362CB6AC3621A
:10027C000B6B03634B6B43638B6B8363CB6BC36302
:10028C0040304031403ADBD230320BD30B68036044
:10029C004B6843608B688360CB68C360103010314F
:1002AC00103AF3D20C3205D351F8043B40F8043B1E
:1002BC00043AF9D2043208D0D2071CBF11F8013B22
:1002CC0000F8013B01D30B8803806046704700BFE8
:1002DC00082A13D38B07B1D010F00303AED0C3F1AF
:1002EC000403D21ADB071CBF11F8013B00F8013BD9
:1002FC00A4D331F8023B20F8023B9FE7043AD9D350
:10030C00013A11F8013B00F8013BF9D20B7803706C
:10031C004B7843708B78837060467047F0B48607D7
:10032C0046D0541E002A3CD0CAB2034602E014F157
:10033C00FF3436D303F8012B9D07F8D1032C29D9B0
:10034C00CDB245EA05250F2C45EA054533D9A4F174
:10035C001006360903F1200707EB061703F110020C
:10036C0042E9045542E902551032BA42F8D1721CE6
:10037C0014F00C0F03EB021204F00F0613D0331F12
:10038C0023F003030433134442F8045B9342FBD180
:10039C0006F003042CB1C9B21C4403F8011B9C42A7
:1003AC00FBD1F0BC704734461346002CF3D1F8E770
:1003BC0014460346C2E71A462646E0E770B588B0F5
:1003CC00002404940594069407941A4B9A6942F0FD
:1003DC0010029A619A6902F010020192019A9A69CC
:1003EC0042F020029A619A6902F020020292029A6B
:1003FC009A6942F004029A619B6903F00403039327
:10040C00039B0D4E22460221304603F0D6F8022300
:10041C000493012505950695079304A9304602F02F
:10042C00B5FF04950594069404A9044802F0AEFFA8
:10043C0008B070BD001002400010014000080140DF
:10044C00104B1B68013B13F1030F13D90E4B1B68A8
:10045C00013B13F1030F0FD90C4B1B68013B13F13C
:10046C00030F0BD90A4B1B68013B13F1030F07D881
:10047C000120704701207047012070470120704710
:10048C0000207047004000080440000808400008A5
:10049C000C40000810B5064B1C6802F075FB054BB0
:1004AC001A6882F30888044A9360A04710BD00BF05
:1004BC00044000080040000800ED00E008B50121F0
:1004CC00084803F073F808B1002008BDC82002F0FA
:1004DC00B5FB0121034803F069F8B0FA80F040093C
:1004EC00F3E700BF0008014030B595B000240D942F
:1004FC000F9410940594069407940894099401940D
:10050C0002940394049401220A924FF480330B93C7
:10051C000C940E920225119512934FF4E013139341
:10052C000AA802F0B5FB0F230593069507944FF428
:10053C00806308930994294605A802F0E7FD10236F
:10054C000193049401A802F097FE15B030BD000091
:10055C0008B502F04FFBFFF7C7FFFFF72FFF00F0C6
:10056C003BF8FFF76DFF10B1FFF7A8FF58B300F091
:10057C0033F813E0154D00220221284603F01DF834
:10058C00134C207802F05AFB01220221284603F07A
:10059C0014F8207800EB400002F050FB0C4B1B7859
:1005AC00DBB2FA2BE6D0FF2B07D0002BF6D10122C1
:1005BC000221064803F001F8F0E70022022103486B
:1005CC0002F0FBFFEAE7FFF765FFFEE700100140D2
:1005DC00000000207047000008B500220F491048A9
:1005EC0003F0BFF970B90F490D4803F0D1F960B9A8
:1005FC000D490B4803F0B2FF50B9094803F0CFF98D
:10060C0048B908BDFFF7E6FFEDE7FFF7E3FFEFE7BB
:10061C00FFF7E0FFF1E7FFF7DDFFF2E70400002052
:10062C00C0030020880000205C000020022805D8B0
:10063C00DFE800F00504020001207047022070473B
:10064C0002680E4B9A4200D0704700B583B003F598
:10065C00DA33DA6942F40002DA61DB6903F400038D
:10066C000193019B00221146142002F0BFFF1420BD
:10067C0002F0F0FF03B05DF804FB00BF005C00402B
:10068C0008B500F52C71D0F8E80203F0A0F908BD0C
:10069C0008B501EB810300EBC303D3F87C21D0F840
:1006AC00E80203F0C1F908BD08B501EB810300EBCA
:1006BC00C303DA6BD0F8E80203F0FCF908BD08B507
:1006CC00D0F8E80203F09DFA08BD10B50446836823
:1006DC00022B09D10121D4F8E80203F07BFAD4F8FB
:1006EC00E80203F04FFA10BDFFF774FFF2E70000C9
:1006FC0010B50446D0F8E80203F06FFAA36923B1F1
:10070C00024A136943F00603136110BD00ED00E0CB
:10071C0008B5D0F8E80203F069FA08BD10B5044634
:10072C001948C0F8E842C4F8C002184B036008230B
:10073C0043600223836000238361C361036200F082
:10074C005CFCE8B9182300221146D4F8C00201F071
:10075C00C2FA582300228021D4F8C00201F0BBFA5F
:10076C00982300228121D4F8C00201F0B4FAD823D6
:10077C0000220121D4F8C00201F0ADFA002010BD16
:10078C00FFF728FFDEE700BF84060020005C004076
:10079C0008B5D0F8C00200F0B6FCFFF747FF08BD63
:1007AC0010B514461A462346D0F8C00201F045F99C
:1007BC00FFF73CFF10BD08B5D0F8C00201F079F985
:1007CC00FFF734FF08BD08B5D0F8C00201F068FA95
:1007DC00FFF72CFF08BD08B5D0F8C00201F0E9F90D
:1007EC00FFF724FF08BD08B5D0F8C00201F01DFAD0
:1007FC00FFF71CFF08BDD0F8C03211F0800F08D1F4
:10080C0001F07F0101EB810103EBC10191F86A0159
:10081C00704701F07F01013101EB810103EBC10154
:10082C008878704708B5D0F8C00201F009F8FFF7D6
:10083C00FDFE08BD08B5D0F8C00201F097F9FFF72E
:10084C00F5FE08BD08B5D0F8C00201F064F9FFF759
:10085C00EDFE08BD08B5D0F8C00201F07EF908BD68
:10086C00004870474C0100207047704712230B80E2
:10087C00004870472000002004230B80004870477C
:10088C00340000200023934217D230B40BE03734ED
:10089C0001F8134000015C00013400250D550133B3
:1008AC00DBB2934207D2040FB0F1204FEFD23034B9
:1008BC0001F81340EEE730BC7047704738B50A4B6F
:1008CC00186804331C6804331B68C01800D138BD89
:1008DC00064D0822A91CFFF7D5FF042205F11201D1
:1008EC002046FFF7CFFFF2E7E8F7FF1F38000020A4
:1008FC0008B51A230B80FFF7E1FF014808BD00BFC4
:10090C003800002008B50A4628B90549054803F007
:10091C009CFC034808BD0249024803F096FCF8E72A
:10092C0070090020004F000810B50A46034C214600
:10093C00034803F08AFC204610BD00BF700900205C
:10094C00144F000808B50A4628B90549054803F0B4
:10095C007CFC034808BD0249024803F076FCF8E72A
:10096C0070090020284F000808B50A4628B9054927
:10097C00054803F06AFC034808BD0249024803F02D
:10098C0064FCF8E770090020344F000810B4A1F59E
:10099C000B14A4F56054A4081B4B99420BD01B4BB1
:1009AC0099422DD000237F2B2CD81A19013240F8F4
:1009BC0023200133F7E7164B03604FF0FF334360FE
:1009CC006FF070438360C360036105237F2B19D8DC
:1009DC001A19013240F823200133F7E71A190132B2
:1009EC0040F823200133032BF8D96FF070430361D7
:1009FC0005237F2B06D8002240F823200133F8E78B
:100A0C000023F0E710BC704700F822000018230008
:100A1C00F8FFFF0F10B504465A220849FFF708FCEF
:100A2C004FF4D272002104F15A00FFF777FC5523E2
:100A3C0084F8FE31AA2384F8FF3110BDA44E0008BF
:100A4C0010B504464FF400720021FFF767FC002339
:100A5C005222227062706122A2704121E1707220D8
:100A6C0084F8E40184F8E50184F8E61184F8E721C0
:100A7C006FF0410284F8E8216FF0670284F8E921F5
:100A8C00032284F8EA2184F8EB31052284F8EC2166
:100A9C00082284F8ED2184F8EE3184F8EF315523E7
:100AAC0084F8FE31AA2384F8FF3110BD10B504463A
:100ABC004FF400720021FFF731FC552384F8FE310E
:100ACC00AA2384F8FF3110BD70B504464FF40072B0
:100ADC000021FFF723FC2E4B03CB206061601A88AA
:100AEC009B782281A3720823E37200232373637320
:100AFC00A373E37323746374A374E3742375637532
:100B0C00A375E3756FF06306267650256576A3769C
:100B1C00E37623776377A377E3771E4A03CA2062D1
:100B2C00616211889278218584F82A20202284F829
:100B3C002B20182284F82C2084F82D3084F82E30A9
:100B4C0084F82F3084F8306084F8315084F83260A7
:100B5C0084F8335084F8343084F8353084F83630E7
:100B6C0084F8373084F8386084F83950052284F8DA
:100B7C003A2084F83B3084F83C306FF03F0284F824
:100B8C003D20032284F83E2084F83F3070BD00BF26
:100B9C00444F0008504F000810B5094B1B68CC1A85
:100BAC0004F500725B1AB2F5703F94BF9A1803F506
:100BBC00703204F1006101F58041FFF739FB10BD83
:100BCC00540000202DE9F04186B007460C46012266
:100BDC000221244802F0F1FC234B00221A7002F08F
:100BEC00A3FD224A1368A4EB030808F1006606F57E
:100BFC0080465568ED1AB5F5007F28BF4FF4007597
:100C0C0015F0030F00D00435A3420CD0B8F5703F9B
:100C1C0018D3012402F0A2FD134BFF221A702046B8
:100C2C0006B0BDE8F081002301930293104B0493AE
:100C3C00F023059301A902A802F040FE0028E5D09C
:100C4C000024E7E70024A54208D93A590023A1194A
:100C5C00022002F0C1FD18B90434F4E70124D9E7ED
:100C6C000024D7E7001001400000002054000020B1
:100C7C000040000808B5C1F30803002B47D101B3AD
:100C8C00B1F5406F1DD0B1F5007F1ED0B1F5606F8E
:100C9C001BD0B1F5806F1CD0B1F5805F19D0A1F5D8
:100CAC000B13A3F56053B3F5085F06D3A1F54513F9
:100CBC00A3F57053B3F5085F0FD2FFF767FE012061
:100CCC0002E0FFF7A7FE012008BDFFF7B9FE0120E7
:100CDC00FAE7FFF7EBFE0120F6E7B1F5800F0ED037
:100CEC000C4B1B688B4203D80A4B5B688B420AD8AF
:100CFC004FF400720021FFF711FB0120E4E7FFF72E
:100D0C00E3FE0120E0E7FFF747FF0120DCE70020CE
:100D1C00DAE700BF5400002070B582B0C1F30804BC
:100D2C00002C40D10646224B5B6823F4FF7222F064
:100D3C000102C3F308030BB14FF400731344B1F574
:100D4C00800F33D30AD01A4A12688A4201D89942CA
:100D5C0025D301208DF8070026E02034B4F5007F60
:100D6C001BD235190322134905F10800FFF730FA9D
:100D7C000028F2D1AA8A6B8B43EA024303F5FF5396
:100D8C001E335B020A4A1360E969B1F5703F94BFE8
:100D9C005B1803F570335360DFE7012004E0304645
:100DAC00FFF710FF00E0002002B070BD0120FBE750
:100DBC0054000020584F0008002070474FF4803337
:100DCC000B604FF4007313800020704700207047B5
:100DDC0000207047002070472DE9F8430646144662
:100DEC001D46DDF82080DDF8249000274F450AD2FF
:100DFC0021463046FFF790FF14EB080445F100053F
:100E0C0046440137F2E7BDE8F88310B582B0002400
:100E1C0001934FF400730093520223460846FFF7E8
:100E2C00DBFF204602B010BD2DE9F8430646144600
:100E3C001D46DDF82080DDF8249000274F450AD2AE
:100E4C0021463046FFF716FF14EB080445F1000568
:100E5C0046440137F2E7BDE8F88310B582B00024B0
:100E6C0001934FF400730093520223460846FFF798
:100E7C00DBFF204602B010BD7047FEE7FEE7FEE741
:100E8C00FEE770477047704708B501F0C5FE08BD16
:100E9C0008B5024800F0E8FC08BD00BF840600203D
:100EAC0082B00E4B9A6942F001029A619A6902F083
:100EBC0001020092009ADA6942F08052DA61DB6931
:100ECC0003F080530193019B054A536823F0E063C0
:100EDC0043F00073536002B0704700BF0010024033
:100EEC000000014070B512F4804F43D00468B4F890
:100EFC0050309BB20D7803EBC503023304EB430374
:100F0C00B3F80044C4F309048B69A34228D31B1B18
:100F1C008B618B697BB9066836F825309BB223F45C
:100F2C00804323F0700383F4005343F4004343F0F5
:100F3C00800326F8253012F0400F0ED002680D7891
:100F4C0032F825309BB223F4E04323F0700343F4D2
:100F5C00004343F0C00322F8253024B9204670BD6D
:100F6C0000238B61D5E723460A894969006801F0A3
:100F7C00F2FDF3E70468B4F850309BB20D7803EB44
:100F8C00C503063304EB4303B3F80044C4F309046C
:100F9C008B69A3422ED31B1B8B618B697BB90668B3
:100FAC0036F825309BB223F4804323F0700383F48E
:100FBC00005343F4004343F0800326F8253012F02D
:100FCC00400F0ED102680D7832F825309BB223F415
:100FDC00E04323F0700343F4004343F0C00322F8D2
:100FEC002530002CBAD023464A894969006801F0A3
:100FFC00B2FDB3E700238B61CFE7F0B587B00028D3
:10100C007FD0044690F8A932DBB1032384F8A932CF
:10101C00206800F08CFE254655F8107B6E460FCDEF
:10102C000FC62B683360231D0ECB384600F06FFEC5
:10103C00054658B1022384F8A9320125284607B089
:10104C00F0BD80F8A832FFF7FBFADEE7002120683C
:10105C0000F077FE2B4619E05A1C02EB820104EBE0
:10106C00C1010120487002EB820104F8313003EB1E
:10107C00830104EBC101CB8602EB820604EBC606AE
:10108C000020F0708863C8630864D3B261688B4237
:10109C00E2D316E005EB850304EBC303002283F8CF
:1010AC00692183F8685183F86B21C3F87821C3F860
:1010BC007C2105EB850304EBC303C3F880210135C8
:1010CC00EDB2A942E6D8254655F8107B6E460FCDF9
:1010DC000FC62B683360231D0ECB384600F033FE51
:1010EC00054620B1022384F8A9320125A6E7002386
:1010FC0084F82430012384F8A932206801F041F9E6
:10110C009CE701259AE738B590F8A832012B11D04D
:10111C000446012580F8A852006800F0FFFD29461E
:10112C002046FFF7A2FB206801F029F9002084F883
:10113C00A80238BD0220FCE770B505460C461646E1
:10114C0012F0400F00F0BA800268B2F850309BB237
:10115C00097803EBC103023302EB4303B3F8002419
:10116C00C2F30902A36993422BD99B1AA361A36909
:10117C0053B316F4804F0DD0286830F821309BB251
:10118C0023F4E04323F0700343F4404343F0800323
:10119C0020F8213094F82430012B2BD02A682178A8
:1011AC0032F821309BB223F4E04323F0400383F068
:1011BC00300343F4004343F0800322F82130002035
:1011CC0070BD0023A361D2E72846FFF76DFA16F431
:1011DC00804FE3D02A68217832F821309BB223F477
:1011EC00E04323F0700343F4404343F0800322F8C0
:1011FC002130D3E7636913446361E3691344E3610A
:10120C00216A236999421FD3C91A21626278002A84
:10121C003FD12A68B2F8501089B20A44217802EB07
:10122C000112EBB9B2F8041489B221F4F84189B275
:10123C00A2F80414B2F804146FEA41416FEA514168
:10124C0089B2A2F8041426E021B9002384F82430D2
:10125C001346DBE7002384F8243023620B46D5E7E2
:10126C003E2B09D8590813F0010F00D00131890227
:10127C0089B2A2F804140EE0590913F01F0F00D123
:10128C0001396FEAC1616FEA514189B2A2F80414C5
:10129C0001E0012A06D09BB222896169286801F01D
:1012AC0078F87BE72A68B2F8501089B20A442178A2
:1012BC0002EB011299B2A2F80414ECE70268B2F83E
:1012CC0050309BB2097803EBC103063302EB4303A6
:1012DC00B3F80024C2F30902A369934244D39B1AC6
:1012EC00A361A369002B42D016F4804F0DD128685E
:1012FC0030F821309BB223F4E04323F0700343F425
:10130C00404343F0800320F8213094F82430012B23
:10131C007FF444AF636913446361E3691344E3618D
:10132C00216A2369994239D3C91A21622A686178E2
:10133C00002958D1B2F8501089B20A44217802EB36
:10134C000112BBBBB2F80C1489B221F4F84189B27A
:10135C00A2F80C14B2F80C146FEA41416FEA514137
:10136C0089B2A2F80C1440E00023A361B9E7284627
:10137C00FFF79AF916F4804F7FF410AF2A682178A2
:10138C0032F821309BB223F4E04323F0700343F492
:10139C00404343F0800322F82130FFE621B90023BB
:1013AC0084F824301346C1E70023236284F82430E8
:1013BC000B46BBE73E2B09D8590813F0010F00D0A0
:1013CC000131890289B2A2F80C140EE0590913F00C
:1013DC001F0F00D101396FEAC1616FEA514189B227
:1013EC00A2F80C1401E0012906D09BB26289616954
:1013FC00286800F0CEFFD1E6B2F8501089B20A444A
:10140C00217802EB011299B2A2F80C14EDE72DE948
:10141C00F04105462868B0F8443013F4004F00F052
:10142C000C82B0F84440A3B214F00F0440F0D48006
:10143C0013F0100F5DD003889AB213F4006F40F0D4
:10144C008F8012F4004FE5D0038823F070031B0546
:10145C001B0D43F0800303802868B0F850309BB21A
:10146C0095F8682103EBC203063300EB4303B3F892
:10147C000034C3F30903C5F884318BB1D5F87C1162
:10148C0071B1B5F86E2101F066FBD5F88421D5F861
:10149C007C311344C5F87C3100212846FFF7F8F85D
:1014AC002A68B2F850309BB21344D5F87821002A40
:1014BC0079D1B3F80C2492B222F4F84292B2A3F888
:1014CC000C24B3F80C246FEA42426FEA524292B2F7
:1014DC00A3F80C242A6813889BB223F4804323F0CE
:1014EC00700383F4405343F4004343F080031380B0
:1014FC0090E703889BB223F4E14323F070036FEA77
:10150C0043436FEA53439BB203802A68B2F85030CE
:10151C009BB295F8281003EBC103023302EB430393
:10152C00B3F80034C3F309036B64EA6B1344EB6345
:10153C0000212846FFF7B8F895F82430002B3FF42B
:10154C0069AF2B6C002B7FF465AF95F824302A68BB
:10155C0043F08003A2F84C30002385F8243059E77F
:10156C00B0F850309BB295F8682103EBC2030633F8
:10157C0000EB4303B3F80034C3F30903C5F884311B
:10158C00B5F86E2105F52C7101F0E5FA2A6813887F
:10159C0023F070031B051B0D43F0800313802846BA
:1015AC00FFF76EF836E73E2A09D8510812F0010F02
:1015BC0000D00131890289B2A3F80C148AE75109D1
:1015CC0012F01F0F00D101396FEAC1626FEA52426B
:1015DC0092B2A3F80C247DE730F824309EB213F4B9
:1015EC00004F4CD116F0800F3FF414AF621C02EB8D
:1015FC00820105EBC101286830F824309BB223F43A
:10160C00E14323F070036FEA43436FEA53439BB209
:10161C0020F82430CB78022B00F0F2802868B0F848
:10162C0050309BB2621C02EB820215F8322003EBA5
:10163C00C203023300EB4303B3F80034C3F30903D2
:10164C0004EB840205EBC202126C9A4240F2E18078
:10165C0004EB840605EBC606D21A326404EB840252
:10166C0005EBC202126C002A40F0DA80013404EB64
:10167C00840415F834102846FFF716F8CAE630F83B
:10168C00243023F070031B051B0D43F0800320F85E
:10169C00243004EB8401C90001F5B47105EB010899
:1016AC0004EB840305EBC30393F87431002B42D194
:1016BC002868B0F850309BB204EB840205EBC202F0
:1016CC0092F8682103EBC203063300EB4303B3F833
:1016DC000074C7F3090717BB04EB840305EBC303C2
:1016EC00D3F884213A44C3F88421D3F87C213A44BA
:1016FC00C3F87C21D3F880313BB104EB840305EBB8
:10170C00C303D3F878319F4275D204EB840305EB05
:10171C00C30393F868112846FEF7BAFF62E704EB9F
:10172C00840105EBC1013B46B1F86E21D1F87C1167
:10173C0001F011FAD0E704EB840305EBC30393F833
:10174C006B31022B35D0296804EB840205EBC20205
:10175C0092F8680131F820309BB223F4E04323F077
:10176C00700343F4004343F0C00321F82030286891
:10177C0092F8682130F8223013F4804F20D0B0F862
:10178C0050309BB203EBC203023300EB4303B3F8BC
:10179C000074C7F30907002F9ED004EB840105EBFE
:1017AC00C1013B46B1F87021D1F87C1101F0D3F99D
:1017BC0092E7324641462846FFF794FB07468BE7F3
:1017CC00B0F850309BB203EBC203063300EB43037B
:1017DC00B3F80074C7F30907002F3FF47DAF04EB97
:1017EC00840105EBC1013B46B1F87221D1F87C11A3
:1017FC0001F0B1F970E74146286800F0DDFDF1E633
:10180C0016F4807F3FF40AAF32462846FFF794FC6B
:10181C0000E604EB840205EBC202002616641DE709
:10182C0004EB840205EBC202D66B1E44D663546CE7
:10183C002344536400F0C0FDECE50020BDE8F081CA
:10184C0090F8A832012B0DD010B50446012380F876
:10185C00A83280F82410006800F08BFD002084F87A
:10186C00A80210BD0220704710B584B00446006871
:10187C0000F089FD10F4004F32D1206800F083FD98
:10188C0010F4806F30D1206800F07DFD10F4804F93
:10189C0008D02268B2F844309BB223F480439BB248
:1018AC00A2F84430206800F06EFD10F4005F08D000
:1018BC002268B2F844309BB223F400539BB2A2F8D6
:1018CC004430206800F05FFD10F4805F1DD120686B
:1018DC0000F059FD10F4006F00F08B8000233DE008
:1018EC002046FFF794FDC8E72268B2F844309BB25B
:1018FC0023F480639BB2A2F844302046FEF7E5FE49
:10190C0000212046FFF79CFFBDE72268B2F840306B
:10191C009BB223F004039BB2A2F840302268B2F8C9
:10192C0040309BB223F008039BB2A2F84030204613
:10193C00FEF7EEFE2268B2F844309BB223F48053DB
:10194C009BB2A2F84430C2E7226832F8231004AAF2
:10195C0002EB430222F8101C0133DBB2072BF3D944
:10196C002268B2F840309BB243F00103A2F8403039
:10197C002268B2F840309BB223F001039BB2A2F86C
:10198C0040302368B3F8442012F4806FF9D0B3F8D8
:10199C00442092B222F4806292B2A3F84420002335
:1019AC0009E0226804A901EB430131F8101C22F86C
:1019BC0023100133DBB2072BF3D92268B2F8403085
:1019CC009BB243F00803A2F840302268B2F84430CE
:1019DC009BB223F400639BB2A2F844302268B2F8A5
:1019EC0040309BB243F00403A2F840302046FEF78F
:1019FC007FFE206800F0C7FC10F4007F10D1206837
:101A0C0000F0C1FC10F4807F08D02268B2F844309A
:101A1C009BB223F480739BB2A2F8443004B010BD87
:101A2C002268B2F844309BB223F400739BB2A2F844
:101A3C0044302046FEF743FEE1E770B505460C4600
:101A4C0011F0800F26D101F0070000EB8001C900D6
:101A5C0001F5B476A91900EB800005EBC000002657
:101A6C0080F8696104F007040C700A61CB704A7845
:101A7C0002B1CC81022B17D095F8A832012B16D0CD
:101A8C00012385F8A832286800F074F9002085F845
:101A9C00A80270BD01F00700013000EB800105EBDE
:101AAC00C10101264E70DDE700230B71E4E7022033
:101ABC00EFE710B504460B4611F0800F1FD101F073
:101ACC00070202EB8201C90001F5B471014402EB7B
:101ADC00820200EBC202002082F8690103F00703C6
:101AEC000B7094F8A832012B13D0012384F8A83280
:101AFC00206800F0DEFA002084F8A80210BD01F086
:101B0C000702013202EB820100EBC1010120487097
:101B1C00E4E70220F2E738B501F0070404EB840196
:101B2C00C90001F5B471014404EB840500EBC50553
:101B3C00C5F87C21C5F880310023C5F8843185F8BF
:101B4C00693185F8684124B9006800F035FC002043
:101B5C0038BD006800F030FCF9E701F0070101EB3B
:101B6C00810100EBC101D1F88401704770B501F01F
:101B7C0007056C1C04EB840100EBC10105EB850629
:101B8C0000EBC606F2633364012286F84C20B36482
:101B9C00002373644A7004EB840400F8345025B9B4
:101BAC00006800F009FC002070BD006800F004FC27
:101BBC00F9E738B501F007054268954231D804467B
:101BCC000B4611F0800F1ED101EB8101C90001F50C
:101BDC00B471014403EB830300EBC303002283F8CD
:101BEC00692101238B700D7094F8A832012B1AD047
:101BFC00012384F8A832206800F045FB5DB1002079
:101C0C0084F8A80238BD6B1C03EB830100EBC10107
:101C1C0001224A70E5E704F52C71206800F0B7FB4F
:101C2C00EDE70120EEE70220ECE70B4601F00F0197
:101C3C004268914230D810B5044613F0800F21D180
:101C4C0003F0070202EB8201C90001F5B4710144F3
:101C5C0002EB820200EBC202002082F86901002232
:101C6C008A7003F007030B7094F8A832012B15D07F
:101C7C00012384F8A832206800F02AFB002084F8A5
:101C8C00A80210BD03F00702013202EB820100EB47
:101C9C00C10101204870E2E7012070470220F0E703
:101CAC0090F8A832012B14D010B50446012380F80B
:101CBC00A83211F0800F06D1006800F059F800200E
:101CCC0084F8A80210BD01F00701006800F04EF87E
:101CDC00F5E70220704711F0800F0BD001F00701DF
:101CEC00013101EB810100EBC10152B90A73CB80C8
:101CFC000020704701EB8101C90001F5B47101446A
:101D0C00F3E701220A730B811B0C4B81F0E784B0C3
:101D1C0001A880E80E00002004B0704703460020A4
:101D2C00A3F844004FF43F42A3F840207047B0F8AA
:101D3C00403023F47C535B045B0CA0F84030002053
:101D4C0070470020704784B010B4044602A880E8A5
:101D5C000E000123A4F840300020A4F84000A4F8A1
:101D6C004400A4F8500010BC04B070470020704729
:101D7C000020704730B403460C7830F8242092B21F
:101D8C0022F4EC4222F0700292B2C87803285AD89E
:101D9C00DFE800F04E550251002048F280052A433E
:101DAC0023F824200C7833F8242092B222F4E04259
:101DBC0022F0700222432A4323F824200A7B002AB3
:101DCC0040F0B6804A78002A4ED0B3F8502092B238
:101DDC001A440C7802EB0412CC8864086400A2F854
:101DEC0000440C7833F8242012F0400F0CD033F858
:101DFC00242092B222F4E04222F0700242F400421B
:101E0C0042F0C00223F82420CA78012A1DD0097898
:101E1C0033F8212092B222F4E04222F0400282F008
:101E2C00200242F4004242F0800223F8212064E0B8
:101E3C0042F40072B1E742F4C0620020ADE742F414
:101E4C0080620020A9E70120A7E7097833F8212058
:101E5C0092B222F4E04222F0400242F4004242F0FC
:101E6C00800223F8212048E0B3F8502092B21A44A3
:101E7C000C7802EB0412CC8864086400A2F80844C5
:101E8C00B3F8502092B21A440C7802EB04120C698D
:101E9C00ACBBB2F80C44A4B224F4F844A4B2A2F83B
:101EAC000C44B2F80C446FEA44446FEA5444A4B2B4
:101EBC00A2F80C440C7833F8242012F4804F0CD088
:101ECC0033F8242092B222F4E04222F0700242F461
:101EDC00404242F0800223F82420097833F8212074
:101EEC0092B222F4804222F0700282F4405242F408
:101EFC00004242F0800223F8212030BC70473E2C77
:101F0C0009D8650814F0010F00D00135AD02ADB24F
:101F1C00A2F80C54CEE7650914F01F0F00D1013D57
:101F2C006FEAC5646FEA5444A4B2A2F80C44C1E74A
:101F3C000C7833F8242092B222F4E04222F07002A2
:101F4C0042F4014242F0800223F82420B3F85020DE
:101F5C0092B21A440C7802EB04120C8964086400E7
:101F6C00A2F80044B3F8502092B21A440C7802EB59
:101F7C0004124C8964086400A2F808444A78002AC8
:101F8C0040D10C7833F8242012F4804F0CD033F865
:101F9C00242092B222F4E04222F0700242F4404239
:101FAC0042F0800223F824200C7833F8242012F01D
:101FBC00400F0CD033F8242092B222F4E04222F0ED
:101FCC00700242F4004242F0C00223F824200D7843
:101FDC0033F8252092B222F4804222F0700282F46F
:101FEC00405248F28004224323F82520097833F824
:101FFC00212092B222F4E04222F04002224323F844
:10200C0021207AE70C7833F8242012F4804F0CD07E
:10201C0033F8242092B222F4E04222F0700242F40F
:10202C00404242F0800223F824200C7833F824201C
:10203C0012F0400F0CD033F8242092B222F4E0427C
:10204C0022F0700242F4004242F0C00223F8242035
:10205C00CA78012A1ED00C7833F8242092B222F4CC
:10206C00E04222F0400282F0200242F4004242F0B0
:10207C00800223F82420097833F8212092B222F42C
:10208C00804222F0700242F4004242F0800223F8B7
:10209C00212032E70C7833F8242092B222F4E0426B
:1020AC0022F0400242F4004242F0800223F8242045
:1020BC00E1E70B7B002B46D14B7813B30A7830F851
:1020CC00223013F0400F0CD030F822309BB223F4A6
:1020DC00E04323F0700343F4004343F0C00320F8C3
:1020EC0022300A7830F822309BB223F4E04323F0FC
:1020FC00400343F4004343F0800320F822300020D7
:10210C0070470A7830F8223013F4804F0CD030F836
:10211C0022309BB223F4E04323F0700343F440439A
:10212C0043F0800320F822300A7830F822309BB23A
:10213C0023F4804323F0700343F4004343F0800303
:10214C0020F82230DBE710B44B78002B4ED10A7804
:10215C0030F8223013F4804F0CD030F822309BB280
:10216C0023F4E04323F0700343F4404343F0800333
:10217C0020F822300A7830F8223013F0400F0CD0BF
:10218C0030F822309BB223F4E04323F0700343F485
:10219C00004343F0C00320F822300A7830F8223094
:1021AC009BB223F4E04323F0700343F4004343F069
:1021BC00C00320F822300B7830F8232092B222F49E
:1021CC00804222F0700248F28004224320F823203F
:1021DC000A7830F822309BB223F4E04323F040031A
:1021EC00234320F82230002010BC70470A7830F8C6
:1021FC00223013F4804F0CD030F822309BB223F4F1
:10220C00E04323F0700343F4404343F0800320F891
:10221C0022300A7830F8223013F0400F0CD030F80E
:10222C0022309BB223F4E04323F0700343F40043C9
:10223C0043F0C00320F822300A7830F822309BB2E9
:10224C0023F4E04323F0700343F4404343F0800352
:10225C0020F822300B7830F8232092B222F4E0429E
:10226C0022F0400248F28004224320F823200A780E
:10227C0030F822309BB223F4804323F070032343C5
:10228C0020F82230AFE74B788BB10A7830F8223047
:10229C009BB223F4E04323F0400383F0100343F498
:1022AC00004343F0800320F82230002070470A7866
:1022BC0030F822309BB223F4804323F0700383F474
:1022CC00805343F4004343F0800320F82230ECE7C2
:1022DC000B7B002B4BD14B7833B30A7830F8223080
:1022EC0013F0400F0CD030F822309BB223F4E043B3
:1022FC0023F0700343F4004343F0C00320F8223072
:10230C00CB78012B33D00A7830F822309BB223F4EF
:10231C00E04323F0400383F0200343F4004343F0F5
:10232C00800320F8223022E00A7830F8223013F4AF
:10233C00804F0CD030F822309BB223F4E04323F0D2
:10234C00700343F4404343F0800320F822300A78B2
:10235C0030F822309BB223F4804323F0700383F4D3
:10236C00405343F4004343F0800320F82230002014
:10237C00704711B98023A0F84C3000207047002022
:10238C00704700207047B0F8440080B270470020BE
:10239C00704710B45C1C640800EB420202F58062CA
:1023AC0044B10B78487843EA002322F8043B02310D
:1023BC00013CF5E710BC704770B505460C464A78F1
:1023CC00012A37D00B7B002B40F0A0828B690A6965
:1023DC00934240F27E829B1A8B61B5F850309BB2CF
:1023EC002B44217803EB0113002A40F07682B3F8DA
:1023FC000C2492B222F4F84292B2A3F80C24B3F853
:10240C000C246FEA42426FEA524292B2A3F80C24B7
:10241C00227835F822309BB223F4804323F07003EA
:10242C0083F4405343F4004343F0800325F82230F7
:10243C00002070BD8E6909698E4200D90E46237B3F
:10244C003BB3E378022B46D0217835F8213013F0DA
:10245C00400F00F0EE81002A40F0CA81B5F85030F0
:10246C009BB22B4403EB0113002E40F0A881B3F870
:10247C000C2492B222F4F84292B2A3F80C24B3F8D2
:10248C000C246FEA42426FEA524292B2A3F80C2437
:10249C00B7E1B6B23346E28861692846FFF779FFA7
:1024AC00B5F850309BB22B44227803EB0213A3F8FF
:1024BC000464227835F822309BB223F4E04323F0F5
:1024CC00400383F0300343F4004343F0800325F8CA
:1024DC0022300020ADE7236A994280F052812278A5
:1024EC0035F822309BB223F4E04323F0700343F41D
:1024FC00014343F0800325F82230236A9B1B23629F
:10250C00237835F8232012F0400F00F09D8062787C
:10251C008ABBB5F8502092B22A4402EB03138EB951
:10252C00B3F80C2492B222F4F84292B2A3F80C2421
:10253C00B3F80C246FEA42426FEA524292B2A3F80B
:10254C000C241AE03E2E09D8720816F0010F00D0A8
:10255C000132920292B2A3F80C240EE0720916F02A
:10256C001F0F00D1013A6FEAC2626FEA524292B277
:10257C00A3F80C2401E0012A2BD0B3B26289616963
:10258C002846FFF706FF636933446361236A2269B7
:10259C00934228D99B1B23626378002B40D1B5F85A
:1025AC0050309BB22B44227803EB0213FEB9B3F8E4
:1025BC00042492B222F4F84292B2A3F80424B3F8A1
:1025CC0004246FEA42426FEA524292B2A3F8042406
:1025DC0028E0B5F8502092B22A4402EB0313B2B2B1
:1025EC00A3F80C24C9E7002222621E46D4E73E2E33
:1025FC0009D8720816F0010F00D00132920292B283
:10260C00A3F804240EE0720916F01F0F00D1013A52
:10261C006FEAC2626FEA524292B2A3F8042401E05C
:10262C00012B06D0B3B2228961692846FFF7B1FEAF
:10263C003FE7B5F850309BB22B44227803EB0213E2
:10264C00B2B2A3F80424EDE762788ABBB5F8502047
:10265C0092B22A4402EB03138EB9B3F8042492B25B
:10266C0022F4F84292B2A3F80424B3F804246FEADB
:10267C0042426FEA524292B2A3F804241AE03E2E70
:10268C0009D8720816F0010F00D00132920292B2F2
:10269C00A3F804240EE0720916F01F0F00D1013AC2
:1026AC006FEAC2626FEA524292B2A3F8042401E0CC
:1026BC00012A2BD0B3B2228961692846FFF769FE43
:1026CC00636933446361236A2269934228D99B1B53
:1026DC0023626378002B40D1B5F850309BB22B4469
:1026EC00227803EB0213FEB9B3F80C2492B222F455
:1026FC00F84292B2A3F80C24B3F80C246FEA4242CD
:10270C006FEA524292B2A3F80C2428E0B5F850209C
:10271C0092B22A4402EB0313B2B2A3F80424C9E721
:10272C00002222621E46D4E73E2E09D8720816F00B
:10273C00010F00D00132920292B2A3F80C240EE0E9
:10274C00720916F01F0F00D1013A6FEAC2626FEAEC
:10275C00524292B2A3F80C2401E0012B06D0B3B282
:10276C00628961692846FFF714FEA2E6B5F850307D
:10277C009BB22B44227803EB0213B2B2A3F80C24C5
:10278C00EDE7217835F8212092B222F4E24222F0D2
:10279C00700242F4004242F0800225F82120B5F884
:1027AC00502092B22A44217802EB01129BB2A2F87B
:1027BC000434228961692846FFF7EBFD79E63E2E49
:1027CC0009D8720816F0010F00D00132920292B2B1
:1027DC00A3F80C2415E0720916F01F0F00D1013A72
:1027EC006FEAC2626FEA524292B2A3F80C2408E07C
:1027FC00B5F850309BB22B4403EB0113B2B2A3F8E3
:10280C000C246289B3B261692846FFF7C2FD637874
:10281C00002B4CD1227835F822309BB223F4E043C4
:10282C0023F0700343F4004343F0C00325F8223037
:10283C003FE68ABBB5F850309BB22B4403EB011337
:10284C008EB9B3F8042492B222F4F84292B2A3F8EF
:10285C000424B3F804246FEA42426FEA524292B263
:10286C00A3F8042421E03E2E09D8720816F0010FBB
:10287C0000D00132920292B2A3F8042415E072093E
:10288C0016F01F0F00D1013A6FEAC2626FEA524292
:10289C0092B2A3F8042408E0B5F850309BB22B4454
:1028AC0003EB0113B2B2A3F804242289AAE7012B8B
:1028BC007FF4FFAD227835F822309BB223F4E0434D
:1028CC0023F0700343F4404343F0800325F8223097
:1028DC00EFE500228A611A467FE53E2A09D85108A5
:1028EC0012F0010F00D00131890289B2A3F80C1447
:1028FC008EE5510912F01F0F00D101396FEAC16149
:10290C006FEA514189B2A3F80C1481E5CB78022B04
:10291C0045D0012B40F01D8189692369994240F211
:10292C00D480C91AA161D2B9B5F8502092B22A4408
:10293C00217802EB0112002B40F0CB80B2F804148A
:10294C0089B221F4F84189B2A2F80414B2F8041443
:10295C006FEA41416FEA514189B2A2F804146278DE
:10296C00002A40F0E880B5F8502092B22A44217831
:10297C0002EB0112002B40F0C580B2F80C349BB274
:10298C0023F4F8439BB2A2F80C34B2F80C346FEA7F
:10299C0043436FEA53439BB2A2F80C3438E5CAB9EF
:1029AC00B0F850309BB203440A7803EB02130A6967
:1029BC0072BBB3F8042492B222F4F84292B2A3F898
:1029CC000424B3F804246FEA42426FEA524292B2F2
:1029DC00A3F804246378002B4CD1B5F850309BB28B
:1029EC002B44227803EB0213226952BBB3F80C245C
:1029FC0092B222F4F84292B2A3F80C24B3F80C244D
:102A0C006FEA42426FEA524292B2A3F80C2433E0CE
:102A1C003E2A09D8510812F0010F00D001318A0268
:102A2C0092B2A3F80424D5E7510912F01F0F00D17C
:102A3C0001396FEAC1626FEA524292B2A3F80424E0
:102A4C00C8E73E2A09D8510812F0010F00D0013115
:102A5C008A0292B2A3F80C240EE0510912F01F0F57
:102A6C0000D101396FEAC1626FEA524292B2A3F807
:102A7C000C2401E0012B1DD0E369002B3FF4C8AC02
:102A8C00227835F8221044F2400303EA01008B430C
:102A9C0002D000287FF4BCAC35F822309BB223F472
:102AAC00E04323F0700343F4004343F0C00325F8E4
:102ABC002230ADE4B5F850309BB22B44227803EBB6
:102ACC000213228AA3F80C24D6E70023A3610B4639
:102ADC0029E73E2B09D8590813F0010F00D001311A
:102AEC00890289B2A2F8041439E7590913F01F0FAF
:102AFC0000D101396FEAC1616FEA514189B2A2F884
:102B0C0004142CE73E2B09D8590813F0010F00D000
:102B1C0001318B029BB2A2F80C3479E4590913F001
:102B2C001F0F00D101396FEAC1636FEA53439BB2A7
:102B3C00A2F80C346CE4012A7FF46AACB5F850208E
:102B4C0092B22A44217802EB01129BB2A2F80C3407
:102B5C005EE401206DE410B45C0800EB420000F56B
:102B6C00806044B130F8042B0A70C2F307224A701B
:102B7C000231013CF5E713F0010F01D003880B7013
:102B8C0010BC70477047000010B5064B4FF0FF3279
:102B9C00DA6000241C61DA60DC60FFF7F3FF20468A
:102BAC0010BD00BF0010024010B504460E4B187843
:102BBC004FF47A73B3FBF0F30C4A1068B0FBF3F0EC
:102BCC0000F056FD68B90F2C01D901200AE0002253
:102BDC0021464FF0FF3000F009FD054B1C60002032
:102BEC0000E0012010BD00BF7C000020840000200C
:102BFC008000002008B5074A136843F010031360E7
:102C0C00032000F0E1FC0020FFF7CEFFFEF748F9AF
:102C1C00002008BD00200240034A1168034B1B78BA
:102C2C000B441360704700BF700B00207C00002029
:102C3C00014B1868704700BF700B002038B5044674
:102C4C00FFF7F6FF0546B4F1FF3F02D0044B1B78AB
:102C5C001C44FFF7EDFF401BA042FAD338BD00BF68
:102C6C007C00002082B0084B1B68084AA2FB03239F
:102C7C005B0A00FB03F3019300BF019B5A1E0192F8
:102C8C00002BF9D102B0704784000020D34D6210A4
:102C9C00002800F0F18170B582B00446036813F08F
:102CAC00010F2CD0AA4B5B6803F00C03042B1DD036
:102CBC00A74B5B6803F00C03082B12D06368B3F5C9
:102CCC00803F41D0002B55D103F1804303F50433F1
:102CDC001A6822F480321A601A6822F480221A6070
:102CEC0037E09B4B5B6813F4803FE7D0984B1B6835
:102CFC0013F4003F03D06368002B00F0BF812368FE
:102D0C0013F0020F75D0924B5B6813F00C0F5FD071
:102D1C008F4B5B6803F00C03082B54D02369002BFA
:102D2C0000F089808B4B01221A60FFF781FF05466A
:102D3C00874B1B6813F0020F74D1FFF779FF401B10
:102D4C000228F5D903209EE1814A136843F48033AD
:102D5C001360636843B3FFF76BFF05467C4B1B683E
:102D6C0013F4003FCBD1FFF763FF401B6428F5D968
:102D7C00032088E1B3F5A02F09D0754B1A6822F413
:102D8C0080321A601A6822F480221A60E1E703F19B
:102D9C008043A3F53C331A6842F480221A601A6807
:102DAC0042F480321A60D4E7FFF742FF0546684BC5
:102DBC001B6813F4003FA2D0FFF73AFF401B6428B6
:102DCC00F5D903205FE1624B5B6813F4803FA5D11A
:102DDC005F4B1B6813F0020F03D02369012B40F0EB
:102DEC004F815B4A136823F0F803616943EAC1031E
:102DFC001360236813F0080F32D0A369002B45D061
:102E0C00554B01221A60FFF713FF0546504B5B6AC6
:102E1C0013F0020F21D1FFF70BFF401B0228F5D94D
:102E2C00032030E14A4A136823F0F803616943EA4E
:102E3C00C1031360DDE7474B00221A60FFF7F8FE71
:102E4C000546434B1B6813F0020FD2D0FFF7F0FE80
:102E5C00401B0228F5D9032015E10120FFF702FFE2
:102E6C00236813F0040F00F09780394BDB6913F0E3
:102E7C00805F1DD1364BDA6942F08052DA61DB6932
:102E8C0003F080530193019B012512E0324B002289
:102E9C001A60FFF7CDFE05462D4B5B6A13F0020F4F
:102EAC00DED0FFF7C5FE401B0228F5D90320EAE06F
:102EBC0000252A4B1B6813F4807F11D0E368012B8B
:102ECC0022D0002B38D103F1804303F504331A6A66
:102EDC0022F001021A621A6A22F004021A6218E045
:102EEC001E4A136843F480731360FFF7A1FE064675
:102EFC001A4B1B6813F4807FE0D1FFF799FE801BFF
:102F0C006428F5D90320BEE0114A136A43F001038B
:102F1C001362E36873B3FFF78BFE06460C4B1B6A18
:102F2C0013F0020F37D1FFF783FE801B41F2883379
:102F3C009842F3D90320A6E0052B11D0044B1A6A52
:102F4C0022F001021A621A6A22F004021A62E0E705
:102F5C0000100240000042428004424200700040D7
:102F6C004D4B1A6A42F004021A621A6A42F00102CC
:102F7C001A62CEE7FFF75CFE0646474B1B6A13F05E
:102F8C00020F08D0FFF754FE801B41F288339842A1
:102F9C00F3D9032077E0E5B9E369002B72D03E4A00
:102FAC00526802F00C02082A56D0022B17D03B4B69
:102FBC0000221A60FFF73CFE0446374B1B6813F0E7
:102FCC00007F47D0FFF734FE001B0228F5D9032001
:102FDC0059E0314AD36923F08053D361DCE72F4B9E
:102FEC0000221A60FFF724FE05462B4B1B6813F0DA
:102FFC00007F06D0FFF71CFE401B0228F5D90320EA
:10300C0041E0236AB3F5803F1AD023494B6823F47F
:10301C007413226A606A024313434B601F4B0122F4
:10302C001A60FFF705FE04461B4B1B6813F0007F6C
:10303C000ED1FFF7FDFD001B0228F5D9032022E07D
:10304C00154A536823F40033A1680B435360DCE743
:10305C00002018E0002016E0012B16D00E4B5B6808
:10306C0003F48031226A914211D103F47013626A25
:10307C0093420ED1002006E001207047012002E0AF
:10308C00012000E0002002B070BD0120FBE7012010
:10309C00F9E70120F7E700BF001002406000424250
:1030AC0086B0164B0FCB0DF1180C0CE90F0040F24B
:1030BC000123ADF80430124B5B6803F00C02082AB4
:1030CC0002D0104806B07047C3F38342624412F832
:1030DC00102C13F4803F0CD0094B5B68C3F34043B6
:1030EC00634413F8143C074800FB02F0B0FBF3F008
:1030FC00E8E7054800FB02F0E4E700BF804F00085A
:10310C000010024000127A0000093D00002800F077
:10311C00A08070B50D460446524B1B6803F00703A4
:10312C008B420BD24F4A136823F007030B431360F7
:10313C00136803F007038B4240F08D80236813F073
:10314C00020F17D013F0040F04D0474A536843F40E
:10315C00E0635360236813F0080F04D0424A5368AD
:10316C0043F460535360404A536823F0F003A16862
:10317C000B435360236813F0010F31D06368012BAC
:10318C0020D0022B25D0384A126812F0020F64D0DE
:10319C0035494A6822F0030213434B60FFF748FDA0
:1031AC000646314B5B6803F00C036268B3EB820F8D
:1031BC0016D0FFF73DFD801B41F288339842F0D9C1
:1031CC00032045E0284A126812F4003FE0D10120A8
:1031DC003EE0254A126812F0007FD9D1012037E079
:1031EC00204B1B6803F00703AB420AD91D4A136836
:1031FC0023F007032B431360136803F00703AB4260
:10320C002DD1236813F0040F06D0174A536823F40A
:10321C00E063E1680B435360236813F0080F07D099
:10322C00114A536823F46053216943EAC103536084
:10323C00FFF736FF0C4B5B68C3F303130B4AD35CED
:10324C00D8400B4B18600B4B1868FFF7ADFC0020F7
:10325C0070BD012070470120FAE70120F8E701203A
:10326C00F6E700BF0020024000100240944F000817
:10327C00840000208000002070B582B004460368F2
:10328C0013F0010F34D03E4BDB6913F0805F47D154
:10329C003B4BDA6942F08052DA61DB6903F0805310
:1032AC000193019B0125374B1B6813F4807F39D0A8
:1032BC00334B1B6A13F4407311D0626802F44072F2
:1032CC009A420CD02E4A136A23F440702E490126E0
:1032DC000E6000260E60106213F0010F36D1284AE2
:1032EC00136A23F4407361680B431362002D3ED1C3
:1032FC00236813F0020F06D0214A536823F440438D
:10330C00A1680B435360236813F0100F34D01C4A90
:10331C00536823F48003E1680B43536000202CE0D6
:10332C000025C0E7174A136843F480731360FFF756
:10333C007FFC0646134B1B6813F4807FB8D1FFF754
:10334C0077FC801B6428F5D9032016E0FFF770FC8E
:10335C0006460B4B1B6A13F0020FC0D1FFF768FC3B
:10336C00801B41F288339842F3D9032005E0D369DE
:10337C0023F08053D361BBE7002002B070BD00BFC7
:10338C00001002400070004040044242F0B482B091
:10339C0000252C46A3E07F4FBB4210D007D97E4FAF
:1033AC00BB420CD007F58037BB4208D013E0A7F521
:1033BC008017BB4203D007F57027BB4207D18B683F
:1033CC00002B58D0012B51D04261082503E0A7F502
:1033DC008017BB42F3D0FF2E4FD88446FF2E4FD818
:1033EC00A200DCF800300F27974023EA070305FA08
:1033FC0002F21343CCF800304B6813F0805F6DD0B1
:10340C00664B9A6942F001029A619B6903F00103D1
:10341C000193019BA208971C614B53F8273004F0D1
:10342C000307BF004FF00F0C0CFA07FC23EA0C0C3F
:10343C005C4B98422AD003F58063984200F08A8056
:10344C0003F58063984200F0878003F5806398420F
:10345C001AD004231BE0CD68BDE7CD680435BAE76C
:10346C00CD680835B7E7CD680C35B4E7026108259F
:10347C00B1E70025AFE70425ADE700F1040CADE79B
:10348C00A4F108029200ACE7032300E00023BB4048
:10349C0043EA0C030232424F47F822304B6813F4D4
:1034AC00803F5BD0404A1368334313604B6813F47E
:1034BC00003F59D03C4A5368334353604B6813F474
:1034CC00801F57D0384A9368334393604B6813F48A
:1034DC00001F55D0344AD3681E43D66001340B68A4
:1034EC0033FA04F252D00122A24003EA020632EA75
:1034FC000303F3D14B68122B3FF64DAF122B3FF663
:10350C006AAF01A757F823F0CB33000863340008E7
:10351C006D3400087F340008E3330008E3330008FF
:10352C00E3330008E3330008E3330008E333000817
:10353C00E3330008E3330008E3330008E333000807
:10354C00E3330008E3330008E33300086734000872
:10355C007334000801239AE7022398E7124A136890
:10356C0023EA06031360A1E70F4A536823EA060314
:10357C005360A3E70C4A936823EA06039360A5E71C
:10358C00094AD36823EA0606D660A7E702B0F0BC66
:10359C00704700BF000022100000311000100240E4
:1035AC0000000140000801400004014083681942FA
:1035BC0001D001207047002070470AB101617047AB
:1035CC000904016170470000074AD36823F4E063E3
:1035DC001B041B0C000200F4E060034343F0BF63C8
:1035EC0043F40033D360704700ED00E030B4174B68
:1035FC00DB68C3F30223C3F10704042C28BF0424A3
:10360C001D1D062D18D9033B4FF0FF3505FA04F4A8
:10361C0021EA0401994005FA03F322EA0303194352
:10362C0000280BDB0901C9B200F1604000F56140D4
:10363C0080F8001330BC70470023E5E700F00F0062
:10364C000901C9B2024B1954F4E700BF00ED00E0C8
:10365C0014ED00E0002807DB00F01F0240090123F5
:10366C009340024A42F82030704700BF00E100E06E
:10367C000138B0F1807F0AD2064B5860064AF0211F
:10368C0082F823100020986007221A6070470120EE
:10369C00704700BF10E000E000ED00E0044B00229A
:1036AC00DA61044A136943F0010313610180704726
:1036BC00780B002000200240194BDB6813F010033C
:1036CC0005D0184AD36943F00203D3611023144A7E
:1036DC00D26812F0040F06D01249CA6942F00102F6
:1036EC00CA6143F004030E4AD26912F0010F09D0EB
:1036FC000C49CA6942F00402CA610949CA6922F03C
:10370C000102CA6140F20112934202D0044AD36012
:10371C007047034AD36923F00103D361704700BF9C
:10372C0000200240780B00200A4B1B6913F0800F1D
:10373C000BD0084B084A5A6002F188325A601B6958
:10374C0013F0800F03D10020704700207047012038
:10375C00704700BF0020024023016745034A1369EC
:10376C0043F0800313610020704700BF002002402B
:10377C0038B50446FFF75CFA0546164BDB6813F0C8
:10378C00010F0AD0B4F1FF3FF7D024B1FFF750FA84
:10379C00401BA042F1D903201BE00E4BDB6813F059
:1037AC00200F02D00B4B2022DA600A4BDB6813F09F
:1037BC00100F0BD1074BDB6913F0010F06D1054B32
:1037CC00DB6813F0040F01D1002002E0FFF774FF57
:1037DC00012038BD002002402DE9F8431E46234B42
:1037EC001B7E012B40D004460F4690461F4B0122F6
:1037FC001A764CF25030FFF7BBFF034670BB012C1E
:10380C0029D0022C24D04FF004091C464C4525D25B
:10381C002101C1F12002A1F1200328FA01F106FADD
:10382C0002F2114326FA03F3194389B207EB440061
:10383C00FFF734FF4CF25030FFF79AFF0C4B1D6929
:10384C0025F001051D61034640B90134E4B2DDE702
:10385C004FF00209D9E74FF00109D6E7034A0021DE
:10386C0011761846BDE8F8830223FAE7780B00209E
:10387C0000200240064B0022DA61064B1A6942F026
:10388C0004021A611A6942F040021A61704700BFC3
:10389C00780B002000200240064B0022DA61064B18
:1038AC001A6942F002021A6158611A6942F0400228
:1038BC001A617047780B002000200240264B1B7EBB
:1038CC00012B46D070B505460E46234B01221A76C5
:1038DC000368022B20D04CF25030FFF749FF90BB0D
:1038EC004FF0FF333360AC680121EA68AB6803EB3F
:1038FC008223A34228D92046FFF7CEFF4CF250304A
:10390C00FFF736FF154A136923F0020313610146D2
:10391C00B8B904F58064E8E74CF25030FFF728FFA3
:10392C0008B1012110E00120FFF7A4FF4CF2503048
:10393C00FFF71EFF0146094A136923F004031361C4
:10394C0002E0346000E00121034B00221A760846A5
:10395C0070BD022108467047780B00200020024001
:10396C00704798B108B50346D0F8B40210B10020E6
:10397C00C3F8B40209B1C3F8B012012183F89C1248
:10398C001A701846FCF7CAFE002008BD02207047CA
:10399C0019B1C0F8B412002070470220704708B566
:1039AC00FCF7F6FE002008BD08B5D0F8B4322BB1F8
:1039BC001B68984700B908BD0220FCE70220FAE713
:1039CC0008B5D0F8B4325B689847002008BD38B50C
:1039DC00044600F52A75284600F034F90123C4F892
:1039EC009432B4F8AE32C4F8983294F8A81201F0BC
:1039FC001F03012B0ED0022B11D02BB101F0800133
:103A0C002046FCF7E8FE03E02946204600F0C8FA01
:103A1C00002038BD2946204600F0F6FAF8E7294682
:103A2C00204600F021FBF3E738B504460D4691BB68
:103A3C001346D0F89422032A03D0052A24D0084632
:103A4C0033E0D0F86011D0F8642191420DD9891A75
:103A5C00C0F860118A4206D98AB21946204600F095
:103A6C0025FC284621E092B2F7E7D0F8B4321B6966
:103A7C001BB190F89C22032A04D0204600F01EFCB7
:103A8C00284612E09847F8E70021C0F89412FCF79A
:103A9C00A2FE284609E0D0F8B4329B6933B190F805
:103AAC009C22032A04D19847002038BD0220FCE751
:103ABC000220FAE738B504460D46002953D11346C7
:103ACC00D0F89422022A0CD0042A00D01AB98021F2
:103ADC002046FCF780FE94F8A032012B3ED02846FD
:103AEC0038BD016A426A91421BD8C169B1FBF2F33D
:103AFC0002FB13132BB98A4203D8D0F8983299429F
:103B0C001CD3D4F8B432DB681BB194F89C22032A82
:103B1C0021D080212046FCF75EFE204600F0D9FB28
:103B2C00D9E78A1A026292B2194600F0B7FB002359
:103B3C001A4619462046FCF785FECCE700221146B2
:103B4C0000F0ACFB0021C4F898120B460A46204644
:103B5C00FCF778FEBFE720469847DAE7002384F8A5
:103B6C00A0322846BCE7D0F8B4325B6933B190F888
:103B7C009C22032A04D198470020B1E70220AFE72A
:103B8C000220ADE770B50446402300221146FCF735
:103B9C0007FE0125C4F858514026C4F86461334629
:103BAC00002280212046FCF7FBFDA561666284F8AB
:103BBC009C520023C4F894326360C4F8A432D4F845
:103BCC00B8322BB1D4F8B4325B6800212046984748
:103BDC00002070BD01740020704790F89C3280F872
:103BEC009D32042380F89C320020704790F89C3260
:103BFC00042B01D00020704790F89D3280F89C3245
:103C0C00F8E708B590F89C32032B01D0002008BDD2
:103C1C00D0F8B432DB69002BF8D09847F6E70346AE
:103C2C0000201A781AB10130C0B20133F9E770479D
:103C3C0008B54B88012B00D008BDC0F8A43200F0A9
:103C4C003DFBF9E70B7803704B7843708B78CA789F
:103C5C0003EB022343800B794A7903EB0223838025
:103C6C008B79CA7903EB0223C380704710B50446E5
:103C7C008021FCF7B0FD00212046FCF7ACFD10BD07
:103C8C0030B583B005460C460023ADF806304A88A3
:103C9C00130A013B062B00F2A480DFE803F00418A2
:103CAC002CA2A2869300D0F8B0321B680DF106014D
:103CBC00007C9847BDF806201AB1E388002B40F031
:103CCC009480E388002B00F09A8003B030BD037C15
:103CDC0043B9D0F8B4329B6A0DF106009847022321
:103CEC004370E7E7D0F8B432DB6A0DF10600984771
:103CFC0002234370DEE7D2B2052A52D8DFE802F085
:103D0C0003101D2A3744D0F8B0325B6823B10DF193
:103D1C000601007C9847CDE72146FFF7A7FFD4E7C3
:103D2C00D0F8B0329B6823B10DF10601007C9847A6
:103D3C00C0E72146FFF79AFFC7E7D0F8B032DB683F
:103D4C0023B10DF10601007C9847B3E72146FFF73C
:103D5C008DFFBAE7D0F8B0321B6923B10DF1060123
:103D6C00007C9847A6E72146FFF780FFADE7D0F827
:103D7C00B0325B6923B10DF10601007C984799E7DD
:103D8C002146FFF773FFA0E7D0F8B0329B6923B14F
:103D9C000DF10601007C98478CE72146FFF766FF82
:103DAC0093E72146FFF762FF8FE7037C33B9D0F826
:103DBC00B4325B6B0DF1060098477BE72146FFF7A9
:103DCC0055FF82E7037C43B9D0F8B4321B6B0DF17D
:103DDC0006009847072343706CE72146FFF746FF20
:103DEC0073E72146FFF742FF6FE79A4228BF1A4656
:103DFC00ADF806200146284600F043FA61E7284654
:103E0C0000F05CFA61E738B504468B88F3B9CB88CF
:103E1C00E3B94B887F2B19D803F07F0590F89C32BF
:103E2C00032B0CD080F89E522946FCF7FBFC204655
:103E3C0000F044FA35B1022384F89C3209E0FFF714
:103E4C0015FF06E0012384F89C3202E02046FFF7C0
:103E5C000DFF38BD38B504460D468978284B1970CE
:103E6C0001290ED890F89C32022B0ED0032B21D0B6
:103E7C002946FFF7FBFE224B19782046FFF7A0FDE1
:103E8C0002E02946FFF7F2FE38BD81B14160032301
:103E9C0080F89C32FFF788FD022803D0204600F002
:103EAC000DFAF1E729462046FFF7E0FEECE700F0BB
:103EBC0005FAE9E789B1436899421DD0D9B2FFF7F9
:103ECC007FFD0F4B197861602046FFF76DFD0228CE
:103EDC000DD0204600F0F2F9D6E7022380F89C3290
:103EEC004160FFF76DFD204600F0E8F9CCE729466C
:103EFC002046FFF7BBFEC7E700F0E0F9C4E700BFC0
:103F0C00BC03002008B5CB88012B0AD190F89C3259
:103F1C00022B09D9032B09D10122011D00F0B1F9A3
:103F2C0001E0FFF7A3FE08BD5BB213B9FFF79EFEDD
:103F3C00F9E70146002341F8083F012200F0A1F9FE
:103F4C00F1E708B590F89C32013B022B12D8CB88D4
:103F5C00022B0CD10123C360D0F8A4320BB1032384
:103F6C00C360022200F10C0100F08BF908BDFFF7D1
:103F7C007DFEFBE7FFF77AFEF8E708B590F89C3278
:103F8C00013B022B09D84B88012B00D008BD002324
:103F9C00C0F8A43200F092F9F8E7FFF767FEF5E7F6
:103FAC0008B50B7803F06003202B05D0402B03D011
:103FBC0043B1FFF75BFE03E0D0F8B4329B6898473F
:103FCC00002008BD4B78092B1BD8DFE803F0111734
:103FDC001A141A08051A0E0BFFF752FEF0E7FFF73A
:103FEC0012FFEDE7FFF736FFEAE7FFF78BFFE7E796
:103FFC00FFF7A7FFE4E7FFF71BFEE1E7FFF7BDFFC5
:10400C00DEE7FFF733FEDBE738B505460C460B78E9
:10401C0003F06003202B06D0402B04D01BB1FFF71C
:10402C0025FE002038BD95F89C32013B022B16D89A
:10403C002379012B0ED8D5F8B4329B68214628463B
:10404C009847E388002BECD10028EAD1284600F0F1
:10405C0035F9E6E721462846FFF708FEE1E7214659
:10406C002846FFF703FEDCE770B505468B880C7815
:10407C0004F06004202C07D0DAB2402C04D05CB1E0
:10408C00FFF7F4FD002405E0D5F8B4329B68284610
:10409C0098470024204670BD202C09D04E78012E64
:1040AC0033D0032E0AD0002E55D0FFF7DFFDF1E7F9
:1040BC00D0F8B4329B6898470446EBE790F89C32F2
:1040CC00022B04D0032B11D0FFF7D0FDE2E70AB18D
:1040DC00802A03D12846FFF7C9FDDBE71146FCF720
:1040EC007AFB80212846FCF776FBD3E74B8823B973
:1040FC001AB1802A01D0CB881BB1284600F0DEF81B
:10410C00C8E71146FCF767FBF7E790F89C32022BE7
:10411C0004D0032B11D0FFF7A9FDBBE70AB1802A0D
:10412C0003D12846FFF7A2FDB4E71146FCF753FB79
:10413C0080212846FCF74FFBACE74B88002BA9D11C
:10414C0012F07F0F03D1284600F0B8F8A2E7114611
:10415C00FCF749FBF7E790F89C02022806D00328ED
:10416C0029D02846FFF782FD344693E70AB1802A0E
:10417C0013D113F0800F15D102F07F0202EB8202F3
:10418C00910001F5A8712944043100230B6002222F
:10419C00284600F076F834467CE72846FFF766FDA3
:1041AC00344677E702F07F0202EB82029100103175
:1041BC0029440431E9E75BB2002B1FDB02F00F004E
:1041CC0000EB800005EB8000D0F8580120B3002BE9
:1041DC0027DB02F07F0303EB83039C0004F5A87438
:1041EC002C4404340AB1802A24D1002323600222F7
:1041FC002146284600F045F834464BE702F00F0004
:10420C0000EB800005EB800080690028DFD1284698
:10421C00FFF72CFD34463DE72846FFF727FD3446D3
:10422C0038E702F07F0303EB83039C0010342C442B
:10423C000434D7E711462846FCF7DDFA10B1012308
:10424C002360D4E700232360D1E7C8B170B50D46D5
:10425C0016460446FFF7E3FC01304000308028701E
:10426C0003236B70022307E001345A1CD2B2E854CA
:10427C000233DBB20021A95420780028F4D170BDA0
:10428C00704710B513460222C0F89422C361036232
:10429C000A460021FCF7CEFA002010BD08B51346E3
:1042AC000A460021FCF7C6FA002008BD08B51346E3
:1042BC000A460021FCF7C6FA002008BD08B5042305
:1042CC00C0F8943200231A461946FCF7B3FA0020C2
:1042DC0008BD08B50523C0F8943200231A461946C8
:1042EC00FCF7B0FA002008BD20230380004870477B
:1042FC00E00000202023038000487047C00000200D
:10430C0020230380004870470C0100200A230380FF
:10431C00004870470001002038B50446037CE3B91F
:10432C004FF4007302220121FCF73AFA0125C4F87C
:10433C006C514FF40073022281212046FCF730FAB5
:10434C00E5624FF41B70FCF78BFAC4F8B802A0B10D
:10435C00204600F041F9002038BD40230222012103
:10436C00FCF71EFA0125C4F86C514023022281216E
:10437C002046FCF715FAE562E3E70220ECE738B5D6
:10438C0004460121FCF717FA0025C4F86C51812171
:10439C002046FCF710FAE562204600F049F9D4F803
:1043AC00B80218B1FCF760FAC4F8B852002038BD56
:1043BC002DE9F04182B006460C46D0F8B8720023C5
:1043CC00ADF806300B7813F0600536D0202D40F098
:1043DC00B4804A78FE2A05D0FF2A1DD0FFF746FC90
:1043EC000225ADE04A8812B9CA88012A05D02146B7
:1043FC003046FFF73BFC0225A2E013F0800FF6D00D
:10440C00D0F8BC329B699847386001223946304657
:10441C00FFF737FF002593E04A8842B9CA8832B9C2
:10442C0013F0800F03D100F0F6F8002588E0214648
:10443C003046FFF71BFC022582E091F80180B8F1B1
:10444C000B0F76D8DFE808F0062D75757575757548
:10445C007575152290F89C32032B03D0FFF706FCE0
:10446C0002256DE002220DF10601FFF70AFF454619
:10447C0066E090F89C32032B03D0FFF7F7FB022584
:10448C005EE00122391DFFF7FCFE59E090F89C32EA
:10449C00032B02D18B787B6052E0FFF7E7FB022500
:1044AC004EE00979FCF78FF921793046FCF783F956
:1044BC00A38894F90420002A19DB03F00F0303EB03
:1044CC00830306EB83030022C3F85821337C4BBBD8
:1044DC004FF40073022201213046FCF761F90123ED
:1044EC00C6F86C312179304600F04FF928E003F022
:1044FC000F0303EB830306EB830300229A61337CE7
:10450C004BB94FF40073022281213046FCF748F975
:10451C000123F362E6E74023022281213046FCF7B7
:10452C003FF9F5E74023022201213046FCF738F928
:10453C00D5E7FFF79BFB022502E0FFF797FB02256F
:10454C00284602B0BDE8F08108B500F093F80020D1
:10455C0008BD08B500F000F9002008BD09B1C0F88D
:10456C00BC120020704770B51346D0F8B822D2F8B0
:10457C0014521E469D4200D2ABB2D2F83442A41B58
:10458C00C2F83442002482F83842042414720A46D9
:10459C008121FCF74FF970BD38B50446D0F8B852FC
:1045AC0095F8183223B9D5F814320BB16B7A3BB1AC
:1045BC0081212046FCF70FF96B7A022B04D038BD11
:1045CC000121FCF708F9F3E71F2305F5037201211C
:1045DC002046FCF737F9F2E738B50446D0F8B85264
:1045EC0000202872687285F85D0285F85C02D4F8A8
:1045FC00BC321B68984701212046FCF7E4F8812166
:10460C002046FCF7E0F81F2305F503720121204634
:10461C00FCF718F938BD08B5D0F8B822002313728E
:10462C00012151721F2302F50372FCF70BF908BD2F
:10463C00D0F8B83200221A727047000038B505461F
:10464C00D0F8B8420A4BC4F82C3284F83812002344
:10465C0023720D2304F50B728121FCF7EBF81F2359
:10466C0004F5037201212846FCF7ECF838BD00BFB5
:10467C005553425310B50446D0F8B8120B7A022B9E
:10468C0008D006D3033BDBB2012B02D80021FFF785
:10469C00D5FF10BD01F21B2291F8191200F05EFB40
:1046AC000028F6DA01212046FFF7C8FFF1E70000E9
:1046BC0038B50546D0F8B842D4F81032C4F83032C8
:1046CC00D4F81432C4F834320121FCF7C3F81F2893
:1046DC0004D1D4F80C221F4B9A420CD02023052273
:1046EC0094F81912284600F0EFF80223637228465A
:1046FC00FFF752FF38BD94F819120129EED894F83F
:10470C001A32002BEAD0102BE8D804F21B222846D0
:10471C0000F024FB00280CDB237A013BDBB2022BDC
:10472C00E8D962898AB104F10C012846FFF71BFF16
:10473C00E0E7237A052B03D02846FFF72DFFD9E7B6
:10474C0001212846FFF77AFFD4E700212846FFF71E
:10475C0075FFCFE75553424310B50446D0F8B81255
:10476C000B7A13B1012B03D010BDFFF7A1FFFBE7B0
:10477C0001F21B2291F8191200F0F0FA0028F3DA7A
:10478C0001212046FFF75AFFEEE710B5D0F8B842EA
:10479C00637A022B08D011F0800F04D0012B02D0C9
:1047AC000121FFF74BFF10BD8121FCF714F800230A
:1047BC006372F8E710B4D0F8B842537813F0010FD5
:1047CC000DD00723638105E0013B9BB20F4AD15CFE
:1047DC00E2181173002BF7D1002010BC7047D0F8F1
:1047EC00BC32D86901EBC10100EB810001790531C4
:1047FC0013798B4200D90B466381002BECD0013B23
:10480C009BB2C15CE2181173F7E700BFB44F00080C
:10481C00D0F8B8020823438105E0013B9BB2044A5F
:10482C00D15CC2181173002BF7D10020704700BF68
:10483C00AC4F0008D0F8B8020823438105E0013BD7
:10484C009BB2044AD15CC2181173002BF7D1002023
:10485C00704700BFA44F000810B4D0F8B842002332
:10486C00112B05D8E118002008730133DBB2F7E7F0
:10487C00702323730C23E37494F85C3294F85D1268
:10488C008B420FD003F1470104EBC1010879A073EF
:10489C00487A2076097A61760133DBB284F85C328F
:1048AC00042B08D0122363811379122B00D8638157
:1048BC00002010BC7047002384F85C32F2E7D0F87B
:1048CC00B832002058817047D0F8B80290F85D32A9
:1048DC0003F1470100EBC1010A7100220A72013396
:1048EC00DBB280F85D32042B00D0704780F85D227B
:1048FC00FBE770B50446D0F8B862D6F814324BB961
:10490C000D46D0F8BC329B680846984758B900232E
:10491C00738170BD2023052296F81912FFF7D4FF7E
:10492C004FF0FF30F5E73A23022229462046FFF7E5
:10493C00CBFF052333724FF0FF30EAE7F0B583B0BD
:10494C0006460F46D0F8B85200230B2B05D8EA18B0
:10495C000024147301339BB2F7E7D6F8BC325B68C2
:10496C000DF10602694638469847D0B90823EB7317
:10497C00009A531E190E2974C3F307416974C3F3CB
:10498C000723AB74013AEA7402232B75BDF8063089
:10499C0000226A751A0AAA75EB750C236B8103B099
:1049AC00F0BD3A23022239463046FFF78DFF4FF017
:1049BC00FF30F4E770B505460E46D0F8B842D0F893
:1049CC00BC325B6804F25E2204F5187130469847DD
:1049DC00B8B9D4F86022531E190E2173C3F30741E2
:1049EC006173C3F30723A373013AE273B4F85E3225
:1049FC000022227462741A0AA274E374082363817D
:104A0C0070BD3A23022231462846FFF75DFF4FF076
:104A1C00FF30F5E710B5D0F8B8421A44D4F860323C
:104A2C009A4201D8002010BD21230522FFF74CFF2C
:104A3C004FF0FF30F7E72DE9F84306460F46D0F864
:104A4C00B842D4F86852B4F85E3203FB05F5B5F5FC
:104A5C00007F28BF4FF40075D0F8BC22D2F810901C
:104A6C0004F10C08B5FBF3F39BB2D4F86422414675
:104A7C003846C84700281DDBABB242468121304680
:104A8C00FBF7D8FEB4F85E32B5FBF3F2D4F864321F
:104A9C001344C4F86432D4F868329B1AC4F86832F0
:104AAC00D4F83422551BC4F8345263B9032323724F
:104ABC00002009E01123042239463046FFF704FF99
:104ACC004FF0FF3000E00020BDE8F883F8B5064653
:104ADC000F46D0F8B842237A73BB154694F91832B6
:104AEC00002B31DAD0F8BC329B6808469847A0BB43
:104AFC00AA78EB781B0443EA02632A7943EA02237F
:104B0C006A791A43C4F86422E9792B7A43EA0123BF
:104B1C00C4F8683239463046FFF77CFF00282FDB9B
:104B2C0002232372D4F81422D4F86812B4F85E323B
:104B3C0003FB01F39A4219D14FF400736381394698
:104B4C003046FFF778FFF8BD2023052294F81912A0
:104B5C00FFF7BAFE4FF0FF30F5E73A230222394651
:104B6C003046FFF7B1FE4FF0FF30ECE72023052273
:104B7C0094F819123046FFF7A7FE4FF0FF30E2E72A
:104B8C004FF0FF30DFE72DE9F84306468846D0F8B2
:104B9C00B842D4F86852B4F85E3203FB05F5B5F5AB
:104BAC00007F28BF4FF40075D0F8BC22D2F81490C7
:104BBC0004F10C07B5FBF3F39BB2D4F8642239462D
:104BCC004046C84700281ADBB4F85E02B5FBF0F18A
:104BDC00D4F864220A44C4F86422D4F868325B1A0C
:104BEC00C4F86832D4F83422551BC4F834527BB95B
:104BFC0000213046FFF722FD0020BDE8F883032397
:104C0C00042241463046FFF75FFE4FF0FF30F4E7D9
:104C1C0003FB00F3B3F5007F28BF4FF400739BB286
:104C2C003A4601213046FBF70DFE0020E5E72DE961
:104C3C00F04106460F46D0F8B842237A002B6AD1D1
:104C4C00154694F91832002B40DBD0F8BC329B6827
:104C5C0008469847002842D1D6F8BC32DB68384663
:104C6C0098478046002843D1AA78EB781B0443EA86
:104C7C0002632A7943EA02236A791A43C4F864224C
:104C8C00E9792B7A43EA0123C4F868323946304675
:104C9C00FFF7C0FE002842DBD4F86822B4F85E327D
:104CAC0003FB02F3D4F814229A422AD1B3F5007F05
:104CBC0028BF4FF40073012121729BB204F10C0246
:104CCC003046FBF7BFFD4046BDE8F08120230522AE
:104CDC0094F81912FFF7F8FD4FF0FF38F3E73A2379
:104CEC00022239463046FFF7EFFD4FF0FF38EAE776
:104CFC002723022239463046FFF7E6FD4FF0FF38F6
:104D0C00E1E72023052294F819123046FFF7DCFD69
:104D1C004FF0FF38D7E7FFF736FF8046D3E74FF069
:104D2C00FF38D0E710B5D0F8B842537813F0020F23
:104D3C000AD1D4F86832D4F86422FFF76BFE00284D
:104D4C0009DB0020608110BD24230522FFF7BCFD88
:104D5C004FF0FF30F7E74FF0FF30F4E708B513786A
:104D6C005A2B5FD8DFE803F02E5E5E325E5E5E5E2D
:104D7C005E5E5E5E5E5E5E5E5E5E365E5E5E5E5E6F
:104D8C005E5E423A5E5E3E5E5E5E5E4A5E4E5E5EBB
:104D9C00525E565E5E5E5E5A5E5E5E5E5E5E5E5E3F
:104DAC005E5E5E5E5E5E5E5E5E5E5E5E5E5E5E5E17
:104DBC005E5E5E5E5E5E5E5E5E5E5E5E5E5E5E5E07
:104DCC005E5E4600FFF795FD002008BDFFF744FD31
:104DDC000020FAE7FFF7EEFC0020F6E7FFF76FFD87
:104DEC000020F2E7FFF76BFD0020EEE7FFF710FD68
:104DFC000020EAE7FFF71EFD0020E6E7FFF79EFD27
:104E0C000020E2E7FFF7D6FD0020DEE7FFF75EFEAD
:104E1C000020DAE7FFF70BFF0020D6E7FFF782FF51
:104E2C000020D2E720230522FFF74EFD4FF0FF3084
:104E3C00CBE70000002103E00B4B5B5843500431DF
:104E4C000A480B4B42189A42F6D30A4A02E0002356
:104E5C0042F8043B084B9A42F9D3FEF781FDFBF76D
:104E6C0093F9FBF775FB7047C44F00080000002056
:104E7C002C01002030010020980B0020FEE70000E0
:104E8C00F8B500BFF8BC08BC9E467047F8B500BF2B
:084E9C00F8BC08BC9E467047FB
:104EA400EBFE904D53444F53352E300002017C11DC
:104EB4000200000000F800003F00FF003F00000077
:104EC400C1C003004207000000000000020000000F
:104ED40001000600000000000000000000000000C7
:104EE400800029B04990024E4F204E414D4520206C
:104EF40020204641543332202020000053544D33A7
:104F040032204D6173732053746F726167650000C2
:104F140053544D6963726F656C656374726F6E6927
:104F2400637300004D534320436F6E66696700004E
:104F34004D534320496E74657266616365000000D9
:104F4400594142204469736B20202000463130339C
:104F54005F41505042494E00008002021F00000091
:104F640053544D202020202050726F6475637420A8
:104F74002020202020202020302E30310203040560
:104F8400060708090A0B0C0D0E0F10100000000094
:104F940000000000000000000102030406070809E5
:104FA40000060000000000000000000000000000F7
:084FB4000000000300808300EF
:044FBC007501000873
:044FC0004D01000897
:104FC400FA0000007908000885080008350900087F
:104FD40011090008FD0800085109000875090008B6
:104FE4001201000200000040830423570002010262
:104FF40003010000040309041A0300000000000078
:10500400000000000000000000000000000000009C
:10501400000000000006400000C64300C50D000863
:10502400C90D0008D90D0008DD0D0008670E000841
:10503400170E0008E10D00085C4F00080100000095
:10504400100000000024F400254300088B430008EE
:10505400BD430008000000000000000055450008A2
:105064005F45000800000000000000000000000090
:10507400F5420008014300080D43000819430008E5
:1050840009022000010104C03209040000020806DC
:105094005005070581024000000705010240000099
:1050A40009022000010104C03209040000020806BC
:1050B40050050705810200020007050102000200F5
:1050C4000A06000200000040010000000907200059
:1050D400010104C032090400000208065005070556
:0C50E400810240000007050102400000AE
:0400000508004E4160
:00000001FF
