:020000040800F2
:1000000000500020054D00082D7F0008317F0008BA
:10001000357F0008397F00083D7F000800000000A0
:10002000000000000000000000000000417F000808
:10003000457F000800000000497F00084D7F000850
:10004000514D0008514D0008514D0008514D000818
:10005000514D0008514D0008514D0008514D000808
:10006000514D0008514D0008514D0008ED49000860
:10007000514D0008514D0008514D0008514D0008E8
:10008000514D0008514D000851490008514D0008DC
:10009000514D0008514D0008514D0008514D0008C8
:1000A000514D0008514D0008514D0008F14700081E
:1000B000514D0008514D0008514D0008514D0008A8
:1000C000514D0008514D0008514D0008514D000898
:1000D000514D0008514D0008514D0008514D000888
:1000E000514D0008514D0008514D0008000000001E
:1000F0000000000000000000000000000000000000
:0C01000000000000000000005FF808F1A3
:10011000830770B5064614D10368A3F1013222EAC1
:10012000030313F0803F0CD1031D1A4653F8044B10
:10013000A4F1013525EA040414F0803FF5D01046FF
:1001400000E0304603782BB1431C18460133047895
:10015000002CFAD100F002F8304670BD80EA0102AE
:10016000844612F0030F4FD111F0030F32D14DF836
:10017000044D11F0040F51F8043B0BD0A3F10132F0
:100180009A4312F0803F04BF4CF8043B51F8043B03
:1001900016D100BF51F8044BA3F101329A4312F07B
:1001A000803FA4F101320BD14CF8043BA24312F082
:1001B000803F04BF51F8043B4CF8044BEAD023467F
:1001C0000CF8013B13F0FF0F4FEA3323F8D15DF831
:1001D000044B704711F0010F06D011F8012B0CF8F9
:1001E000012B002A08BF704711F0020FBFD031F871
:1001F000022B12F0FF0F16BF2CF8022B8CF80020F8
:1002000012F47F4FB3D1704711F8012B0CF8012B7A
:10021000002AF9D1704700BF20F0030110F003005D
:10022000C0F1000051F8043B00F1040C4FEACC0C83
:100230006FF000021CBF22FA0CF213434FF0010CC6
:100240004CEA0C2C4CEA0C4CA3EB0C0222EA030205
:1002500012EACC1204BF51F8043B0430F4D013F07E
:10026000FF0F1FBF013013F47F4F013013F47F0FD6
:1002700018BF0130704700BF2DE9F0478AB004462F
:100280000D4600F04FF840F2000AC2F2000A9AF957
:100290000030013306460F460FD02046294600F0B5
:1002A00007F950B14FF000084FF0000920462946E9
:1002B00042464B4600F056FD20B9304639460AB05A
:1002C000BDE8F0879AF800604BF2B453C0F6000323
:1002D0000122CDE904458DE80C000023CDE902455B
:1002E000089356B9CDE90689684600F009F970B15E
:1002F000089B8BB9DDE90667DFE740464946424681
:100300004B4600F0E7FB022ECDE90601ECD100F0F0
:10031000F9F821230360EBE700F0F4F8089B036091
:10032000E8E700BF2DE9F8430027B946C7F6F077A4
:10033000C7F6F0790F404F4504460D4602460B467E
:100340000E46804600F09980002977DD0F1500F0F9
:10035000828026F07F43A7F2FF3723F47003FA0769
:1003600043F4801344BF4FEAD8724FEA48084FF075
:10037000000C48BF02EB430360464FEAD8727F107F
:1003800002EB430316244FEA48024FF400114518CC
:10039000D60F9D424FEA4202DEBFC5EB0303681849
:1003A0008C444908013C06EB4303F0D12026A046CB
:1003B0004FF000410EE081461B1A954288BF013B79
:1003C000521B64184846D50F49085200013E05EB00
:1003D000430315D0984201EB080503DB954298BF13
:1003E0008342F0D105F0004905EB0108B9F1004F57
:1003F000E1D1B8F1000FA8BF00F10109DCDADAE7BA
:10040000134312D166084FEA6C031CF0010F03F18D
:100410007F5318BF46F0004603F50013344603EB44
:10042000075520462946BDE8F883631C08BF0CF138
:10043000010CE8D004F001031C19E3E721F00046A9
:100440000643EED041BB0F464FEAD826153F4FEA90
:100450004858002EF8D016F4801319D176000133D5
:10046000F102FBD5C3F10101C3F1200228FA02F227
:100470007F18164308FA03F86BE700F001FA02460A
:100480000B462046294600F049F804460D46C8E7C9
:10049000202201210023E9E702460B4600F03CF848
:1004A00002460B4600F016FB04460D46B9E700BFB6
:1004B00050EA010201D102207047D0F1010238BF99
:1004C0000022B1F1004F08BF0028F4D021F0004312
:1004D0004FF6FF71A3F58010C7F6DF71884201D88F
:1004E00004207047B3F5801F01D20320704700201D
:1004F000C7F6F070834214BF002002F0010070477D
:100500000020704740F20403C2F2000318687047ED
:1005100081F0004102E000BF83F0004330B54FEAB4
:1005200041044FEA430594EA050F08BF90EA020F21
:100530001FBF54EA000C55EA020C7FEA645C7FEAB4
:10054000655C00F0E2804FEA5454D4EB5555B8BFD7
:100550006D420CDD2C4480EA020281EA030382EA48
:10056000000083EA010180EA020281EA0303362DDA
:1005700088BF30BD11F0004F4FEA01314FF4801CAD
:100580004CEA113102D0404261EB410113F0004FBF
:100590004FEA03334CEA133302D0524263EB430376
:1005A00094EA050F00F0A780A4F10104D5F1200E14
:1005B0000DDB02FA0EFC22FA05F2801841F100016F
:1005C00003FA0EF2801843FA05F359410EE0A5F143
:1005D00020050EF1200E012A03FA0EFC28BF4CF074
:1005E000020C43FA05F3C01851EBE37101F000452A
:1005F00007D54FF0000EDCF1000C7EEB00006EEB37
:100600000101B1F5801F1BD3B1F5001F0CD34908C0
:100610005FEA30004FEA3C0C04F101044FEA445217
:1006200012F5800F80F09A80BCF1004F08BF5FEA9E
:10063000500C50F1000041EB045141EA050130BD7E
:100640005FEA4C0C404141EB010111F4801FA4F121
:100650000104E9D191F0000F04BF01460020B1FA76
:1006600081F308BF2033A3F10B03B3F120020CDAAE
:100670000C3208DD02F1140CC2F10C0201FA0CF08C
:1006800021FA02F10CE002F11402D8BFC2F1200CF1
:1006900001FA02F120FA0CFCDCBF41EA0C019040A7
:1006A000E41AA2BF01EB0451294330BD6FEA0404F0
:1006B0001F3C1CDA0C340EDC04F11404C4F12002DB
:1006C00020FA04F001FA02F340EA030021FA04F3ED
:1006D00045EA030130BDC4F10C04C4F1200220FA44
:1006E00002F001FA04F340EA0300294630BD21FA82
:1006F00004F0294630BD94F0000F83F4801306BF48
:1007000081F480110134013D4EE77FEA645C18BF3B
:100710007FEA655C29D094EA050F08BF90EA020FD2
:1007200005D054EA000C04BF1946104630BD91EACA
:10073000030F1EBF0021002030BD5FEA545C05D1CD
:100740004000494128BF41F0004130BD14F580040C
:100750003CBF01F5801130BD01F0004545F0FE4180
:1007600041F470014FF0000030BD7FEA645C1ABFB5
:10077000194610467FEA655C1CBF0B46024650EAEC
:10078000013406BF52EA033591EA030F41F4002118
:1007900030BD00BF90F0000F04BF0021704730B59E
:1007A0004FF4806404F132044FF000054FF0000173
:1007B00050E700BF90F0000F04BF0021704730B534
:1007C0004FF4806404F1320410F0004548BF404209
:1007D0004FF000013EE700BF42004FEAE2014FEA5E
:1007E00031014FEA02701FBF12F07F4393F07F4F39
:1007F00081F06051704792F0000F14BF93F07F4F6B
:10080000704730B54FF4607401F0004521F00041AD
:1008100020E700BF50EA010208BF704730B54FF033
:1008200000050AE050EA010208BF704730B511F038
:10083000004502D5404261EB41014FF4806404F170
:1008400032045FEA915C3FF4DCAE4FF003025FEAF2
:10085000DC0C18BF03325FEADC0C18BF033202EB7A
:10086000DC02C2F1200300FA03FC20FA02F001FAD4
:1008700003FE40EA0E0021FA02F11444C1E600BF73
:1008800070B54FF0FF0C4CF4E06C1CEA11541DBF26
:100890001CEA135594EA0C0F95EA0C0F00F0DEF8F1
:1008A0002C4481EA030621EA4C5123EA4C5350EAD6
:1008B000013518BF52EA033541F4801143F4801327
:1008C00038D0A0FB02CE4FF00005E1FB02E506F0B8
:1008D0000042E0FB03E54FF00006E1FB03569CF00D
:1008E000000F18BF4EF0010EA4F1FF04B6F5007F13
:1008F00064F5407404D25FEA4E0E6D4146EB060685
:1009000042EAC62141EA55514FEAC52040EA5E500D
:100910004FEACE2EB4F1FD0C88BFBCF5E06F1ED8B7
:10092000BEF1004F08BF5FEA500E50F1000041EBEE
:10093000045170BD06F0004646EA010140EA02009B
:1009400081EA0301B4EB5C04C2BFD4EB0C0541EABD
:10095000045170BD41F480114FF0000E013C00F3D2
:10096000AB8014F1360FDEBF002001F0004170BDF6
:10097000C4F10004203C35DA0C341BDC04F114040F
:10098000C4F1200500FA05F320FA04F001FA05F29B
:1009900040EA020001F0004221F0004110EBD37068
:1009A00021FA04F642EB06015EEA430E08BF20EA94
:1009B000D37070BDC4F10C04C4F1200500FA04F337
:1009C00020FA05F001FA04F240EA020001F00041C9
:1009D00010EBD37041F100015EEA430E08BF20EA3C
:1009E000D37070BDC4F1200500FA05F24EEA020E84
:1009F00020FA04F301FA05F243EA020321FA04F0B3
:100A000001F0004121FA04F220EA020000EBD37069
:100A10005EEA430E08BF20EAD37070BD94F0000F69
:100A20000FD101F00046400041EB010111F4801F9D
:100A300008BF013CF7D041EA060195F0000F18BF4E
:100A4000704703F00046520043EB030313F4801F8A
:100A500008BF013DF7D043EA0603704794EA0C0F44
:100A60000CEA135518BF95EA0C0F0CD050EA41065A
:100A700018BF52EA4306D1D181EA030101F00041D7
:100A80004FF0000070BD50EA410606BF10461946FF
:100A900052EA430619D094EA0C0F02D150EA01360B
:100AA00013D195EA0C0F05D152EA03361CBF10464C
:100AB00019460AD181EA030101F0004141F0FE41EB
:100AC00041F470014FF0000070BD41F0FE4141F46F
:100AD000780170BD70B54FF0FF0C4CF4E06C1CEA6F
:100AE00011541DBF1CEA135594EA0C0F95EA0C0F24
:100AF00000F0A7F8A4EB050481EA030E52EA0335DF
:100B00004FEA013100F088804FEA03334FF08055FF
:100B100045EA131343EA12634FEA022245EA11152C
:100B200045EA10654FEA00260EF000419D4208BFDD
:100B3000964244F1FD0404F5407402D25B084FEA8A
:100B40003202B61A65EB03055B084FEA32024FF436
:100B500080104FF4002CB6EB020E75EB030E22BF93
:100B6000B61A754640EA0C005B084FEA3202B6EB53
:100B7000020E75EB030E22BFB61A754640EA5C0002
:100B80005B084FEA3202B6EB020E75EB030E22BF92
:100B9000B61A754640EA9C005B084FEA3202B6EB93
:100BA000020E75EB030E22BFB61A754640EADC0052
:100BB00055EA060E18D04FEA051545EA16754FEAB4
:100BC00006164FEAC30343EA52734FEAC2025FEAD2
:100BD0001C1CC0D111F4801F0BD141EA00014FF061
:100BE00000004FF0004CB6E711F4801F04BF014332
:100BF0000020B4F1FD0C88BFBCF5E06F3FF6AFAE4E
:100C0000B5EB030C04BFB6EB020C5FEA500C50F1DD
:100C1000000041EB045170BD0EF0004E4EEA113160
:100C200014EB5C04C2BFD4EB0C0541EA045170BD67
:100C300041F480114FF0000E013C90E645EA060EAB
:100C40008DE60CEA135594EA0C0F08BF95EA0C0FD9
:100C50003FF43BAF94EA0C0F0AD150EA01347FF421
:100C600034AF95EA0C0F7FF425AF104619462CE7F8
:100C700095EA0C0F06D152EA03353FF4FDAE10465B
:100C8000194622E750EA410618BF52EA43067FF4AC
:100C9000C5AE50EA41047FF40DAF52EA43057FF43C
:100CA000EBAE12E74FF0FF3C06E000BF4FF0010C47
:100CB00002E000BF4FF0010C4DF804CD4FEA410CAB
:100CC0007FEA6C5C4FEA430C18BF7FEA6C5C1BD078
:100CD00001B050EA410C0CBF52EA430C91EA030FF9
:100CE00002BF90EA020F0020704710F1000F91EA56
:100CF000030F58BF994208BF90422CBFD8176FEA24
:100D0000E37040F0010070474FEA410C7FEA6C5CF1
:100D100002D150EA013C07D14FEA430C7FEA6C5CF8
:100D2000D6D152EA033CD3D05DF8040B704700BF24
:100D30008446104662468C461946634600E000BF72
:100D400001B5FFF7B7FF002848BF10F1000F01BD44
:100D50004DF808EDFFF7F4FF0CBF012000205DF80F
:100D600008FB00BF4DF808EDFFF7EAFF34BF012094
:100D700000205DF808FB00BF4DF808EDFFF7E0FF2D
:100D800094BF012000205DF808FB00BF4DF808ED7E
:100D9000FFF7CEFF94BF012000205DF808FB00BFE5
:100DA0004DF808EDFFF7C4FF34BF012000205DF8C7
:100DB00008FB00BF4FEA410212F5001215D211D50F
:100DC0006FF47873B3EB625212D94FEAC12343F048
:100DD000004343EA505311F0004F23FA02F018BFCA
:100DE000404270474FF00000704750EA013005D193
:100DF00011F0004008BF6FF0004070474FF0000056
:100E0000704700BF4FEA4102B2F1E04324BFB3F59F
:100E1000001CDCF1FE5C0DD901F0004C4FEAC00271
:100E20004CEA5070B2F1004F40EB830008BF20F055
:100E30000100704711F0804F21D113F13872BCBF0F
:100E400001F00040704741F480114FEA5252C2F164
:100E50001802C2F1200C10FA0CF320FA02F018BFAD
:100E600040F001004FEAC1234FEAD32303FA0CFC00
:100E700040EA0C0023FA02F34FEA4303CCE77FEA8F
:100E8000625307D150EA01331EBF4FF0FE4040F4D9
:100E90004000704701F0004040F0FE4040F4000088
:100EA000704700BF80F0004002E000BF81F00041C9
:100EB00042001FBF5FEA410392EA030F7FEA226C00
:100EC0007FEA236C6AD04FEA1262D2EB1363C1BF90
:100ED000D218414048404140B8BF5B42192B88BFFF
:100EE000704710F0004F40F4000020F07F4018BF22
:100EF000404211F0004F41F4000121F07F4118BF42
:100F0000494292EA030F3FD0A2F1010241FA03FCE9
:100F100010EB0C00C3F1200301FA03F100F00043D1
:100F200002D5494260EB4000B0F5000F13D3B0F199
:100F3000807F06D340084FEA310102F10102FE2A08
:100F400051D2B1F1004F40EBC25008BF20F0010078
:100F500040EA03007047490040EB000010F4000F26
:100F6000A2F10102EDD1B0FA80FCACF1080CB2EBB9
:100F70000C0200FA0CF0AABF00EBC2505242184318
:100F8000BCBFD0401843704792F0000F81F40001BD
:100F900006BF80F400000132013BB5E74FEA410390
:100FA0007FEA226C18BF7FEA236C21D092EA030FFC
:100FB00004D092F0000F08BF0846704790EA010F76
:100FC0001CBF0020704712F07F4F04D1400028BFA3
:100FD00040F00040704712F100723CBF00F5000085
:100FE000704700F0004343F0FE4040F400007047BB
:100FF0007FEA226216BF08467FEA23630146420267
:1010000006BF5FEA412390EA010F40F48000704779
:101010004FF0000304E000BF10F0004348BF40421F
:101020005FEA000C08BF704743F0964301464FF05B
:1010300000001CE050EA010208BF70474FF00003B7
:101040000AE000BF50EA010208BF704711F00043F8
:1010500002D5404261EB41015FEA010C02BF8446C8
:101060000146002043F0B64308BFA3F18053A3F527
:101070000003BCFA8CF2083AA3EBC25310DB01FA6E
:1010800002FC634400FA02FCC2F12002BCF1004FF2
:1010900020FA02F243EB020008BF20F00100704783
:1010A00002F1200201FA02FCC2F1200250EA4C00D7
:1010B00021FA02F243EB020008BF20EADC7070471D
:1010C0004FF0FF0C1CEAD0521EBF1CEAD15392EA2B
:1010D0000C0F93EA0C0F6FD01A4480EA010C400207
:1010E00018BF5FEA41211ED04FF0006343EA501061
:1010F00043EA5111A0FB01310CF00040B1F5000FA3
:101100003EBF490041EAD3715B0040EA010062F151
:101110007F02FD2A1DD8B3F1004F40EBC25008BF3B
:1011200020F00100704790F0000F0CF0004C08BF59
:1011300049024CEA502040EA51207F3AC2BFD2F126
:10114000FF0340EAC250704740F400004FF0000334
:10115000013A5DDC12F1190FDCBF00F0004070476E
:10116000C2F10002410021FA02F1C2F1200200FAAC
:1011700002FC5FEA310040F1000053EA4C0308BF73
:1011800020EADC70704792F0000F00F0004C02BFC4
:10119000400010F4000F013AF9D040EA0C0093F03F
:1011A000000F01F0004C02BF490011F4000F013B99
:1011B000F9D041EA0C018FE70CEAD15392EA0C0F07
:1011C00018BF93EA0C0F0AD030F0004C18BF31F072
:1011D000004CD8D180EA010000F00040704790F048
:1011E000000F17BF90F0004F084691F0000F91F0EC
:1011F000004F14D092EA0C0F01D142020FD193EAB2
:101200000C0F03D14B0218BF084608D180EA010039
:1012100000F0004040F0FE4040F40000704740F015
:10122000FE4040F4400070474FF0FF0C1CEAD052E3
:101230001EBF1CEAD15392EA0C0F93EA0C0F69D03F
:10124000A2EB030280EA010C49024FEA402037D0AA
:101250004FF0805343EA111143EA10130CF00040A1
:101260008B4238BF5B0042F17D024FF4000C8B4291
:1012700024BF5B1A40EA0C00B3EB510F24BFA3EB71
:10128000510340EA5C00B3EB910F24BFA3EB910341
:1012900040EA9C00B3EBD10F24BFA3EBD10340EA9B
:1012A000DC001B0118BF5FEA1C1CE0D1FD2A3FF6E1
:1012B00050AF8B4240EBC25008BF20F00100704796
:1012C0000CF0004C4CEA50207F32C2BFD2F1FF0339
:1012D00040EAC250704740F400004FF00003013A6A
:1012E00037E792F0000F00F0004C02BF400010F40E
:1012F000000F013AF9D040EA0C0093F0000F01F022
:10130000004C02BF490011F4000F013BF9D041EA43
:101310000C0195E70CEAD15392EA0C0F08D1420276
:101320007FF47DAF93EA0C0F7FF470AF084676E749
:1013300093EA0C0F04D14B023FF44CAF08466EE722
:1013400030F0004C18BF31F0004CCAD130F00042F0
:101350007FF45CAF31F000437FF43CAF5FE700BF48
:101360004FF0FF3C06E000BF4FF0010C02E000BF71
:101370004FF0010C4DF804CD4FEA40024FEA410313
:101380007FEA226C18BF7FEA236C11D001B052EAC9
:10139000530C18BF90EA010F58BFB2EB030088BF8F
:1013A000C81738BF6FEAE17018BF40F001007047FE
:1013B0007FEA226C02D15FEA402C05D17FEA236CE0
:1013C000E4D15FEA412CE1D05DF8040B704700BF27
:1013D000844608466146FFE70FB5FFF7C9FF0028BE
:1013E00048BF10F1000F0FBD4DF808EDFFF7F4FFF7
:1013F0000CBF012000205DF808FB00BF4DF808ED90
:10140000FFF7EAFF34BF012000205DF808FB00BFB2
:101410004DF808EDFFF7E0FF94BF012000205DF8D4
:1014200008FB00BF4DF808EDFFF7D2FF94BF012085
:1014300000205DF808FB00BF4DF808EDFFF7C8FF7E
:1014400034BF012000205DF808FB00BF42000ED22F
:10145000B2F1FE4F0BD34FF09E03B3EB126209D4EF
:101460004FEA002343F0004323FA02F070474FF0A5
:101470000000704712F1610F01D1420202D14FF01A
:10148000FF3070474FF00000704700BF00000000C1
:1014900090B583B000AF041C081C111C1A1CBB1DA6
:1014A0001C803B1D1880BB1C19803B1C1A802A2005
:1014B00004F0ECFDBB1D1B881B0A1B041B0C181C35
:1014C00004F0FEFDBB1D1B88181C04F0F9FDBA1DBD
:1014D0003B1D12881B88D3181B041A0CBB1D013A34
:1014E0001A80BB1D1B881B0A1B041B0C181C04F054
:1014F000E7FDBB1D1B88181C04F0E2FD2B2004F047
:10150000C5FDBB1C1B881B0A1B041B0C181C04F00C
:10151000D7FDBB1C1B88181C04F0D2FDBA1C3B1C59
:1015200012881B88D3181B041A0CBB1C013A1A80A2
:10153000BB1C1B881B0A1B041B0C181C04F0C0FDE1
:10154000BB1C1B88181C04F0BBFDBD4603B090BC3F
:1015500001BC004790B585B002AF041C081C111CEB
:101560001A1CBB1D1C803B1D1880FB1C19703B1CEA
:101570001A80154B1A88154B9A4210D1BB1D18883A
:101580003B1D1988FB1C1A783B1C1B883C1C18341B
:1015900024880094FC69019400F01AF80FE0BB1D48
:1015A00018883B1D1988FB1C1A783B1C1B883C1CA7
:1015B000183424880094FC69019400F0DBF8BD46DF
:1015C00003B090BC01BC004702030020419300001F
:1015D00090B587B000AF041C081C111C1A1CBB1D61
:1015E0001C803B1D1880FB1C19703B1C1A80FB6A79
:1015F0001A68FB1C1978FB6ADB7AC91AFB6A9B889C
:101600000733002B00DA0733DB104B43F96A897983
:101610004B43D3183B61FB6A9988FB6A9B79BA1DDF
:1016200010883A1D1288FFF733FF4E4B802292013B
:101630005A614C4B8022D2015A614B4B4A4AD168C5
:10164000FF2212020A402C210A43DA60454B802215
:1016500012025A61434B802212021A61414B8022CE
:10166000D2011A61414B424A1A80FB6A9B88FA6A8E
:1016700092795343002B00DA0733DB101A1C3B1C12
:1016800014331A805FE03B1C17333A6912781A70E2
:101690003B1C163308221A7046E03B1C17331B789C
:1016A0001B061B16002B02DA3B1C1B8802E03B1CAE
:1016B00028331B883A1C0E3213802B4B2A4AD168E0
:1016C000FF22120211403A1C0E321288120A120432
:1016D000120C0A43DA60234B802212025A61214B1A
:1016E000802212021A61204B1F4AD168FF22120287
:1016F00011403A1C0E3212880A43DA60194B8022DC
:1017000012025A61174B802212021A613B1C1733D6
:101710003A1C1732127852001A703B1C16333A1CCE
:1017200016321278013A1A703B1C16331B78002BC4
:10173000B3D13B6901333B613B1C14333A1C143277
:101740001288013A1A803B1C14331B88002B9AD153
:10175000044B802292011A61BD4607B090BC01BCC7
:101760000047C04600100140000C0140FA02002072
:101770004AECFFFF90B587B000AF041C081C111C99
:101780001A1CBB1D1C803B1D1880FB1C19703B1CC8
:101790001A80FB6A1A68FB1C1978FB6ADB7AC91A83
:1017A000FB6A9B880733002B00DA0733DB104B43BF
:1017B000F96A89794B43D3183B61BB1D1B885220C2
:1017C000191C03F047FFFB6A9A88BB1D1B88D318BE
:1017D0001B041B0C013B1B041B0C5320191C03F0A6
:1017E00039FF3B1D1B885020191C03F033FFFB6A97
:1017F0009B791A1C3B1D1B88D3181B041B0C013B37
:101800001B041B0C5120191C03F024FFBB1D1B885B
:101810002120191C03F01EFF3B1D1B882020191CD2
:1018200003F018FF04F042F8404B8022D2011A6105
:101830003F4B404A1A80FB6A9B88FA6A927953436D
:10184000002B00DA0733DB101A1C3B1C14331A8000
:101850005FE03B1C17333A6912781A703B1C163351
:1018600008221A7046E03B1C17331B781B061B1618
:10187000002B02DA3B1C1B8802E03B1C28331B8830
:101880003A1C0E3213802C4B2B4AD168FF221202D5
:1018900011403A1C0E321288120A1204120C0A432A
:1018A000DA60224B802212025A61204B80221202FF
:1018B0001A61214B204AD168FF22120211403A1CC2
:1018C0000E3212880A43DA60184B802212025A61E3
:1018D000164B802212021A613B1C17333A1C173236
:1018E000127852001A703B1C16333A1C16321278CA
:1018F000013A1A703B1C16331B78002BB3D13B699D
:1019000001333B613B1C14333A1C14321288013AF8
:101910001A803B1C14331B88002B9AD103F0ECFF78
:10192000BD4607B090BC01BC0047C0460010014056
:10193000FA0200204AECFFFF000C014090B585B090
:1019400002AF041C081C111C1A1CBB1D1C803B1D73
:101950001880BB1C19803B1C1A80BB1C1B88013BD8
:101960001B041B0C1B041B0CBA1D0020115E3A1D2E
:101970000020125E1B041B14381C183000880090D5
:10198000081C111C1A1C012304F0FEFD3B1D1A88C3
:101990003B1C1B88D3181B041B0C013B1B041B0C9A
:1019A0001B041B0CBA1D0020115E1B041B14BA1C67
:1019B0000020125E381C183000880090081C191C8A
:1019C000012304F0E1FD3B1C1B88013B1B041B0CA5
:1019D0001B041B0CBA1D0020115E3A1D0020125E74
:1019E0001B041B14381C183000880090081C111CA4
:1019F000012204F0C9FDBB1D1A88BB1C1B88D3182B
:101A00001B041B0C013B1B041B0C1B041A0C3B1C72
:101A10001B88013B1B041B0C1B041B0C120412141F
:101A2000391D0020095E1B041B14381C1830008867
:101A30000090101C012204F0A7FDBD4603B090BC2D
:101A400001BC004780B500AF204B80221A801F4B9D
:101A500000229A801D4B17221A811C4B00229A816A
:101A60001A4B00221A82194B00229A82174B184AED
:101A70001A83164B00229A83144B11221A84134B9B
:101A800000229A84114B00221A85104B01225242E7
:101A90009A850E4B0F4A9A860C4B02221A870B4BE3
:101AA00000229A87094A40230021D152074A48233D
:101AB0000021D152054A4C230021D152034B8122EF
:101AC0001A80BD4680BC01BC0047C046002C0140C6
:101AD000013000008813000080B500AF8023DB05D3
:101AE00080221A808023DB0550229A808023DB0528
:101AF00000221A818023DB0500229A818023DB05E6
:101B000000221A828023DB0500229A828023DB05D3
:101B1000C022D2011A838023DB0500229A8380230E
:101B2000DB0510221A848023DB0500229A8480239F
:101B3000DB0508221A858023DB0509229A8580238C
:101B4000DB05104A9A868023DB0505221A8780234D
:101B5000DB0500229A878023DA0540230021D15239
:101B60008023DA0548230021D1528023DA054C2353
:101B70000021D1528023DB0580221A80BD4680BC23
:101B800001BC00478813000080B500AF214B002244
:101B90001A60204B00225A601E4B1F4A9A601D4B50
:101BA0000022DA601B4B00221A611A4B00225A6194
:101BB000184B00229A61174B0022DA61154B002264
:101BC0001A62144B154A5A62124B00229A62114B48
:101BD0000022DA620F4B00221A630E4B00225A6376
:101BE0000C4B00229A630B4B0A4A926804210A4369
:101BF0009A60C046074B9A6804231340002BF9D023
:101C0000044B044A926801210A439A60BD4680BC95
:101C100001BC00470024014000011600FF0F000036
:101C200080B500AF0A4B181C06F0C0FE084B094AED
:101C3000128A5A60064B084A9A60054B074ADA60D6
:101C4000034B074A1A60BD4680BC01BC0047C04632
:101C5000080002405C0300204C2401407003002077
:101C6000A525000080B582B000AF3B1D1B221A7075
:101C70003B1D00225A703B1D00229A703B1D002222
:101C8000DA703B1D181C06F093FB3B1D12221A70E4
:101C90003B1D00225A703B1D00229A703B1D002202
:101CA000DA703B1D181C06F083FB3B1D0B221A70DB
:101CB0003B1D00225A703B1D00229A703B1D0022E2
:101CC000DA703B1D181C06F073FBBD4602B080BCE9
:101CD00001BC004780B584B002AFBB1D00221A8052
:101CE000A0235B00BA1D12880092002000211A1C5C
:101CF000F02304F049FC414BBA1D12880092404A7F
:101D0000019218203221002204F0B6FC3B4BBA1D90
:101D1000128800923B4A01926E203421002204F086
:101D2000ABFC364BBA1D12880092374A019218203C
:101D30004B210022FFF70EFC344B0022DA80334B9C
:101D400007221A71314B00225A71304B12221A703D
:101D50002E4B00229A722D4B0022DA722B4B00225E
:101D60009A812A4B8022D2001A82284BB522520037
:101D70005A80264B1B8A5B081B041B0C1B041A0C85
:101D8000224BDA81214B00221A81214B214A9A6190
:101D90001F4B00225A801E4B00221A711C4B00223E
:101DA0001A801A4B5A881A4BDA80184B1B8A1B046C
:101DB0001A0C174B9A81184B00221A70174B184AAD
:101DC0001A60184B134A1A60174B184A1A80184B9E
:101DD00000221A80174B184A1A80184B00221A70DA
:101DE000FFF730FEFFF778FEFFF7CEFEFFF718FF94
:101DF000BD4602B080BC01BC0047C046E0FF000009
:101E000044010020500100202C0100205C03002030
:101E1000D01C00209C140020FE0200207C2000200A
:101E2000A5F30000F01C00208020002010270000F7
:101E3000EC1C002006030020B80B00000403002067
:101E400080B582B000AF0A1CBB1D011C19803B1D70
:101E50001A80BA1D3B1D0021525E00215B5E9A4232
:101E600002DABB1D1B8801E03B1D1B881B041B14F1
:101E7000181CBD4602B080BC02BC084780B582B0C9
:101E800000AF0A1CBB1D011C19803B1D1A80BA1D26
:101E90003B1D0021525E00215B5E9A4202DDBB1DAC
:101EA0001B8801E03B1D1B881B041B14181CBD462E
:101EB00002B080BC02BC084780B584B000AF021CF1
:101EC0003960BB1D1A80BB1D1B88181C5C4902F0C1
:101ED000DBFD031C1B041A0C3B1C0F331A703B1C4C
:101EE0000F331B78302213431B061A0E3B681A70FF
:101EF0003B1C0F331B781B041B0C1A1CD200D21A7C
:101F0000111C49018A1A1201D31A1B011B04190C56
:101F1000BB1DBA1D12888A181A80BB1D1B88181C8D
:101F2000FA23990002F0B0FD031C1B041A0C3B1CA1
:101F30000F331A703B6801333A1C0F32127830218C
:101F40000A431206120E1A703B1C0F331B781B0437
:101F50001B0C1A1C9201D21A9201D2185200D318EB
:101F6000DB001B04190CBB1DBA1D12888A181A80CD
:101F7000BB1D1B88181C642102F086FD031C1B047A
:101F80001A0C3B1C0F331A703B6802333A1C0F3299
:101F9000127830210A431206120E1A703B1C0F33BE
:101FA0001B781B041B0C1A1C5202D21A9200D21866
:101FB000D200D31A9B001B04190CBB1DBA1D12883A
:101FC0008A181A80BB1D1B88181C0A2102F05CFDB0
:101FD000031C1B041A0C3B1C0F331A703B680333A1
:101FE0003A1C0F32127830210A431206120E1A7070
:101FF0003B1C0F331B781B041B0C1A1C5203D21AF8
:102000009200D31A5B001B04190CBB1DBA1D128869
:102010008A181A803B680433BA1D12881206120E01
:1020200030210A431206120E1A703B680533002253
:102030001A703B68181CBD4604B080BC02BC08473F
:102040001027000080B500AF8023DB05144A12780A
:1020500012061216511E134A49008A5A013A1204F6
:10206000120C1A858023DB050D4A1278120612160F
:10207000511E0D4A49008A5A013A1204120C9A85DF
:102080008023DB058022D205928D1204120C5208A7
:102090001204120C1A87BD4680BC01BC0047C04622
:1020A0005C030020300200206002002080B584B074
:1020B00002AFB74B1B882B2293431B041A0CB44B63
:1020C0001A80B34B1B881A1C04231340002B00D02A
:1020D00056E18023DB058022D20512881204120CFF
:1020E00001218A431204120C1A80AA4BA94A928930
:1020F0001204120C06218A431204120C9A81A64B78
:10210000A54A126801218A431A60A34BA24A1268A9
:1021100006218A431A60A14BA04A52680F210A4344
:102120005A609F4B9E4A526820218A435A609C4BBA
:102130009B4A126802218A431A609A4B1B781B063D
:102140001B160D2B06DC944B974ADA60904B964A8F
:102150005A6105E0904B954ADA608D4B934A5A617B
:102160008D4B904A128A5A608B4B8B4A126804211D
:102170000A431A60874B8B4A128A1A87854B854A15
:1021800092891204120C06218A431204120C9A81BD
:10219000804B804A128A1204120C06218A431204D0
:1021A000120C1A827F4B1B781B061B160D2B0DDDA4
:1021B0007C4B9B7A002B09D1764B764A928912048C
:1021C000120C04210A431204120C9A81784B1A68EB
:1021D000784B9A425DD1764B734A1A60BB1D01223F
:1021E00052421A80A0235B00BA1D12880092002080
:1021F00000211A1CF02304F0C7F9BB1D1B880093B3
:102200006D4B01931420502100221F2304F034FA57
:10221000BB1D1B880093694B01931820732100227A
:10222000002304F029FAF8231B02BA1D1288009239
:10223000634A01921420B421002204F01DFAF8230D
:102240001B02BA1D128800925E4A01925A20B221E6
:10225000002204F011FAF8231B02BA1D1288009222
:10226000594A01925A20C821002204F005FA574B1E
:10227000574A1A804B4B1B781B061A0E554B1A7087
:10228000554B00221A70554B00221A80404B0022F9
:102290005A80FFF7D7FE434B1B781B061B160D2BEE
:1022A0000CDC3F4B3E4A526820210A435A603C4BAB
:1022B0003B4A91684A4A0A409A6006E0384B384ADD
:1022C0009268802149000A439A60364BDB7A1B06EC
:1022D0001B16012B0AD12F4B2E4A128C1204120C02
:1022E00002218A431204120C1A8409E0294B294A5C
:1022F000128C1204120C02210A431204120C1A84CA
:10230000354B1B78002B3DD0344B1A88354B9A4205
:1023100012D1324B00221A80334B1B78002B03D191
:102320001B4BFF225A8007E0194B5B88082213439E
:102330001B041A0C164B5A80154B1B888022134322
:102340001B041A0C124B1A80164B1B781B061B160B
:102350000D2B05DD104B104A126801210A431A604B
:102360000C4B00229A848023DB058022D205128840
:102370001204120C01210A431204120C1A8002E00A
:10238000C04600E0C046BD4602B080BC01BC00476C
:10239000D01C0020002C0140080002400000024038
:1023A000002401405C0300209C14002070030020E6
:1023B0007C200020A5F30000380100202C01002023
:1023C0000801002014010020200100200603002045
:1023D0007C150000FE020020FF0200204C1F0020A0
:1023E000FFFEFFFFDC050000F8020020F0B54746C5
:1023F00080B486B000AF934B802212021A61924BD8
:102400001B881A1C02231340002B43D008E08E4B7C
:102410001A8A8E4B1B8AD31A1B041A0C8A4B1A82F7
:10242000894B1A8A894B1B8A9A42F0D2884BDA6808
:10243000864B1B8A191C854BDB891B041B14CB1A8A
:10244000191C814B1B8ACB185B00D3181A1C7E4BBE
:102450005A617D4B5A697E4BD9687C4B1B8A5B0065
:10246000CB189A4208D3784B5A69784B1B8A5B0089
:102470005B42D218744B5A61744B9B7A1B061B1635
:10248000022B07D1704B1B88202213431B041A0C0C
:102490006D4B1A806C4B1B881A1C04231340002BB5
:1024A00001D000F0D7FE694B1B781B061B16162BBC
:1024B00040DC654B5B697B61664B3B610023BB6025
:1024C0003B1C0E33614A128A1A8022E07B691B880A
:1024D0009B081B041A0C3B691A807B691B88BA682D
:1024E000D318BB603B6902333B617B6902337B617C
:1024F000564B1B8A5A00584BD2187B699A4201D816
:10250000554B7B613B1C0E333A1C0E321288013A4C
:102510001A803B1C0E331B88002BD7D14B4B1B8AD8
:10252000B868191C02F0B0FA031C9B081B041A0CB3
:10253000454BDA81454B1B781B061B16172B07D022
:10254000424B1B781B061B16182B01D000F07FFE98
:10255000414B7B610023BB603B1C0E3300221A8081
:102560000EE07B691B88BA68D318BB607B690233B5
:102570007B613B1C0E333A1C0E32128801321A80EA
:10258000324B1B8A3A1C0E3212889A42E9D32F4BE7
:102590001B8AB868191C02F077FA031C9A08BB1C46
:1025A0001A80BB1C1A88284BDA81274B5B697B6138
:1025B0002A4B7B603B1C0E3300221A8026E07B698D
:1025C0001B889B081B041A0CBB1C1B88D31A1B04FA
:1025D0001B0C1B041A0C7B681A807B6802337B601F
:1025E0007B6902337B61194B1B8A5B001A1C1A4BF7
:1025F000D3181A1C7B699A4201D8174B7B613B1C8C
:102600000E333A1C0E32128801321A800F4B1B8A8D
:102610003A1C0E3212889A42D1D3104B7B600D4B7C
:102620003B610A4B1B781B061B16172B04D0182B7B
:1026300000D104E300F00BFE3B1C0E3300221A8095
:10264000EDE2C04600080140D01C00205C030020E1
:10265000080002409C14002070030020700B002032
:102660007B6804331B881B041A0CBB1C1B88D31803
:102670001B041A0C3B691A803B69023398467B683D
:102680001B881B041B14181CFEF7C6FC031C181C1B
:10269000FEF7A2F8031C0C1C181C211CED4BEC4A85
:1026A000FEF7EEF8031C0C1C1D1C261C7B68023375
:1026B0001B881B041B14181CFEF7AEFC031C181C03
:1026C000FEF78AF8031C0C1C181C211CE24AE34B81
:1026D000FEF7D6F8031C0C1C281C311C1A1C231CEA
:1026E000FDF71CFF031C0C1C1D1C261C7B680433FF
:1026F0001B881B041B14181CFEF78EFC031C181CE3
:10270000FEF76AF8031C0C1C181C211CD44AD54B7C
:10271000FEF7B6F8031C0C1C281C311C1A1C231CC9
:10272000FDF7FCFE031C0C1C1D1C261C7B680633DD
:102730001B881B041B14181CFEF76EFC031C181CC2
:10274000FEF74AF8031C0C1C181C211CC64AC74B78
:10275000FEF796F8031C0C1C281C311C1A1C231CA9
:10276000FDF7DCFE031C0C1C1D1C261C7B680833BB
:102770001B881B041B14181CFEF74EFC031C181CA2
:10278000FEF72AF8031C0C1C181C211CB84AB94B74
:10279000FEF776F8031C0C1C281C311C1A1C231C89
:1027A000FDF7BCFE031C0C1C181C211CFEF702FBD1
:1027B000031C1B041B0C1B041A0CBB1C1B88D3180A
:1027C0001B041B0C424613803B69043398467B680C
:1027D00002331B881B041B14181CFEF71DFC031C72
:1027E000181CFDF7F9FF031C0C1C181C211CA04A27
:1027F000A04BFEF745F8031C0C1C1D1C261C7B6817
:1028000004331B881B041B14181CFEF705FC031C57
:10281000181CFDF7E1FF031C0C1C181C211C964A18
:10282000964BFEF72DF8031C0C1C281C311C1A1C9F
:10283000231CFDF773FE031C0C1C1D1C261C7B684F
:1028400006331B881B041B14181CFEF7E5FB031C36
:10285000181CFDF7C1FF031C0C1C181C211C884A06
:10286000884BFEF70DF8031C0C1C281C311C1A1C8D
:10287000231CFDF753FE031C0C1C1D1C261C7B682F
:1028800008331B881B041B14181CFEF7C5FB031C14
:10289000181CFDF7A1FF031C0C1C181C211C7A4AF4
:1028A0007A4BFDF7EDFF031C0C1C281C311C1A1C75
:1028B000231CFDF733FE031C0C1C1D1C261C7B680F
:1028C0000A331B881B041B14181CFEF7A5FB031CF2
:1028D000181CFDF781FF031C0C1C181C211C5D4BF0
:1028E0005B4AFDF7CDFF031C0C1C281C311C1A1C75
:1028F000231CFDF713FE031C0C1C181C211CFEF7E7
:1029000059FA031C1B041B0C1B041A0CBB1C1B8850
:10291000D3181B041B0C424613803B6906339846B0
:102920007B6802331B881B041B14181CFEF774FB06
:10293000031C181CFDF750FF031C0C1C181C211C49
:10294000444B434AFDF79CFF031C0C1C1D1C261C1A
:102950007B6804331B881B041B14181CFEF75CFBEC
:10296000031C181CFDF738FF031C0C1C181C211C31
:10297000454A464BFDF784FF031C0C1C281C311CE8
:102980001A1C231CFDF7CAFD031C0C1C1D1C261C55
:102990007B6806331B881B041B14181CFEF73CFBCA
:1029A000031C181CFDF718FF031C0C1C181C211C11
:1029B000334A344BFDF764FF031C0C1C281C311CEC
:1029C0001A1C231CFDF7AAFD031C0C1C1D1C261C35
:1029D0007B6808331B881B041B14181CFEF71CFBA8
:1029E000031C181CFDF7F8FE031C0C1C181C211CF2
:1029F000214A224BFDF744FF031C0C1C281C311CF0
:102A00001A1C231CFDF78AFD031C0C1C1D1C261C14
:102A10007B680A331B881B041B14181CFEF7FCFA86
:102A2000031C181CFDF7D8FE031C0C1C181C211CD1
:102A3000084B074AFDF724FF031C0C1C281C311C03
:102A40001A1C231CFDF76AFD031C0C1C20E0C04669
:102A50000000000000000000AF946588635DB4BF13
:102A60000E2DB29DEFA7E63F4772F90FE9B7DB3FA6
:102A70000E2DB29DEFA7A6BF0E2DB29DEFA7C63FAC
:102A8000738577B988EFED3F4F232D95B723B4BFFA
:102A9000181C211CFEF78EF9031C1B041B0C1B04C5
:102AA0001A0CBB1C1B88D3181B041B0C424613803A
:102AB0003B690822D21890467B6804331B881B04AC
:102AC0001B14181CFEF7A8FA031C181CFDF784FE43
:102AD000031C0C1C181C211C5C4B5B4AFDF7D0FE30
:102AE000031C0C1C1D1C261C7B6806331B881B0446
:102AF0001B14181CFEF790FA031C181CFDF76CFE43
:102B0000031C0C1C181C211C514A524BFDF7B8FE2B
:102B1000031C0C1C281C311C1A1C231CFDF7FEFC7A
:102B2000031C0C1C1D1C261C7B6808331B881B0403
:102B30001B14181CFEF770FA031C181CFDF74CFE42
:102B4000031C0C1C181C211C434A444BFDF798FE27
:102B5000031C0C1C281C311C1A1C231CFDF7DEFC5A
:102B6000031C0C1C1D1C261C7B680A331B881B04C1
:102B70001B14181CFEF750FA031C181CFDF72CFE42
:102B8000031C0C1C181C211C354A364BFDF778FE23
:102B9000031C0C1C281C311C1A1C231CFDF7BEFC3A
:102BA000031C0C1C1D1C261C7B680C331B881B047F
:102BB0001B14181CFEF730FA031C181CFDF70CFE42
:102BC000031C0C1C181C211C274A284BFDF758FE1F
:102BD000031C0C1C281C311C1A1C231CFDF79EFC1A
:102BE000031C0C1C181C211CFEF7E4F8031C1B041E
:102BF0001B0C1B041A0CBB1C1B88D3181B041B0CBE
:102C0000424613807B6804337B603B690A333B6137
:102C10003B1C0E333A1C0E32128801321A80144BC0
:102C20001B8A181C052101F02FFF031C1B041B0C21
:102C30003A1C0E3212889A4200D211E507E33B1C7F
:102C40000E3300221A80F2E20E2DB29DEFA7A6BF2E
:102C50004772F90FE9B7DB3F0E2DB29DEFA7E63FB4
:102C6000AF946588635DB4BF000000000000000001
:102C70005C0300207B6804331B881B041A0CBB1CFC
:102C80001B88D3181B041A0C3B691A803B6902335A
:102C900098467B681B881B041B14181CFEF7BCF9A4
:102CA000031C181CFDF798FD031C0C1C181C211C90
:102CB000EC4BEB4AFDF7E4FD031C0C1C1D1C261C11
:102CC0007B6802331B881B041B14181CFEF7A4F935
:102CD000031C181CFDF780FD031C0C1C181C211C78
:102CE000E14AE24BFDF7CCFD031C0C1C281C311CF7
:102CF0001A1C231CFDF712FC031C0C1C1D1C261C9B
:102D00007B6804331B881B041B14181CFEF784F912
:102D1000031C181CFDF760FD031C0C1C181C211C57
:102D2000D34AD44BFDF7ACFD031C0C1C281C311CF2
:102D30001A1C231CFDF7F2FB031C0C1C1D1C261C7B
:102D40007B6806331B881B041B14181CFEF764F9F0
:102D5000031C181CFDF740FD031C0C1C181C211C37
:102D6000C54AC64BFDF78CFD031C0C1C281C311CEE
:102D70001A1C231CFDF7D2FB031C0C1C1D1C261C5B
:102D80007B6808331B881B041B14181CFEF744F9CE
:102D9000031C181CFDF720FD031C0C1C181C211C17
:102DA000B74AB84BFDF76CFD031C0C1C281C311CEA
:102DB0001A1C231CFDF7B2FB031C0C1C181C211C45
:102DC000FDF7F8FF031C1B041B0C1B041A0CBB1C97
:102DD0001B88D3181B041B0C424613803B69043329
:102DE00098467B681B881B041B14181CFEF714F9FB
:102DF000031C181CFDF7F0FC031C0C1C181C211CE8
:102E0000984B974AFDF73CFD031C0C1C1D1C261C0F
:102E10007B6802331B881B041B14181CFEF7FCF88C
:102E2000031C181CFDF7D8FC031C0C1C181C211CCF
:102E3000954A964BFDF724FD031C0C1C281C311CE5
:102E40001A1C231CFDF76AFB031C0C1C1D1C261CF2
:102E50007B6804331B881B041B14181CFEF7DCF86A
:102E6000031C181CFDF7B8FC031C0C1C181C211CAF
:102E7000874A884BFDF704FD031C0C1C281C311CE1
:102E80001A1C231CFDF74AFB031C0C1C1D1C261CD2
:102E90007B6806331B881B041B14181CFEF7BCF848
:102EA000031C181CFDF798FC031C0C1C181C211C8F
:102EB000794A7A4BFDF7E4FC031C0C1C281C311CDE
:102EC0001A1C231CFDF72AFB031C0C1C1D1C261CB2
:102ED0007B6808331B881B041B14181CFEF79CF826
:102EE000031C181CFDF778FC031C0C1C181C211C6F
:102EF000634A644BFDF7C4FC031C0C1C281C311CEA
:102F00001A1C231CFDF70AFB031C0C1C181C211C9B
:102F1000FDF750FF031C1B041B0C1B041A0CBB1CED
:102F20001B88D3181B041B0C424613803B690633D5
:102F300098467B6802331B881B041B14181CFEF781
:102F40006BF8031C181CFDF747FC031C0C1C181C19
:102F5000211C4B4A4B4BFDF793FC031C0C1C1D1C06
:102F6000261C7B6804331B881B041B14181CFEF7EB
:102F700053F8031C181CFDF72FFC031C0C1C181C19
:102F8000211C454A454BFDF77BFC031C0C1C281CEF
:102F9000311C1A1C231CFDF7C1FA031C0C1C1D1C40
:102FA000261C7B6806331B881B041B14181CFEF7A9
:102FB00033F8031C181CFDF70FFC031C0C1C181C19
:102FC000211C334A334BFDF75BFC031C0C1C281CF3
:102FD000311C1A1C231CFDF7A1FA031C0C1C1D1C20
:102FE000261C7B6808331B881B041B14181CFEF767
:102FF00013F8031C181CFDF7EFFB031C0C1C181C1A
:10300000211C214A214BFDF73BFC031C0C1C281CF6
:10301000311C1A1C231CFDF781FA031C0C1C1D1CFF
:10302000261C7B680A331B881B041B14181CFDF725
:10303000F3FF031C181CFDF7CFFB031C0C1C181C12
:10304000211C084B064AFDF71BFC031C0C1C281C0A
:10305000311C1A1C231CFDF761FA031C0C1C1FE019
:1030600000000000000000004F232D95B723B4BFDF
:10307000738577B988EFED3F0E2DB29DEFA7C63F60
:103080000E2DB29DEFA7A6BFAF946588635DB4BF58
:103090000E2DB29DEFA7E63F4772F90FE9B7DB3F70
:1030A000181C211CFDF786FE031C1B041B0C1B04B3
:1030B0001A0CBB1C1B88D3181B041B0C4246138024
:1030C0003B690822D21890467B6802331B881B0498
:1030D0001B14181CFDF7A0FF031C181CFDF77CFB3C
:1030E000031C0C1C181C211C6E4B6D4AFDF7C8FB01
:1030F000031C0C1C1D1C261C7B6804331B881B0432
:103100001B14181CFDF788FF031C181CFDF764FB3B
:10311000031C0C1C181C211C634A644BFDF7B0FBFC
:10312000031C0C1C281C311C1A1C231CFDF7F6F96F
:10313000031C0C1C1D1C261C7B6806331B881B04EF
:103140001B14181CFDF768FF031C181CFDF744FB3B
:10315000031C0C1C181C211C554A564BFDF790FBF8
:10316000031C0C1C281C311C1A1C231CFDF7D6F94F
:10317000031C0C1C1D1C261C7B6808331B881B04AD
:103180001B14181CFDF748FF031C181CFDF724FB3B
:10319000031C0C1C181C211C474A484BFDF770FBF4
:1031A000031C0C1C281C311C1A1C231CFDF7B6F92F
:1031B000031C0C1C1D1C261C7B680A331B881B046B
:1031C0001B14181CFDF728FF031C181CFDF704FB3B
:1031D000031C0C1C181C211C394A3A4BFDF750FBF0
:1031E000031C0C1C281C311C1A1C231CFDF796F90F
:1031F000031C0C1C181C211CFDF7DCFD031C1B040C
:103200001B0C1B041A0CBB1C1B88D3181B041B0CA7
:10321000424613807B6802337B603B690A333B6123
:103220003B1C0E333A1C0E32128801321A80264B98
:103230001B8A181C052101F027FC031C1B041B0C16
:103240003A1C0E3212889A4200D213E5C0461F4B38
:103250001F4A9A611D4B1B881A1C20231340002B08
:1032600017D01A4B1B88042213431B041A0C174B4C
:103270001A80164B1B88202293431B041A0C134BF5
:103280001A80124B5B88022213431B041A0C0F4B4B
:103290005A80BD4606B004BC9046F0BC01BC004755
:1032A0000E2DB29DEFA7A6BF0E2DB29DEFA7C63F74
:1032B000738577B988EFED3F4F232D95B723B4BFC2
:1032C00000000000000000005C030020D01C002073
:1032D0009C14002080B500AF114B1B88082293433B
:1032E0001B041A0C0E4B1A800E4B9B7A002B06D037
:1032F0000B4B1B881A1C02231340002B0BD0084BCE
:103300005A69074B9A61064B5B88042213431B04DE
:103310001A0C034B5A80BD4680BC01BC0047C04616
:10332000D01C00205C03002080B500AF8023DB05AB
:103330008022D20512881204120C01218A43120441
:10334000120C1A80BD4680BC01BC004780B582B01B
:1033500000AF021CFB1D1A70FB1D1B781B061B1601
:103360000C2B02DDFB1D0C221A70FB1D1B781B06AB
:103370001B16032B02DCFB1D04221A70064BFA1DE0
:1033800012781A71044B1B791B061B16181CBD46BC
:1033900002B080BC02BC08475C03002080B500AFCF
:1033A000044B1B791B061B16181CBD4680BC02BCB7
:1033B0000847C0465C03002080B582B000AF021C05
:1033C000FB1D1A70FB1D1B781B061B16022B02DD52
:1033D000FB1D02221A70FB1D1B787F2B02D9FB1DDF
:1033E00000221A70064BFA1D12785A71044B5B7951
:1033F0001B061B16181CBD4602B080BC02BC084749
:103400005C03002080B500AF044B5B791B061B16E4
:10341000181CBD4680BC02BC0847C0465C030020A7
:1034200080B582B000AF021CBB1D1A80BB1D0021FD
:103430005A5E0F4B9A4202DABB1D0D4A1A80BB1D21
:1034400000215A5EFA235B009A4203DDBB1DFA227B
:1034500052001A80074BBA1D1288DA80BB1D1B88E8
:103460001B041B14181CBD4602B080BC02BC0847DC
:103470000CFEFFFF5C03002080B500AF044BDB882F
:103480001B041B14181CBD4680BC02BC0847C04668
:103490005C03002080B582B000AF021CFB1D1A70D7
:1034A000FB1D1B781B061B16002B02DCFB1D0122DB
:1034B0001A70FB1D1B781B061B16182B02DDFB1D4B
:1034C00018221A70064BFA1D12781A70044B1B78DA
:1034D0001B061B16181CBD4602B080BC02BC084768
:1034E0005C03002080B500AF044B1B781B061B1645
:1034F000181CBD4680BC02BC0847C0465C030020C7
:1035000080B582B000AF021CBB1D1A80BB1D00211C
:103510005B5E002B02DABB1D00221A80BB1D00215E
:103520005A5E0E4B1B8A2E3BFF3B9A4207DD0B4B2C
:103530001B8A2E3BFF3B1B041A0CBB1D1A80074B3A
:10354000BA1D12885A80054B5B881B041B14181C7B
:10355000BD4602B080BC02BC0847C0465C030020E8
:1035600080B500AF044B5B881B041B14181CBD46C0
:1035700080BC02BC0847C0465C03002080B582B016
:1035800000AF021CFB1D1A70FB1D1B787F2B02D99C
:10359000FB1D00221A70FB1D1B781B061B16022B3D
:1035A00002DDFB1D02221A70064BFA1D12789A7278
:1035B000044B9B7A1B061B16181CBD4602B080BC30
:1035C00002BC08475C03002080B500AF044B9B7A27
:1035D0001B061B16181CBD4680BC02BC0847C04613
:1035E0005C03002080B582B000AF021CFB1D1A7086
:1035F000FB1D1B787F2B02D9FB1D00221A70FB1DBF
:103600001B781B061B16012B02DDFB1D01221A7005
:10361000064BFA1D1278DA72044BDB7A1B061B1676
:10362000181CBD4602B080BC02BC08475C030020E9
:1036300080B500AF044BDB7A1B061B16181CBD4679
:1036400080BC02BC0847C0465C03002080B582B045
:1036500000AF021CBB1D1A80BB1D00215A5E0F4B20
:103660009A4202DABB1D0D4A1A80BB1D00215A5E28
:103670009623DB009A4203DDBB1D9622D2001A80FE
:10368000074BBA1D12889A81054B9B891B041B149A
:10369000181CBD4602B080BC02BC084750FBFFFFAF
:1036A0005C03002080B500AF044B9B891B041B14F6
:1036B000181CBD4680BC02BC0847C0465C03002005
:1036C00080B582B000AF021CBB1D1A80BB1D1A88DA
:1036D0000E4B9A4203D8BB1D802292001A80BB1D5C
:1036E0001A888023DB009A4203D9BB1D8022D200B6
:1036F0001A80074BBA1D12881A82054B1B8A181CA8
:10370000BD4602B080BC02BC0847C046FF010000B5
:103710005C03002080B500AF034B1B8A181CBD461C
:1037200080BC02BC0847C0465C03002080B582B064
:1037300000AF021CFB1D1A70FB1D1B78052B02D964
:10374000FB1D05221A70064BFA1D12781A71044BE4
:103750001B79181CBD4602B080BC02BC0847C0469D
:10376000D01C002080B500AF034B1B79181CBD4650
:1037700080BC02BC0847C046D01C002080B500AF0A
:10378000034B1B88181CBD4680BC02BC0847C046C2
:10379000D01C002080B500AF054B1B8804221343CA
:1037A0001B041A0C024B1A80BD4680BC01BC0047AA
:1037B000D01C002080B500AF054B1B88042293432A
:1037C0001B041A0C024B1A80BD4680BC01BC00478A
:1037D000D01C002080B500AF044BDB891B041B14F8
:1037E000181CBD4680BC02BC0847C046D01C002047
:1037F00080B582B000AF021CBB1D1A80BB1D00212A
:103800005A5E0F4B9A4202DABB1D0D4A1A80BB1D4D
:1038100000215A5EFA235B009A4203DDBB1DFA22A7
:1038200052001A80074BBA1D12881A81BB1D1B88D3
:103830001B041B14181CBD4602B080BC02BC084708
:103840000CFEFFFF5C03002080B500AF044B1B891A
:103850001B041B14181CBD4680BC02BC0847C04694
:103860005C03002080B582B000AF021CBB1D1A8033
:10387000064B5A88BB1D1B8813431B041A0C034BB1
:103880005A80BD4602B080BC01BC0047D01C00205D
:1038900080B500AFBD4680BC01BC0047F0B587B025
:1038A00002AFC94B1B78002B00D097E0C74B1A68BA
:1038B00080235B021340002B00D18FE0C44B1B8898
:1038C00001331B041A0CC24B1A80C24B00225A80CF
:1038D000BF4B1A88C04B9A4265D13B1C0C33002267
:1038E0001A8002F067FE3B1C0C331B880093BB4B15
:1038F00001936520192100221F2302F0BDFE3B1C0D
:103900000C331A88B64B0092B64A019205203C212E
:10391000002202F0B1FE3B1C0C331A88B04B00921F
:10392000B14A019214205021002202F0A5FE3B1C56
:103930000C331A88AA4B0092AC4A019205206421EC
:10394000002202F099FE3B1C0C331A88A44B009213
:10395000A74A019228207821002202F08DFE3B1C0C
:103960000C331A889E4B0092A24A01920A208C21A5
:10397000002202F081FE3B1C0C331A889E4B009201
:103980009E4A01923C20B421002202F075FE3B1CAD
:103990000C331A88984B0092994A01924820C8210A
:1039A000002202F069FE8A4B1A88964B9A4215D182
:1039B000954B1B781B061A0E834B1A70854B5B8840
:1039C000032213431B041A0C824B5A80814B1B8821
:1039D000012213431B041A0C7E4B1A808B4B1B785D
:1039E000002B02D17B4B00225A807A4B5B881A1C39
:1039F00008231340002B09D0764B5B8808229343A1
:103A00001B041A0C734B5A8002F0D4FD714B5B8877
:103A10001A1C012313401B061B0E002B0BD06D4BF1
:103A20005B88012293431B041A0C6A4B5A8002F0F4
:103A3000C1FD00F0EFFB674B5B881A1C02231340AB
:103A4000002B01D100F0B6FB624B5B88022293434E
:103A50001B041A0C5F4B5A80A0235B0000220092CB
:103A60000020DA211A1C162302F08EFD6849664BED
:103A70001B791B061A16131C9B009B18143BCA18B3
:103A80005D4B00210091634901911020E12102F07A
:103A9000A1FD614A5C4B5B791B061B169B00D2188B
:103AA000554B002100915B4901913C20E12102F03E
:103AB00091FD5A49544B1B781B061B165A1E131CAA
:103AC0005B009B185B00CA18FC23DB0000210091FF
:103AD000504901917320E12102F07CFD50494A4B8D
:103AE0009B7A1B061A16131C9B009B18CA184D4B79
:103AF0000021009147490191C320E12102F06AFDB4
:103B0000414BDB7A1B061A0E82235900454B0020DD
:103B1000009045480190081CE32102F0ADFD2D4BBB
:103B20001B79022B31D83B1C0F332A4A12791A70A9
:103B30003B1C0F331A783D4BD200D05A3B1C0F333D
:103B40001A783A490223D2008A18D31819883B1CE4
:103B50000F331A78354C0423D200A218D3181A88D0
:103B60003B1C0F331C78314D0623E4002C19E3185D
:103B70001B880004001409040914120412141B0405
:103B80001B142B4C0094FDF7D9FE2A4B0022009207
:103B9000204A01920E2000211A1C002302F01AFD77
:103BA0000C4B1B881A1C04231340002B46D0224BBD
:103BB00000220092174A01920E2000211A1C1F2396
:103BC00002F008FD45E0C046FF02002010E000E0E2
:103BD0004C1F0020D01C0020DC05000074010020D8
:103BE000FFFF0000800100208C01002098010020D0
:103BF000A4010020B0010020FF070000BC0100204C
:103C0000C8010020881300005C030020FE02002091
:103C1000F4A100089002002048A2000854A2000865
:103C2000ECA200085FB300000C0200201802002084
:103C3000E0FF0000FCA2000808A30008CD4AFC2316
:103C4000DB0000210091CC4901910E20002102F0FF
:103C5000C1FCCA4B1A88CA4B9A4258D0C94B1B8820
:103C600001331B041A0CC74B1A80C64B1B88462B0A
:103C70004DD13B1C0C3300221A803B1C0C331A889C
:103C8000A0235B000092002000211A1CF02302F008
:103C90007BFC3B1C0C331B880093BB4B0193142013
:103CA000502100221F2302F0E7FC3B1C0C331A8832
:103CB000B64B0092B64A019218207321002202F0FE
:103CC000DBFC3B1C0C331A88B04B0092B14A0192CA
:103CD0001420B421002202F0CFFC3B1C0C331A88C4
:103CE000AA4B0092AC4A01925A20B221002202F063
:103CF000C3FC3B1C0C331A88A44B0092A74A0192C8
:103D00005A20C821002202F0B7FC00F0B9FEA44BF3
:103D10001B891B041B0C033B1B041B0C0022009281
:103D2000A04A01920220191C0122002302F0A4FCE7
:103D30009D4BDB881B041B0C7522D31A1B041A0C29
:103D40003B1C0C331A803B1C0C3300229B5E102B57
:103D500003DC3B1C0C3311221A803B1C0C33002269
:103D60009B5ED92B03DD3B1C0C33D9221A808C4B74
:103D70001B79052B01D1854B00E08C4B3A1C0A3294
:103D800013803B1C0C331B88033B1B041A0C3B1C8D
:103D90000A331B8800210091824901910220111CE5
:103DA000012202F069FC7E4B3A1C0C3212881A8107
:103DB0007B4BDA887A4B5B79120412141B041B14B8
:103DC00000210091101C08211A1C052302F0DCFBC5
:103DD000FC23DB0000936B2006210122082302F064
:103DE000D3FBFC23DB0000936B200621042201237C
:103DF00002F0CAFBFC23DB0000936B200E2104229F
:103E0000012302F0C1FBFC23DB000093D520062137
:103E10000122082302F0B8FBFC23DB000093D22030
:103E200006210422012302F0AFFBFC23DB000093F8
:103E3000D2200E210422012302F0A6FBFC23DB008A
:103E400000936E200A216522012302F09DFB564B50
:103E50005B881B041B14652253431A1C524B1B8A9C
:103E6000101C191C00F010FE031C1B061A0E3B1C34
:103E70000F336E321A704C4B1B8A4D48191C00F0E0
:103E800003FE031C1B041A0C3B1C0E331A70444B1C
:103E90001B79042B01D13D4B01E0FC23DB003A1CD4
:103EA0000A3213803B1C0F331B781B041A0C3B1C7B
:103EB0000E331B781B041B0C120412141B041B145E
:103EC000391C0A3109880091101C08211A1C05238D
:103ED00002F05AFB3B1C0F331B781B041A0C304BAF
:103EE000DA802F4B3A1C0E3212785A712C4B5B89B8
:103EF0001B041B0C033B1B041B0C2E4A00210091CE
:103F000028490191101C191C0222002302F0B4FB65
:103F1000254B9B891B041B149B101B041B0C1B04AF
:103F20001A0C214BDB881B041B0CD3181B041B0C25
:103F30007522D31A1B041A0C3B1C0C331A803B1C31
:103F40000C3300229B5E102B03DC3B1C0C33112234
:103F50001A803B1C0C3300229B5ED92B03DD3B1CDB
:103F60000C33D9221A800E4B1B79032B24D1074B1B
:103F700023E0C04610A3000890020020FA020020AF
:103F80004AEC0000FC02002038010020E0FF0000A5
:103F90002C01002008010020140100202001002035
:103FA000D01C0020EC0100205C030020FF07000073
:103FB0005C760000370100008B4B3A1C0A321380FC
:103FC0003B1C0C331B88033B1B041A0C87493B1C0E
:103FD0000A331B880020009085480190081C111CA2
:103FE000022202F049FB834B3A1C0C3212885A81A0
:103FF000814B9B891B041B149B101B041B0C1B0473
:104000001B14181CFDF708F8031C181CFCF7E4FB34
:10401000031C0C1C181C211C724B714AFCF730FC51
:10402000031C0C1C1D1C261C734B1B791B061B162A
:104030001A1F724B9200D358181CFCF7CDFB031CBF
:104040000C1C281C311C1A1C231CFCF719FC031C1B
:104050000C1C181C211CFCF7D5FE031C7B600123E3
:104060001C1C78686649FDF7DDF9031C002B01D1A3
:1040700000231C1C23061B0E002B0BD03B1C0F33F4
:1040800020221A703C1C0A347868FDF7DFF9031C03
:1040900023800EE03B1C0F332D221A707B68802298
:1040A000120653403C1C0A34181CFDF7CFF9031CC0
:1040B00023803B1C0A331A88524B101C191CFDF735
:1040C000FBFE4D4B1B791B061B16092B1DDC4E4BB3
:1040D0001A794D4B5A714C4BDA784B4B1A714A4B4B
:1040E0002E22DA70484B56229A71474B0022DA7121
:1040F000454B3A1C0F3212781A70434B5B78302BC9
:104100004ED1414B20225A704AE03F4B20221A7078
:104110003D4B9A783C4B5A703B4BDA783A4B9A704D
:10412000394B1A79384BDA70374B5A79364B1A714A
:10413000354B6D225A71344B56229A71324B002204
:10414000DA713B1C0E3301221A7013E03B1C0E3354
:104150001B782D4AD35C302B12D13B1C0E331B78BD
:10416000294A2021D1543B1C0E333A1C0E321278BE
:1041700001321A703B1C0E331B78032BE6D900E08A
:10418000C0463B1C0E333A1C0E321278013A1A70AC
:104190003B1C0E331B781C4A391C0F310978D15453
:1041A000194A1A4B0021009119490191F020002170
:1041B00002F010FA0F4B5B881A1C04231340002BEB
:1041C00009D00C4B5B88042293431B041A0C094B47
:1041D0005A8000F0F1F8BD4605B0F0BC01BC0047C4
:1041E0000000000000C8E93F5FB300003701000095
:1041F000EC010020D01C00205C03002024A2000859
:10420000000000009D1C00209C1C00201E8400005B
:104210009002002080B584B002AFFB1D01221A700D
:1042200021E0FB1D1B781B041B0C1A1C9200D318E9
:104230001A1C91001A1C0B1CD3181B041B0C0A33EC
:104240001B041B0C1B041B0C1B041B14584A009260
:10425000181C11210122C82302F096F9FB1DFA1D3A
:10426000127801321A70FB1D1B780B2BD9D9FB1D5C
:1042700001221A7022E0FB1D1B781B041B0C1A1C68
:104280009200D3181A1C91001A1C0B1CD3181B0483
:104290001B0C11331B041B0C1B041B0C1B041B14D9
:1042A00096225200424900910A20191C012302F073
:1042B0006BF9FB1DFA1D127801321A70FB1D1B7879
:1042C000072BD8D996235B003A4A00920A20112185
:1042D0001A1C012302F058F996235B00354A00921C
:1042E0000A20D9211A1C012302F04EF9314B009308
:1042F0000A2011210122C82302F046F99B235B000A
:104300002C4A0092181C11210122C82302F03CF90A
:10431000FB1D01221A701CE0FB1D1B781B041B0CEB
:104320001A1C9200D3181B041B0C0A331B041B0C11
:104330001B041B0C1B041B141D4A0092181C732128
:104340000122052302F020F9FB1DFA1D127801322B
:104350001A70FB1D1B783B2BDED9FB1D01221A7046
:104360001CE0FB1D1B781B041B0C1A1C9200D318AD
:104370001B041B0C11331B041B0C1B041B0C1B0408
:104380001B140B4A00929E20191C0522012302F0E7
:10439000FBF8FB1DFA1D127801321A70FB1D1B7809
:1043A000272BDED9BD4602B080BC01BC0047C04609
:1043B000CB5A0000FBDE000090B58BB002AFA94BDA
:1043C0001B881A1C40231340002B04D0A64B7B6192
:1043D000A64B3B6103E0A64B7B61A64B3B61A14B27
:1043E0009A69A54B5B881B041B145B00D318FB6008
:1043F000A14B1B8A5A00A14BD218FB689A4206D8DF
:104400009D4B1B8A5B005B42FA68D318FB609A4B9A
:10441000DB881B041A0C984B1B891B041B0CD31A3A
:104420001B041A0C3B1C0A331A80FB681A883B1CBD
:104430000A331B88D3181B041A0C3B1C1A331A802E
:104440003B1C1A3300215A5E8D4B9A4203DD3B1C04
:104450001A338B4A1A803B1C1A3300215A5E894B4F
:104460009A4204DC3B1C1A33CE2252001A803B1CB9
:104470001E330B221A8081E0FB681A883B1C1C3318
:104480001A803B1C1C331A883B1C0A331B88D31828
:104490001B041A0C3B1C1C331A803B1C1C330021D0
:1044A0005A5E774B9A4203DD3B1C1C33744A1A80D8
:1044B0003B1C1C3300215A5E724B9A4204DC3B1CAD
:1044C0001C33CE2252001A803C1C08343B1C1C3387
:1044D00000215A5E3B1C1A3300215B5E101C191C24
:1044E000FDF7AEFC031C2380BC1D3B1C1C330021CC
:1044F0005A5E3B1C1A3300215B5E101C191CFDF731
:10450000BDFC031C23803B1C1A333A1C1C3212884E
:104510001A80BB1D1B881B061B0E7522D31A1B0697
:104520001A0E7B691A707B6901337B61BB1D1B8886
:104530001B061A0E3B1C08331B881B061B0ED31AC6
:104540001B061B0E01331B061A0E3B691A703B69D2
:1045500001333B61FB680233FB60474B1B8A5A0007
:10456000464BD218FB689A4201D8444BFB603B1C77
:104570001E333A1C1E32128801321A803B1C1E3335
:104580001A88414B9A4200D876E7404B1B88002B93
:1045900016D03E4B1B88013B1B041A0C3B4B1A8068
:1045A0003A4B1B88002B0BD12E4B1B881022134338
:1045B0001B041A0C2B4B1A80354BFA2252001A801E
:1045C000002000F06DF8FFF725FE264B1B884022E7
:1045D00053401B041A0C234B1A802E4B181C00F05E
:1045E0005FF82B4B1B88002B2AD0294B1B88013BE3
:1045F0001B041A0C264B1A80254B1B88002B1FD13D
:10460000184B1B88102293431B041A0C154B1A805D
:1046100000230093204B01930B20CC210022002388
:1046200002F02AF8002300931C4B0193C420CD21F3
:104630000022002302F020F8144BFA2292001A8084
:10464000124B1B88002B07D1114B1B88002B03D169
:104650000E4BFA2292001A80BD4609B090BC01BCF4
:104660000047C046D01C0020201E002070130020F0
:10467000501F0020F41C00205C0300209C1400202C
:10468000630200009B010000350100008020002033
:10469000EC1C0020FF0700005C01002068010020E6
:1046A00080B588B002AF021CBB1D1A80474B1B8827
:1046B0001A1C40231340002B51D0454B3B61454B06
:1046C000FB603B1C16330B221A8022E03B1C163386
:1046D00019883B691B781A1C3B6901333B61FB68F5
:1046E0001B78F8680130F8600904091412041214E8
:1046F0001B041B14B81D00880090081C111C01220B
:1047000001F042FF3B1C16333A1C1632128801326C
:104710001A803B1C16331A882F4B9A42D6D92B4B42
:104720001B881A1C10231340002B4AD0BB1D1B886A
:10473000002B46D0294B00220092294A01920B20DF
:10474000CC21002201F098FF244B00220092254A40
:104750000192C420CD21002201F08EFF31E0224BD6
:104760003B61224BFB603B1C16330B221A8022E07C
:104770003B1C163319883B691B781A1C3B690133B3
:104780003B61FB681B78F8680130F8600904091484
:10479000120412141B041B14B81D00880090081C7E
:1047A000111C012201F0F0FE3B1C16333A1C16329C
:1047B000128801321A803B1C16331A88064B9A4223
:1047C000D6D9BD4606B080BC01BC0047D01C002035
:1047D000501F0020F41C002035010000CB5A0000BF
:1047E0005C01002068010020201E002070130020C2
:1047F00080B500AF514B1B8A1B041B0C1A1C0223F3
:104800001340002B5DD04D4B9B8E1B041A0C4C4B60
:104810001A824A4B494A92891204120C02218A4395
:104820001204120C9A81454B444A128C1204120C49
:1048300001218A431204120C1A84404B404A118A07
:10484000404A108A3F4AD2891204120C821A12047A
:10485000120C8A181204120C1A87384B374A128A23
:104860001204120C04218A431204120C1A82354BD2
:104870001B781B061B160D2B03DC324B9B7A002B7F
:1048800009D02E4B2D4A92891204120C04210A439E
:104890001204120C9A812A4B1B88022213431B0418
:1048A0001A0C274B1A80254B244A128A1204120C28
:1048B00002218A431204120C1A82234B8022120214
:1048C0005A611E4B1B8A1B041B0C1A1C0423134029
:1048D000002B2FD01D4B1D4A126801218A431A60FC
:1048E000164B164A128A1204120C04218A4312042F
:1048F000120C1A82114B114A92891204120C0421D3
:104900008A431204120C9A818023DB058022D2058F
:1049100012881204120C01218A431204120C1A800C
:10492000FDF764FD064B1B88012213431B041A0C80
:10493000034B1A80BD4680BC01BC0047002C0140DF
:10494000D01C00205C030020000801400800024049
:1049500080B582B000AF204B1A6802231340002BB1
:1049600035D01D4B1C4A126802218A431A601A4B2B
:10497000DA6CBB1D1A80194B5B69BA1D128892084C
:104980001204120C1A80154B5A69154B1A60134BFE
:104990005B699A1C114B5A61104B5A69114BD968CB
:1049A000114B1B8A5B00CB189A4208D30B4B5A69F8
:1049B0000D4B1B8A5B005B42D218084B5A61074BB8
:1049C0001B88082213431B041A0C044B1A80BD4693
:1049D00002B080BC01BC004700240140D01C002074
:1049E000F01C0020080002405C03002080B500AFEE
:1049F0001F4B1A6802231340002B05D01C4B1C4A86
:104A0000526802210A435A60194B1A680423134062
:104A1000002B29D0174B174A128A1204110C164A80
:104A20000A401204120C1A82114B114A52680421D6
:104A30000A435A60114B114A126804218A431A60D2
:104A40000C4B0C4A92891204120C02210A431204E4
:104A5000120C9A81074B074A128C1204120C012186
:104A60000A431204120C1A84BD4680BC01BC0047E4
:104A700000000240002C0140FDFDFFFF0800024045
:104A800080B500AFFEE7C0464A1E08BF7047C0F0C1
:104A90002481884240F21681114200F01781B0FA59
:104AA00080F3B1FA81F2A2EB0303C3F11F0304A266
:104AB00002EB03134FF000029F4600BFAFF30080EC
:104AC000B0EBC17F00BF42EB020228BFA0EBC17078
:104AD000B0EB817F00BF42EB020228BFA0EB8170E8
:104AE000B0EB417F00BF42EB020228BFA0EB417058
:104AF000B0EB017F00BF42EB020228BFA0EB0170C8
:104B0000B0EBC16F00BF42EB020228BFA0EBC16057
:104B1000B0EB816F00BF42EB020228BFA0EB8160C7
:104B2000B0EB416F00BF42EB020228BFA0EB416037
:104B3000B0EB016F00BF42EB020228BFA0EB0160A7
:104B4000B0EBC15F00BF42EB020228BFA0EBC15037
:104B5000B0EB815F00BF42EB020228BFA0EB8150A7
:104B6000B0EB415F00BF42EB020228BFA0EB415017
:104B7000B0EB015F00BF42EB020228BFA0EB015087
:104B8000B0EBC14F00BF42EB020228BFA0EBC14017
:104B9000B0EB814F00BF42EB020228BFA0EB814087
:104BA000B0EB414F00BF42EB020228BFA0EB4140F7
:104BB000B0EB014F00BF42EB020228BFA0EB014067
:104BC000B0EBC13F00BF42EB020228BFA0EBC130F7
:104BD000B0EB813F00BF42EB020228BFA0EB813067
:104BE000B0EB413F00BF42EB020228BFA0EB4130D7
:104BF000B0EB013F00BF42EB020228BFA0EB013047
:104C0000B0EBC12F00BF42EB020228BFA0EBC120D6
:104C1000B0EB812F00BF42EB020228BFA0EB812046
:104C2000B0EB412F00BF42EB020228BFA0EB4120B6
:104C3000B0EB012F00BF42EB020228BFA0EB012026
:104C4000B0EBC11F00BF42EB020228BFA0EBC110B6
:104C5000B0EB811F00BF42EB020228BFA0EB811026
:104C6000B0EB411F00BF42EB020228BFA0EB411096
:104C7000B0EB011F00BF42EB020228BFA0EB011006
:104C8000B0EBC10F00BF42EB020228BFA0EBC10096
:104C9000B0EB810F00BF42EB020228BFA0EB810006
:104CA000B0EB410F00BF42EB020228BFA0EB410076
:104CB000B0EB010F00BF42EB020228BFA0EB0100E6
:104CC000104670470CBF012000207047B1FA81F2F6
:104CD000C2F11F0220FA02F0704708B14FF0FF3016
:104CE00000F00EB80029F8D02DE90340FFF7CCFE04
:104CF000BDE8064002FB00F3A1EB0301704700BFD3
:104D0000704700BF002100F004B80C4B5B584350C3
:104D100004310B480B4B42189A42FFF4F6AF0A4A93
:104D200000F003B8002342F8043B084B9A42FFF41A
:104D3000F9AF03F0BFFA00F00DF87047C0B50008F6
:104D400000000020F8020020F8020020842000204B
:104D5000FFF7FEBF2DE9F04F404B83B09847404B23
:104D60009847404B9B681C0401D43F4B98474FF633
:104D7000DC703E4DA8473E4C3E4B4FF6DC70636006
:104D8000A847A368180401D43B4B98473B4A384BCB
:104D90003B4C5A603B4B98473B4B98473B4B9847A3
:104DA0003B483C49A0473C483A49A0473B48394921
:104DB000A0473B483749A0473A4B98473A4B98475A
:104DC0003A4B98473A4B98473A4B984749F2413209
:104DD00083B2934240F0CA82374A1846138037495B
:104DE0000222374B9847374D374B00269847374BB1
:104DF0009847374C18206421294A4FF6FF730096D4
:104E00000195A04718207821324A4FF6FF7300968B
:104E10000195A04718208C212F4A4FF6FF7300966A
:104E20000195A04798208C212C4A4FF6FF730096DD
:104E30000195A0472A4A1820B4214FF6FF73009627
:104E40000195A047274B9847274B9847274ADFF8FB
:104E5000A0B0DFF8A090168066E000BFCD53000838
:104E600055540008000C0140796F000809620008E1
:104E700000100140000030837D75000800003033D1
:104E8000255500086D8800089D800008BD54000865
:104E900018A3000800380140B8A30008A4A3000824
:104EA00090A30008DD550008455500088D55000801
:104EB00009590008F56000080203002028030020BB
:104EC0003162000890020020F5550008796700085B
:104ED000D5650008F800002024A300082A0300205C
:104EE00034A30008F16E00087D6100084003002033
:104EF000497C000844030020B9F80030DA0700F1CB
:104F0000F580B9F80630002B40F0FB80DFF88CC24A
:104F1000BCF8003013B9FB0700F1F98007F008076F
:104F2000BFB2002F40F00781854B864E9847B047AF
:104F300000F080039BB20746002B00F0C680DFF82C
:104F400064C2BCF80030D90740F1BF80DFF858E2F6
:104F500000264FF29E78BEF800A04346CD201421D3
:104F6000794A00960195A047784A7949B2F900003C
:104F7000D8470AF0040A1FFA8AFAB24514BFC2469B
:104F80004FF01F0A02461421F72053460096019560
:104F9000A047704A4346CD20242100960195A047A2
:104FA0006D4B6B49B3F90000D847242102465346A4
:104FB000F72000960195A0474346684ACD2034214A
:104FC00000960195A047DFF8E4C16149BCF90000F3
:104FD000D847342102465346F72000960195A04752
:104FE00043465F4ACD20442100960195A047DFF853
:104FF000C0E15749BEF90000D84744210246534654
:10500000F72000960195A0474346CD205421554AEC
:1050100000960195A047544A4D49B2F90000D8477F
:10502000542102465346F72000960195A047434677
:105030000F2014214D4A00960195A04743460F20AA
:1050400024214B4A00960195A04743460F20342166
:10505000484A00960195A0474346474A0096019565
:105060000F204421A047DFF840C1BCF80030E046E3
:1050700003F0020292B2002A40F09E8003F008037F
:105080009BB2002B00F044810026392014213B4ABA
:105090004FF29E7300960195A04739202421374A8C
:1050A0004FF29E7300960195A04739203421334A70
:1050B0004FF29E7300960195A04700960195392006
:1050C00044212E4A4FF29E73A047DFF8E8E09EF895
:1050D0000030002B3FF410AF00228EF80020284A49
:1050E0009047B9F80030DA077FF50BAF254A23F077
:1050F00001031380244B9847B9F80630002B3FF486
:1051000005AF224EB0471F4B0022DA80FEE6204A50
:105110009047204E0420204B9847B04780B2122879
:1051200040F205811D4B07F008072822BFB21A8004
:10513000002F3FF4F9AE164A9047194B9847F3E613
:105140009D3800087D37000840A3000808030020B0
:105150002803002048A300081E03002050A30008D5
:1051600058A3000860A300081A03002068A30008E1
:1051700070A3000878A300087CA3000888A3000897
:10518000AD20000844030020C9680008B574000879
:1051900021780008E534000865380008060300207F
:1051A000D532000824030020400300201003002013
:1051B0003E03002004030020DFF8F0E103210A464B
:1051C000DFF8C4C16D4BDEF80000E047DFF8E0E136
:1051D0006B4ABEF80030694852F82310694B984773
:1051E0006648DFF8A8C1E047DFF8C8E11FFA80F899
:1051F000BEF800209045C0F0B180DFF8B8C14FF094
:10520000000A392014215D4A4FF29E73CDF800A0A8
:105210000195ACF80080A047DFF89CE103210A4625
:10522000564BDEF80000584EB047DFF890C1DFF86B
:1052300050E1BCF80030534A5EF823104F489047C5
:105240004E48524B9847524E328886B296427BD394
:10525000DFF83CE14FF0000A39202421474A4FF2A1
:105260009E73CDF800A00195AEF80060494EA047AE
:105270000321DFF814C10A46404B3068E047DFF8ED
:105280003CE13F4ABEF800303C4852F823103D4B09
:1052900098473E4E3948B047DFF824C11FFA80F8DE
:1052A000BCF80020904546D3DFF814C100260096D4
:1052B00039203421314A4FF29E730195ACF80080B9
:1052C000A047DFF800E103212C4BDEF80000DFF8F7
:1052D000B8C00122E0472D4A284890472E4B274A64
:1052E000B3F800A093F802800096864602EB000C0B
:1052F0002A4E01954FF29E7322F80EA039204421C8
:105300008CF80280A047338823F008033380DCE662
:1053100000933920462314217822DFF884C0E04727
:10532000B8F8003043F00803A8F80030ACE6DFF826
:1053300098C0E047F2E5CDF800A039203421D20032
:105340001023174EB047AFE7CDF800A03920242135
:10535000D2001023DFF848C0E04779E700963920F3
:105360001421D20010230E4EB04746E70D4B98474C
:105370000D4B49F22530188031E500BF280300208D
:105380009C02002011010008B17D000819020008EC
:10539000882000200C03002084A300084003002084
:1053A00089650008D5560008020300201403002078
:1053B0001C03002086200020580300201803002032
:1053C0008420002020030020AD2000081C4B1D4934
:1053D00010B519601C490022596015219A60DA60E5
:1053E0001A6159610721D96144F63D6199611A62D8
:1053F0005A621A6812F4003F5A681DD022F0030264
:105400005A605A6842F001025A605A6842F4803287
:105410005A600B4C0D4B4CF2503023600C4B9847AC
:1054200023689B0107D5636823F003036360636807
:1054300043F00203636010BD22F480325A60E8E753
:10544000001002408100010000841D008100010164
:105450000962000830B41048104D11490560114D23
:105460004FF6FF724560C2604FF0333008600E485F
:105470000E4C4860CA600E490E4B6160E2600E4AF5
:10548000442111605A6822F0E0625A605A6842F082
:1054900000725A6030BC704700080140404444B478
:1054A000000C0140B4444434BB33888800100140F0
:1054B00000003033000001400014014010B500230B
:1054C00084B00C4CADF80430ADF80630ADF80830BF
:1054D000ADF80C300C23694620464FF41642ADF867
:1054E0000A30054B0092984720460121034B98470C
:1054F00004B010BD00380140A18400086586000892
:1055000070B5064D06460C4620468021A847002867
:10551000FAD020463146024B984770BD31870008CB
:10552000D586000870B5044600780D4630B1044EAB
:105530002946B04714F8010F0028F9D170BD00BF0B
:1055400001550008104B8020188000224FF4405075
:105550009A801A819A811A829A82188310209A83DB
:10556000188440F60F609A840521188509209885D3
:10557000998619879A87A3F84020A3F84820A3F8B2
:105580004C2081221A80704700040040124B802179
:105590001980002246F260019A801A811A829A824A
:1055A0001A8399834FF48851198440F6FF719A84C5
:1055B0001A859985A1F500619A861A879987A1F5C0
:1055C0008061A3F84010A3F84820A3F84C209A81EA
:1055D00081221A80704700BF00080040034B002260
:1055E0009A6007221A60024A5A60704710E000E091
:1055F00040190100104B002240F6FF711A605A60FA
:105600009A60DA601A615A619A61DA611A625962C3
:105610009A62DA621A635A639A639A68194642F088
:1056200004029A608B68044A5807FBD5936843F0DC
:1056300001039360704700BF002801404163836805
:1056400043F00103836003689B07FCD5C06C80B204
:10565000704700BF2DE9F84F1B4C1C4D4FF400570D
:105660004FF480498246DFF8688002206761C4F801
:1056700014908B46C047EB684FF4004603F47F4319
:1056800043EA1A23EB6066612661EB68022003F4AB
:105690007F434AEA0303EB6066612661C4F8109019
:1056A000C047EB6803F47F4343EA1B23EB6066616A
:1056B0002661EB6803F47F434BEA0303EB6066610A
:1056C00026612761BDE8F88F00100140000C014001
:1056D00009620008F8B5724E4FF40067714D41F24F
:1056E00088303761A8474FF6E8507761A8474FF6F2
:1056F000FF70A8474FF6FF70A8470A243761013CA6
:105700004FF6FF70A4B2A847664E002CF7D141F2C5
:105710008830654DB04701204FF48071A8470220C2
:105720004FF4E061A84703203821A8470420214610
:10573000A847082040F20721A84709202146A8478A
:105740000A202146A8470C202146A8470D202146C3
:10575000A8470F202146A84710202146A84711201E
:105760000721A84712202146A84713202146A84711
:1057700007200121A84720210720A8474CF25030DC
:10578000B0474CF25030B047102041F29021A8476A
:1057900040F221211120A8474CF25030B0474CF282
:1057A0005030B04781211220A8474CF25030B0470A
:1057B0004CF25030B04713204FF4A851A84729208D
:1057C0000C21A8470D212B20A8474CF25030B047A0
:1057D0004CF25030B04720202146A84721204FF4FA
:1057E0008071A847302040F20331A84731200621BC
:1057F000A84732200121A84735204FF40171A8475E
:1058000036200421A847372040F20741A847382016
:105810002146A847392040F20441A8473C2040F2E5
:105820000241A8473D200421A84750202146A8470F
:105830005120EF21A84752202146A847532040F28B
:105840003F11A84760204FF41C51A8476120012157
:10585000A8476A202146A84780202146A8478120E2
:105860002146A84782202146A84783202146A847F1
:1058700084202146A84785202146A8479020102152
:10588000A84792204FF4C061A847072040F2331187
:10589000A8474CF25030B0474CF25030B047F8BDFA
:1058A000000C01400962000855560008F8B50F4C7D
:1058B0004FF400530E4E63614FF4804302200D4FAE
:1058C0006361B847F3684FF4004503F47F43F36026
:1058D000022065612561B847F36803F47F4343F014
:1058E0002203F36065612561F8BD00BF001001402F
:1058F000000C014009620008024B4FF400521A618B
:10590000704700BF00100140F8B59C4E4FF400678F
:1059100041F288309A4D3761A8474FF6E8507761D9
:10592000A8470A2437614FF6FF70A847631E13F09B
:10593000FF04F8D1934B4FF4005290484FF4804647
:105940005A615E61C4684FF4004104F47F4444F03E
:10595000CF04C460596119611E611A615A611E61E8
:10596000C768642407F47F47C760596119611A61E9
:105970005A611E61C76807F47F4747F0C107C760D7
:10598000596119611A615A611E61C76807F47F473E
:1059900047F03007C760596119611A615A615E6149
:1059A000C76807F47F4747F0ED07C7605961196181
:1059B0001E611A615A611E61C76807F47F4747F08C
:1059C0006707C760596119611A615A611E61C7682A
:1059D00007F47F4747F00307C760596119611A61EF
:1059E0005A611E61C76807F47F4747F01207C76016
:1059F000596119611A615A611E61C76807F47F47CE
:105A000047F08107C760596119611A615A615E6187
:105A1000C76807F47F4747F0CB07C7605961196132
:105A20001E611A615A611E61C76807F47F4747F01B
:105A30003907C760596119611A615A611E61C768E7
:105A400007F47F4747F02C07C760596119611A6155
:105A50005A611E61C76807F47F47C76059611961C1
:105A60001A615A611E61C76807F47F4747F034071F
:105A7000C760596119611A615A611E61C76807F4EC
:105A80007F4747F00207C760596119611A615A617F
:105A90005E61C76807F47F4747F0EA07C76059614E
:105AA00019611E611A615A611E61C76807F47F4758
:105AB000C760596119611A615A611E61C76807F4AC
:105AC0007F47C760596119611A615A615E61C76891
:105AD00007F47F4747F0E807C760596119611E6105
