:0A07F5004710006009000000000832
:10028D00E4F52CF52BF52AF529C203C200C202C2F2
:10029D00011206887E057F008E368F3775400575F5
:1002AD00411275340575351C753C05753DA97542B2
:1002BD000675433690E680E030E70E853438853597
:1002CD0039853C3A853D3B800C853C38853D3985EB
:1002DD00343A85353BEE54E070030203F8752D007A
:1002ED00752E807E057F008E2F8F30C374869FFF05
:1002FD0074069ECF2402CF3400FEE48F288E27F59E
:10030D0026F525F524F523F522F521AF28AE27ADE9
:10031D0026AC25AB24AA23A922A821C3120BF65083
:10032D0026E52E2524F582E52D3523F58374CDF0B4
:10033D00E5242401F524E43523F523E43522F522C3
:10034D00E43521F52180C4E4F524F523F522F521CA
:10035D00AF28AE27AD26AC25AB24AA23A922A82110
:10036D00C3120BF65033E5302524F582E52F3523E6
:10037D00F583E0FFE52E2524F582E52D3523F58364
:10038D00EFF0E5242401F524E43523F523E43522AB
:10039D00F522E43521F52180B7852D36852E37746C
:1003AD00002480FF740534FFFEC3E5419FF541E550
:1003BD00409EF540C3E5399FF539E5389EF538C3C4
:1003CD00E53B9FF53BE53A9EF53AC3E5359FF5359F
:1003DD00E5349EF534C3E53D9FF53DE53C9EF53C8A
:1003ED00C3E5439FF543E5429EF542D2E843D8204D
:1003FD0090E668E04409F090E65CE0443DF0D2AF51
:10040D00D204120C2D538EF8C20330010512008058
:10041D00C2013003291204FE5024C203120CB32072
:10042D00001690E682E030E704E020E1EF90E682EE
:10043D00E030E604E020E0E4120C5C120D671209D6
:03044D00A280C7C3
:1000800090E6B9E0120C0701EE00023301025903B9
:1000900001670601E80801E20901D60A01DC0B004C
:1000A000AC2001082102852200000279753307C2C5
:1000B000E890E6B57401F0E490E68BF090E6B5F0D8
:1000C000D2E890E68BE0B533F9000000E4F53EF5A8
:1000D0003FC3E53F95337480F8653E985024AF3FA9
:1000E00074402FF582E434E7F583E0FE74002FF5C9
:1000F00082E43410F583EEF0053FE53F70D3053E12
:1001000080CF12045002028590E6B57401F0753379
:1001100007E4F53EF53FC3E53F95337480F8653E4F
:10012000985024AF3F74002FF582E43410F583E03B
:10013000FE74402FF582E434E7F583EEF0053FE5E9
:100140003F70D3053E80CFE490E68AF00000009037
:10015000E68BE533F000000090E6A0E020E1F9E452
:1001600090E6B5F002028590E6B57401F0120D69D3
:10017000400302028590E6BBE024FE602214603357
:1001800024FD601114602224067048E53690E6B321
:10019000F0E5378037E54090E6B3F0E541802DE5A6
:1001A0003890E6B3F0E5398023E53A90E6B3F0E520
:1001B0003B801990E6BAE0FF120C88AA06A9077BDB
:1001C00001EA494B600DEE90E6B3F0EF90E6B4F033
:1001D00002028502027E120D34020285120D5B02BC
:1001E0000285120D530202851204EC020285120DE3
:1001F0006B400302028590E6B8E0247F601A146029
:100200001F2402702CA200E43325E0FFA202E43395
:100210004F90E740F0E48005E490E740F0A38004CD
:10022000E490E741F090E68AF090E68B7402F0806B
:1002300054804B120D6D504D90E6B8E024FE6011D5
:100240002402704190E6BAE0B40104C20080368016
:100250002D90E6BAE0602E8025120D6F502790E6B3
:10026000B8E024FE60112402701B90E6BAE0B401ED
:1002700004D200801080078005120D71500790E6AF
:0C028000A0E04401F090E6A0E04480F013
:01028C00224F
:03003300020D6358
:040D630053D8EF3240
:030023000208B818
:1008B800C0E0C0F0C083C082C0D075D000C000C006
:1008C80001C002C003C004C005C006C0073098328A
:1008D800E5AA30E62DC29890FC00E599F090E69CD8
:1008E800E4F000000090E69D04F00000009088000D
:1008F800E0F544634901E54945486006908000E019
:10090800F544309905C299120AB5D007D006D0052A
:10091800D004D003D002D001D000D0D0D082D08370
:05092800D0F0D0E03228
:03003B0002092D8A
:10092D00C0E0C0F0C083C082C0D075D000C000C090
:10093D0001C002C003C004C005C006C00730C032EC
:10094D00E5AA30E42DC2C090F800E5C1F090E6981C
:10095D00E4F000000090E69904F0000000908100A2
:10096D00E0F545634701E54745466006908200E0A6
:10097D00F54530C105C2C1120A62D007D006D005B7
:10098D00D004D003D002D001D000D0D0D082D083FB
:05099D00D0F0D0E032B3
:100AB50090E6A1E020E143C3E515950EE50D6480C0
:100AC500F8E514648098502C74802515F582E4347B
:100AD500E7F583E0F5990515E5157002051490B85D
:100AE50000E0F511631B01E51B451A600D90B00090
:0B0AF500E0F5112290E68D7440F02225
:100A620090E6A4E020E24BC3E5179510E50F648001
:100A7200F8E516648098502D74002517F58274F4F9
:100A82003516F583E0F5C10517E5177002051690D6
:100A9200B900E0F512631901E5194518601490B127
:100AA20000E0F5122290E6497484F0000000F000A4
:030AB2000000221F
:0D0D460090E6087403F075985A75C05A22A3
:1004500075985A75C834901000E0FFB4600DA3E0A1
:10046000B4090875CBFD75CA90807AEFB4C00F90BF
:100470001001E0B4120875CBFE75CAC880679010F1
:1004800000E0B4800DA3E0B4250875CBFF75CA6405
:100490008053901000E0FF700DA3E0B44B0875CBC3
:1004A000FF75CAB2803FEFB4800F901001E0B470C6
:1004B0000875CBFF75CACC802C901000E0700DA39E
:1004C000E0B4960875CBFF75CAD98019901000E08A
:1004D000700DA3E0B4E10875CBFF75CAE680067520
:0C04E000CAF375CBFF85CBCD85CACC22BA
:1006880090E600E054E74410F090E601E04440F0C2
:1006980000000090E60B7403F000000090E604747C
:1006A80080F00000007408F00000007406F00000FC
:1006B800007404F00000007402F0000000E4F00090
:1006C800000090E61074A0F000000090E61174B0ED
:1006D800F000000090E61274F2F000000090E613BB
:1006E80074A0F000000090E61474E2F0000000909E
:1006F800E61574E0F0000000E490E61BF00000004E
:1007080090E61AF000000090E619F000000090E66C
:1007180018F000000090E6497484F0000000F00032
:100728000000F000000090E65EE04428F043AF01CE
:10073800D20090E68D7404F0000000E490E694F096
:1007480000000090E6957404F0000000D2ACD2AE30
:10075800D2BCD2BED299C298D2C1C2C0D2AF020D09
:01076800464A
:1009A20090E6A2E020E12490E7C0740AF0A374204C
:1009B200F0E4A3F0A3F0A3F0A3F0A3F0A37402F079
:1009C200E4A3F0A3F090E68F740AF090E6A3E0307F
:1009D200E22E90F000740AF0A37420F0E4A3F0A3D6
:1009E200F0A3F0A3F0A3F0A37402F0E4A3F0A3F049
:1009F20090E690F000000090E691740AF00000008A
:010A020022D1
:0204FE00D32207
:020D6700D32295
:020D6900D32293
:080D530090E6BAE0F513D3228B
:1004EC0090E740E513F0E490E68AF090E68B04F098
:0204FC00D32209
:080D5B0090E6BAE0F508D3228E
:100D340090E740E508F0E490E68AF090E68B04F052
:020D4400D322B8
:020D6B00D32291
:020D6D00D3228F
:020D6F00D3228D
:020D7100D3228B
:100CD800C0E0C083C082D2015391EF90E65D7401F9
:080CE800F0D082D083D0E0328D
:100D0800C0E0C083C0825391EF90E65D7404F0D0D8
:060D180082D083D0E0321E
:100D1E00C0E0C083C0825391EF90E65D7402F0D0C4
:060D2E0082D083D0E03208
:100B8800C0E0C083C08290E680E030E70E8534384C
:100B9800853539853C3A853D3B800C853C38853D1B
:100BA8003985343A85353B5391EF90E65D7410F002
:070BB800D082D083D0E032AF
:100CF000C0E0C083C082D2035391EF90E65D7408D8
:080D0000F0D082D083D0E03274
:100BBF00C0E0C083C08290E680E030E70E85343815
:100BCF00853539853C3A853D3B800C853C38853DE4
:100BDF003985343A85353B5391EF90E65D7420F0BB
:070BEF00D082D083D0E03278
:010D7300324D
:010D7400324C
:010D7500324B
:010D7600324A
:010D77003249
:100B4600C0E0C083C082C0D05391EF90E65F7408C6
:100B5600F02099FD75140075150090E68DE0750D71
:100B660000F50E74802515F582E434E7F583E0F58B
:100B7600990515E51570020514D0D0D082D083D022
:020B8600E0325B
:010D78003248
:100A0300C0E0C0F0C083C082C0D075D000C005C0B4
:100A1300075391EF90E65F7420F020C1FD75160037
:100A230075170090E694E075F010A4FF90E695E04A
:100A3300FDE5F0F50FEF4DF51074002517F5827401
:100A4300F43516F583E0F5C10517E51770020516B1
:0F0A5300D007D005D0D0D082D083D0F0D0E03201
:010D79003247
:010D7A003246
:010D7B003245
:010D7C003244
:010D7D003243
:010D7E003242
:010D7F003241
:010D80003240
:010D8100323F
:010D8200323E
:010D8300323D
:010D8400323C
:010D8500323B
:010D8600323A
:010D87003239
:010D88003238
:010D89003237
:010D8A003236
:010D8B003235
:010D8C003234
:010D8D003233
:010D8E003232
:010D8F003231
:010D90003230
:010D9100322F
:010D9200322E
:010D9300322D
:010D9400322C
:03004300020800B0
:03005300020800A0
:10080000020CD800020D1E00020D0800020CF000C0
:10081000020B8800020BBF00020D7300020D740072
:10082000020D7500020D7600020D7700020B4600E6
:10083000020D7800020A0300020D7900020D7A0011
:10084000020D7B00020D7400020D7C00020D7D0084
:10085000020D7E00020D7F00020D8000020D81005E
:10086000020D8200020D7400020D7400020D74006E
:10087000020D8300020D8400020D8500020D86002A
:10088000020D8700020D8800020D8900020D8A000A
:10089000020D8B00020D8C00020D8D00020D8E00EA
:1008A000020D8F00020D9000020D9100020D9200CA
:0808B000020D9300020D9400FB
:100C5C0090E682E030E004E020E60B90E682E030A3
:100C6C00E119E030E71590E680E04401F07F147E56
:0C0C7C0000120B0090E680E054FEF02215
:100C2D0030040990E680E0440AF0800790E680E009
:100C3D004408F07FDC7E05120B0090E65D74FFF03A
:0F0C4D0090E65FF05391EF90E680E054F7F022CD
:020C8800A907BA
:100C8A00AE42AF438F828E83A3E064037017AD0137
:100C9A0019ED7001228F828E83E07C002FFDEC3EDD
:080CAA00FEAF0580DFE4FEFF50
:010CB200221F
:100CB30090E682E044C0F090E681F04387010000B3
:040CC300000000220B
:100B00008E318F3290E600E054187012E5322401E5
:100B1000FFE43531C313F531EF13F532801590E65C
:100B200000E05418FFBF100BE53225E0F532E53147
:100B300033F531E5321532AE31700215314E6005B4
:060B4000120CC780EE223A
:100CC7007400F58690FDA57C05A3E582458370F940
:010CD70022FA
:1005000012010002EF020140B4041747000001028B
:1005100000010A060002EF020140010009028D00FD
:10052000040100A032080B000202020004090400CA
:10053000000102020100052400100104240202054A
:1005400024060001052401000107058103100002B3
:1005500009040100020A00000007058802000200E9
:1005600007050102400000080B0202020200040914
:10057000040200010202010005240010010424020B
:100580000005240602030524010003070582031069
:10059000000209040300020A0000000705860200A9
:1005A00002000705040200020009028D0004010098
:1005B000A032080B0002020200040904000001023C
:1005C0000201000524001001042402020524060093
:1005D000010524010001070581031000020904013F
:1005E00000020A000000070588020002000705015A
:1005F00002400000080B020202020004090402008B
:100600000102020100052400100104240200052457
:1006100006020305240100030705820310000209F6
:10062000040300020A00000007058602000200071A
:1006300005040200020004030904100343007900CA
:1006400070007200650073007300380345005A00A3
:100650002D00550053004200200046005800320093
:1006600020005600490052005400550041004C0043
:10067000200043004F004D00200050004F0052006A
:0806800054000403090400000A
:030000000207698B
:0C076900787FE4F6D8FD7581490207B0E6
:100BF600EB9FF5F0EA9E42F0E99D42F0E89C45F055
:010C060022CB
:100C0700D083D082F8E4937012740193700DA3A37C
:100C170093F8740193C0E0E8C0E02274029368601F
:060C2700EFA3A3A380DF90
:1007750002028DE493A3F8E493A34003F68001F20B
:1007850008DFF48029E493A3F85407240CC8C33385
:10079500C4540F4420C8834004F456800146F6DF54
:1007A500E4800B01020408102040809007F5E47EE8
:1007B500019360BCA3FF543F30E509541FFEE49349
:1007C500A360010ECF54C025E060A840B8E493A310
:1007D500FAE493A3F8E493A3C8C582C8CAC583CA3B
:1007E500F0A3C8C582C8CAC583CADFE9DEE780BEF3
:0107FF0000F9
:00000001FF
