:020000040000FA
:1000000090C40720E1000000E9000000EB000000C0
:10001000ED000000EF000000F10000000000000013
:10002000000000000000000000000000F3000000DD
:10003000F500000000000000F7000000F9000000DB
:10004000FB000000FB000000FB000000FB000000C4
:10005000FB00000031150000F1150000FB0000005E
:10006000FB000000FB000000FB000000FB000000A4
:10007000FB000000FB000000FB000000FB00000094
:10008000FB000000FB000000FB000000FB00000084
:10009000FB000000FB000000FB000000FB00000074
:1000A000570D0000FB000000FB000000FB000000FB
:1000B000FB000000FB000000FB000000FB00000054
:1000C000FB000000FB000000FB000000DFF80CD08C
:1000D00000F0B2F800480047F701000090C4072084
:1000E0000648804706480047FEE7FEE7FEE7FEE7D2
:1000F000FEE7FEE7FEE7FEE7FEE7FEE7010300009E
:10010000CD00000010B500F035FA10BD704770B595
:100110000546032D0BD100F01DFF0446134800884F
:10012000A04203D01148048001F006F800BF00BFD0
:1001300070BD10B50446022C02D0032C06D102E09B
:1001400000F0EFFF02E000F0D7FF00BF00BF10BDDE
:1001500070477047704770477047704770477047E7
:1001600070477047704770477047000034C00720E1
:1001700010B5012000F045FF10BD38B5684601F00C
:10018000C5F9009800280FDD2648008860B169464F
:10019000254801F049F904460020224908802246FA
:1001A0002149822000F0A2FD38BD0EB5684600F05E
:1001B000C4FE0098002810DD0098202801DD2020D2
:1001C00000E00098029002A9184800F081FE01901A
:1001D00001AA1649012001F050F90EBD10B500F03A
:1001E000B9FE044612480088A04203D0104804809B
:1001F00000F0A2FF10BD00F0F7F8FFF7B9FF00F024
:1002000061FC012000F0A3FC00BF0A480078002830
:10021000FBD005E0FFF7B1FFFFF7E0FFFFF7C5FFF9
:10022000F8E7000040C0072020C1072060C1072078
:1002300042C0072007C00720064C074D06E0E068D3
:1002400040F0010394E8070098471034AC42F6D31D
:10025000FFF740FFBC020000CC02000002E008C82B
:10026000121F08C1002AFAD170477047002001E030
:1002700001C1121F002AFBD17047000013060000C5
:100280000F0100003301000000000000000000002A
:10029000000000000000000000000000000000005E
:1002A000000000000000000000000000000000004E
:1002B000000000000000000000000000E41C00003E
:1002C00000C007204C0000005C020000000000009D
:1002D000000000000000000000000000000000001E
:1002E000000000000000000000000000000000000E
:1002F000000000000000000000000000FFFFFFFF02
:1003000000202021884A116000BF8749096811F048
:10031000400FFAD00321854A11604FF00001844A52
:10032000C2F8A811834A11604FF00101824A11609E
:100330004FF00B01814A11604FF00101A2F104025C
:1003400011604FF0AA017E4A11604FF05501784AC2
:10035000C2F88C1078490968022906D000BF794993
:10036000096811F0806FFAD004E0002000E0401C22
:100370006428FCD90321744A11604FF0AA016C4A29
:10038000C2F88C104FF055016D4A11604FF02301F7
:100390006E4A11604FF00101A2F1040211604FF0AA
:1003A000AA016B4A11604FF05501116000BF694905
:1003B000096811F4806FFAD00321674A11604FF089
:1003C000AA015B4AC2F8AC104FF05501604A1160B7
:1003D0006249634A11604FF00001624A116043F2C2
:1003E0003A01534A1160704756480068C0F30160F3
:1003F000032868D15048006810F0030006D0012897
:1004000023D002283FD003285CD100E000BF4D4834
:100410000068C0F30E0000F101004FEA40014448BB
:10042000D0F88800C0F3074000F10100B1FBF0F004
:100430004D4900FB01F03D490968C9B201F10101D4
:10044000B0FBF1F0494908603CE03E480068C0F369
:100450000E0000F101004FEA40013548D0F8880055
:10046000C0F3074000F10100B1FBF0F0404900FB90
:1004700001F02E490968C9B201F10101B0FBF1F0A8
:100480003A4908601EE02F480068C0F30E0000F1F2
:1004900001004FEA40012648D0F88800C0F3074029
:1004A00000F10100B1FBF0F04FF4FA4100FB01F064
:1004B0001E490968C9B201F10101B0FBF1F02B49F5
:1004C000086000BF2FE01C48006810F0030006D051
:1004D000012810D0022819D0032823D100E000BF42
:1004E00012480068C0B200F101001F49B1FBF0F0F2
:1004F0001E49086016E00D480068C0B200F1010016
:100500001B49B1FBF0F0194908600BE0074800688F
:10051000C0B200F101004FF4FA41B1FBF0F0134911
:10052000086000BF00BF7047A0C10F4004C10F406A
:1005300000C00F40ACC10F400CC10F4084C00F4041
:100540008CC00F4088C00F4080C00F40A4C00F4037
:10055000ACC00F40A8C00F40A0C00F40DE872804E9
:10056000C4C00F40C8C10F4000093D0000C00720B3
:10057000001BB7000020F7490880F7490870F749C9
:1005800008704FF00110F64908600020F549086036
:10059000F5490860704710B5F449002000F078FB79
:1005A00010BD10B5F2488088082801DD082401E05C
:1005B000EF488488EE4822460168802000F096FBD0
:1005C0000446EB4800682044E949086008468088F2
:1005D000001B888010BD10B5E5480168002000F0C0
:1005E00057FB0446E24800682044E1490860084699
:1005F0008088001B888010BD10B500221146802025
:1006000000F074FB10BD10B5DA49002000F040FB8B
:1006100010BD10B50446082C6FD2DFE804F06E045C
:10062000F2F16E6EF0EFFFF7B6FFD0490978C80916
:1006300000F0E5FACD48C088CD498880CB480078E5
:10064000C0F3411010B101287BD192E0C748407837
:100650000C2877D2DFE800F0060D8A158A1D333AA0
:1006600041555E8301F096F800B9FBE0FFF799FF72
:100670007DE0002001F0EEF800B9F3E0FFF7BCFFE9
:1006800075E0012001F0E6F800B9EBE0FFF7B4FFF8
:100690006DE000BFB548007810F01F0F06D1B348D9
:1006A000807840F08000AC49087001E0002001E053
:1006B00000BF012000B9D5E0FFF79EFF57E001F031
:1006C0000DF800B9CEE0FFF76CFF50E0002000F01D
:1006D000BEFA0020A649888049E000BFA348007800
:1006E00010F01F0F03D19D48A149086001E00020D0
:1006F00001E000BF012008B9B4E045E1FFF751FF78
:1007000035E001F01DF900B9ACE0FFF775FFFFF728
:10071000FDFC2CE000BF9548007800F01F00012888
:1007200014D18E48007870B19048007992490978C8
:10073000884208DA8D480079904908448C4908605D
:1007400003E08EE012E0002004E001E0002001E080
:1007500000BF012000B985E0FFF723FF07E001F0AB
:10076000C9F900B97EE0FFF747FF00E07AE000BF7B
:100770007FE07E48007810F01F0004D0012803D0ED
:1007800002286CD16AE06DE07848007918B17748AA
:100790000079012861D175484078042833D007DCFE
:1007A00078B1012811D0022819D0032854D11AE0B9
:1007B000202831D0212833D022283BD023284BD1E8
:1007C00041E06C486A4908604AE000F040FC28B10A
:1007D000684867490860FFF7E4FE41E03CE065488F
:1007E000634908603CE06149488800F035FC48B145
:1007F00060485F490860FFF7D4FE31E0C0E0A4E044
:100800008AE038E028E05949488800F028FC10B117
:10081000FFF7F2FE24E01FE05648554908601FE04C
:1008200000F049FC28B1534851490860FFF7B9FE70
:1008300016E011E04D49488800F058FC10B1FFF770
:10084000DBFE0DE008E04949488800F052FC10B199
:10085000FFF7D2FE04E000BF00BF03E002E001E0CA
:1008600007E000BF802000F0F2F9002040498880B6
:1008700000BF00BF88E03D480078C00949D13C482E
:10088000808870B3FFF7A7FE3948808848BB374897
:100890000078C0F3411010B1012838D100E0E1E741
:1008A0003248007810F01F0004D0012803D002283D
:1008B0002BD129E0D6E72D48007918B12B480079D3
:1008C000012820D12948407820B102280AD02028C8
:1008D00018D110E000F0B9FB10B1FFF78DFE15E064
:1008E00010E018E02149488800F0B3FB10B1FFF791
:1008F00083FE0BE006E000F0B5FB10B1FFF77CFED5
:1009000004E000BF00BFADE7ACE7ABE700E0A9E75C
:1009100001E0FFF778FE37E0144800780121B1EBE1
:10092000D01F02D1FFF73DFE0EE00B48007810F01B
:10093000800F09D00848007800F07F000649087051
:100940000846007800F083F81EE0002000F08CF9E3
:100950001AE0000004C0072006C0072007C00720D7
:1009600008C007200CC0072010C007202CC007209B
:1009700024C0072019C0072014C0072015C0072075
:10098000802000F071F900BF00BF10BD01460A07CA
:10099000D00E11F0800F00D0401C70471021FE4A8D
:1009A0001160FE49C1F8100200BFFD49096811F04D
:1009B000100FFAD070471022F74B1A60F74AC2F8AE
:1009C000100200BFF64A126812F0100FFAD010227F
:1009D000F14B1A60F14AC2F8101200BFF04A1268D7
:1009E00012F0100FFAD0704710B504460B461020D5
:1009F000E94908602046FFF7C9FF4FF4A06141EACA
:100A00000040E649C1F8100200BFE548006810F058
:100A1000100FFAD01020E0490860E048C0F810320A
:100A200000BFDF48006810F0100FFAD010BD01467B
:100A30003020D94A1060D948C0F8101200BFD848F9
:100A4000006810F0200FFAD0D6480068704710B543
:100A5000044644F080004FF4807242EA0041D248DC
:100A6000FFF7A9FF44F080004FF4807242EA004192
:100A7000CD48FFF7A0FF10BD0020CC4908604FF023
:100A80000800C649C1F84C024FF00100C749086090
:100A90004FF00800C149C1F84C0200BFC0480068CF
:100AA00010F4807FFAD04FF0FF30C1490860BB4995
:100AB000C1F83402B84908604FF00C00B749C1F8DA
:100AC0000402704700B5BB48406820F07050B94937
:100AD00048600846406840F0A05048600846C0683A
:100AE000B5490840B349C8600846C068B3490843DF
:100AF000B049C8600846006920F4402008610846F3
:100B0000006940F480200861AD48006840F0004072
:100B1000AC49C1F8C4004FF01200AB49086000BFF7
:100B2000AA48006800F012001228F9D1182001210B
:100B3000814042094FF0E02303EB8202C2F800112A
:100B400000BFFFF799FF0020FFF781FF00BD10B540
:100B500004460CB1012000E000204FF4807242EA0C
:100B600000419B48FFF727FF10BD7047704700B555
:100B70009848007810F0020F03D097499448FFF787
:100B80001AFF00BD704710B504460CB1012000E00B
:100B900000204FF4807242EA00419048FFF70BFFBB
:100BA00003208F49086000BF7D48006810F4807FF3
:100BB000FAD04FF480707849086010BD10B5034634
:100BC0009878FFF7E3FE0446854800684FF001017E
:100BD00001FA04F140EA01007049C1F84402734887
:100BE00004609888C1F84C0200BF6D48006810F49A
:100BF000807FFAD04FF480706749086010BD70475D
:100C000030B504462046FFF7C1FE764941EA00456B
:100C100089132846FFF7CFFE30BD30B50446204685
:100C2000FFF7B4FE6F4941EA00456F492846FFF7D8
:100C3000C2FE30BD30B504462046FFF7A7FE694925
:100C400041EA004589132846FFF7B5FE30BD30B5AF
:100C500004462046FFF79AFE624941EA00455E4994
:100C60002846FFF7A8FE30BD30B504462046FFF702
:100C70008DFE5C4941EA004589132846FFF79BFE3B
:100C800030BD10B5044659492046FFF7ADFE10BDF2
:100C9000F0B505460F4605F00F00012101EB80007D
:100CA0005349086000BF5348046814F4006FFAD039
:100CB000C4F30904002605E03848D0F8180238606B
:100CC0003F1D761CE01CB6EB900FF5D30020484981
:100CD000086041F2482040FA05F010F0010F03D1FE
:100CE00042492846FFF780FE2046F0BDF0B5064693
:100CF0000D46144606F00F00022101EB80003C492E
:100D000008602648C0F824424FF0000706E0286833
:100D10003949086005F1040507F1010704F10300F2
:100D2000B7EB900FF3D300203149086033493046C8
:100D3000FFF75AFE2046F0BD00B53148FFF72EFE02
:100D40003048FFF774FE03462E48FFF770FE43EA73
:100D50000023184600BD2DE9F0471148D0F8009057
:100D600019F0080F58D008200B4908601848FFF701
:100D700015FE2548FFF75BFE054615F0100F03D062
:100D8000FFF77AFEFFF7BEF915F0080F43D015F014
:100D9000040F3ED03AE0000008C2005000C00050EE
:100DA00000C2005014C200500005D00048C20050DC
:100DB00038C2005000C00240CFFFFFCF100000201B
:100DC000C4C00F4000C00F40F4CF0050F8CF005017
:100DD0000005FE0004C00720000101000005D80046
:100DE00044C2005000054000000120000005F20050
:100DF00028C2005020C200501CC200500005FA005A
:100E00000005F5000002F5000002FE00FFF7ADFE50
:100E100001E0FFF7ABFE4CE019F0040F48D04FF0B3
:100E20000008254807684FF000043BE0474500D123
:100E30003AE00120A040384232D00120A04040EAF0
:100E4000080866080120A0401C49086000BF1C4833
:100E5000006810F0200FFAD01A48056814F0010F4E
:100E600015D154B915F0040F07D01748006820B108
:100E7000154801680120884713E0134850F8260000
:100E800070B1114850F826100220884708E00E483B
:100E900050F8260020B10C4850F82610032088474F
:100EA00000BF641C202CC1D300BF04200749086088
:100EB00000BFBDE8F087000030C2005038C20050CB
:100EC00000C2005014C200507C02000008C2005052
:100ED00070B502460B680C689C4201DD1C4600E0C0
:100EE0000C68234618460CE0A14C94F84450646CFE
:100EF000641C9F4E746405F03F0435462C5D02F877
:100F0000014B1C00A3F10103EED170BDF0B5024608
:100F10000B46196808460DE012F8015B944C94F8F2
:100F20004060246C641C924F3C6406F03F043E46D3
:100F30003555491E0029EFD1F0BD01468C4890F887
:100F400040008B4A92F84420801A00F03F0008606D
:100F50000020704708B5002086490880684600F0E8
:100F6000E0FABDF8000010F4004F05D08148008879
:100F700040F001007F490880BDF8000010F4005FD8
:100F800005D07C48008840F002007A490880BDF80E
:100F9000000010F0100F05D07648008840F00400E3
:100FA00074490880BDF8000010F4804F05D07148E6
:100FB000008840F008006F490880BDF8000010F07C
:100FC000080F05D06B48008840F010006949088080
:100FD000BDF8000010F0040F05D06648008840F00E
:100FE000200064490880BDF8000010F0020F05D011
:100FF0006048008840F040005E4908805D480088F5
:1010000008BD70B5044654B9002000F0C1F85A4D2F
:101010002B796A79A979286800F0F8F809E00120AD
:1010200000F0B6F8544D2B796A79A979286800F058
:1010300074F9012051490880FFF78CFF4D49088061
:1010400000204B490864486470BD012070470120AE
:101050007047014601207047014601207047014654
:101060000120704710B5464800784549497840EA64
:1010700001204349897840EA01404149C97840EA62
:1010800001603D4908603E48007908713C4840795C
:1010900048713B4880798871012000F09AF801205E
:1010A00000F076F8344C23796279A179206800F059
:1010B00034F9012010BD30480078314908702E48BD
:1010C0000088000A48702C480068000C88702A4884
:1010D0000068000EC87028480079087126484079D9
:1010E00048712548807988710120704701460120A8
:1010F000704701460120704738B5684600F006FA8F
:101100006946204800F090F90446002C05DD22468F
:101110001C498220FFF7EAFD02E001201749088000
:1011200038BD08B518490220FFF7B2FD00906946A6
:101130001548FFF7EBFE08BD10B5A1201349087054
:101140002020487000208870C87008714871022003
:1011500088710020C8710748007808720548008827
:10116000000A48720A228120FFF7C0FD10BD00006E
:10117000D8C007203EC0072036C0072040C0072047
:1011800019C007204CC007208CC00720CCC0072006
:1011900010B5044674B9052000F088FAFE480068CE
:1011A00020F0F000FC4908600846006840F050005C
:1011B00008600DE0062000F079FAF748006920F099
:1011C0000F00F54908610846006940F00A0008610F
:1011D00010BD10B5044664B9EF48006820F0F00077
:1011E000ED4908600020ED494860052000F05EFAF6
:1011F0000BE0E948006920F00F00E7490861002092
:10120000E7494860062000F051FA10BD2DE9FF5F64
:10121000834690460198052806D0062806D0072860
:1012200006D0082806D106E0002506E0012504E0E6
:10123000022502E000BF032500BF00BF039840B1B4
:10124000012802D0022803D100E000BF042702E0F9
:1012500000BF002700BF00BFB8F1050F0CD2DFE8C8
:1012600008F00C0305070900082408E0182406E02C
:10127000282404E0382402E000BF002400BF00BF9F
:101280000020C849C1F88000C1F88400C649C1F8EF
:101290008000C1F88400C5480068C0F3811ABAF123
:1012A000000F09D0BAF1010F0AD0BAF1020F0AD02B
:1012B000BAF1030F0BD000BFBD48006886080AE0F2
:1012C000BB48066807E0BA480068460803E0B8482B
:1012D0000068C60800BF00BF3009B0FBFBF9002062
:1012E000AE49886245F0800020433843C860084614
:1012F000C0F800904FEA1920486045EA04003843DE
:10130000C86003204860072088600120A949086060
:10131000052000F0BFF9BDE8FF9F2DE9FF5F834680
:1013200090460198052806D0062806D0072806D042
:10133000082806D106E0002506E0012504E0022584
:1013400002E000BF032500BF00BF039840B10128A1
:1013500002D0022803D100E000BF042702E000BF52
:10136000002700BF00BFB8F1050F0CD2DFE808F07E
:101370000C0305070900082408E0182406E02824C7
:1013800004E0382402E000BF002400BF00BF0020BA
:101390008449C1F88000C1F884008349C1F8800005
:1013A000C1F8840081480068C0F3012ABAF1000F37
:1013B00009D0BAF1010F0AD0BAF1020F0AD0BAF17E
:1013C000030F0BD000BF7A48006886080AE078480F
:1013D000066807E076480068460803E0744800683D
:1013E000C60800BF00BF3009B0FBFBF900206C4904
:1013F000886245F0800020433843C8600846C0F842
:1014000000904FEA1920486045EA04003843C8605C
:101410000320486007208860012066490860062094
:1014200000F038F9BDE8FF9F70B502460B680C6804
:101430009C4201DD1C4600E00C682346184617E07C
:1014400000BF594CD4F88440574DD5F88050AC4279
:10145000F7D0554C94F88450D4F88440641C524E14
:10146000C6F8844005F07F0435462C5D02F8014B38
:101470001C00A3F10103E3D170BDF0B5034614468F
:101480002268104600BF474DD5F88450454ED6F827
:101490008060B542F7D110E011F8016B414D95F82D
:1014A0008070D5F880506D1CDFF8F8C0CCF8805003
:1014B00007F07F0567467E55521E002AECD13D4D50
:1014C0002D6815B300253B4E35607BB9354D95F839
:1014D0008460D5F884506D1C324FC7F8845006F0F4
:1014E0007F053E46755D2D4E35600EE02D4D95F81D
:1014F0008460D5F884506D1C2A4FC7F8845006F0DC
:101500007F053E46755D264E3560F0BD264991F853
:101510008010254A92F88420891A01F07F01016029
:1015200070472549098801800021234A11807047AE
:1015300008B51A4880680090009810F0040F03D195
:10154000009810F00C0F15D00FE014480068C1B2DD
:10155000154890F88020D0F88000401C124BC3F84A
:10156000800002F07F001A4611540C48406910F0C8
:10157000010FEAD1009810F0020F32D0094890F81C
:101580008000084991F88410401A10F07F0F25D090
:10159000044890F8841011E000C0024000C00040F0
:1015A0000000014080C1072008C20720A8C10F40E9
:1015B00000C0072044C0072048C00720D0F884009E
:1015C000401C3F4AC2F8840001F07F001146085CCD
:1015D0003C49086000203C49086002E001203A498B
:1015E00008603848406900F01E003849088008BD8E
:1015F00008B5374880680090009810F0040F03D1B8
:10160000009810F00C0F15D00FE031480068C1B2FF
:10161000304890F88020D0F88000401C2D4BC3F853
:10162000800002F07F001A4611542948406910F0EA
:10163000010FEAD1009810F0020F1FD0204890F857
:1016400080001F4991F88410401A10F07F0F12D0CB
:101650001B4890F88410D0F88400401C184AC2F847
:10166000840001F07F001146085C194908600020E1
:101670001549086002E001201349086014484069D8
:101680001349896940EA01204EF21E0108400F49C2
:10169000088008BD00F01F020121914042094FF06F
:1016A000E02303EB8202C2F80011704700F01F0232
:1016B00001219140084A430942F823107047000075
:1016C00080C1072000C0004044C0072048C0072058
:1016D0000000014008C2072080E100E010B5284862
:1016E000007810F01F0002D001283ED13AE02448D3
:1016F000C078012804D0022807D003282ED118E092
:101700002048214C206012232AE02049002204E0D6
:10171000087808B148880144521C194880789042E2
:10172000F6D1087808B9002010BD174801604B8831
:1017300016E01749002204E0087808B1087801444F
:10174000521C0F4880789042F6D1087808B90020E2
:10175000EAE70D4801600068037801E00020E3E754
:1017600000BF04E000BF0020DEE70020DCE700BF90
:1017700005488088984201D9034CA3800120D3E713
:101780002CC00720241C000024C00720361C0000A9
:101790007A1C00002748007810F01F0004D00128B0
:1017A00006D0022841D116E02348244B18603EE0C1
:1017B0002348007860B11F480079224B1B7898427B
:1017C00006DA0020204B188018461C4B186001E0F8
:1017D000002070472BE01748007900F08F0111F0CE
:1017E000800F05D001F00F034FF48030984001E0E6
:1017F0000120884002461248007810B911F00F0FFE
:1018000010D11248006810420CD0114800681042F4
:1018100001D0012000E000200B4B18801846074B38
:10182000186001E00020D4E701E00020D1E700BF0C
:101830000120CEE72CC0072004C0072024C00720C9
:1018400007C0072014C0072019C0072008C00720C0
:101850000CC0072070B506463348007810F01F0012
:1018600004D001281DD0022858D11CE02E48408801
:10187000012813D146B1FFF785F92C48008840F0C4
:1018800002002A4908800BE00020FFF77BF9274877
:10189000008820F002002549088001E0002070BD8A
:1018A0003EE00020FBE72048007900F08F0414F0B0
:1018B000800F05D004F00F014FF48030884001E024
:1018C0000120A04005461A48007820B314F00F0FFD
:1018D00021D01848006828421DD013484088C0B95C
:1018E00046B12046FFF7B3F9134800682843124970
:1018F000086012E011480068284201D00120CEE7BC
:101900002046FFF7B1F90C480068A8430A4908606F
:1019100003E00020C3E70020C1E701E00020BEE7AC
:1019200000BF0120BBE700002CC0072004C0072037
:1019300007C0072008C007200CC0072010C00720E0
:101940002DE9F04100266248007810F01F0F7DD18C
:101950005F48807800287AD05E4D7EE06878022863
:1019600004D0042851D0052873D150E06879584933
:101970008978884245D15648807857490870287937
:1019800056490870002403E0002055490855641C9E
:10199000042CF9D3012414E00120A0405149096826
:1019A000084202D02046FFF738F94FF48030A040BB
:1019B0004C490968084203D044F08000FFF72DF934
:1019C000641C102CE8D34FF0011046490860002039
:1019D00045490860454908600120FFF7D4F8E879D7
:1019E00010F0400F06D04248008840F00100404906
:1019F000088009E03E48008820F001003C4908804A
:101A000002E06888054428E023E0EE7821E0E6B9AA
:101A1000A87800F08F0414F0800F05D004F00F01B7
:101A20004FF48030884001E00120A04007462D4857
:101A3000006838432B4908602846FFF7BFF8204666
:101A4000FFF7DEF82046FFF7F5F801E03BE009E09C
:101A500000BF00BF2878054400BF287800287FF425
:101A60007DAF26E000201C490870012414E001200D
:101A7000A0401C490968084202D02046FFF7CDF873
:101A80004FF48030A04017490968084203D044F061
:101A90008000FFF7C2F8641C102CE8D34FF001104F
:101AA0001049086000201049086010490860FFF7DD
:101AB0006AF80748807808490978884202D00020EF
:101AC000BDE8F08101E00020FAE700BF0120F7E760
:101AD0002CC00720361C000007C0072014C00720B8
:101AE00015C0072008C007200CC0072010C0072021
:101AF00004C007202DE9F05F0027B846BB46B94671
:101B00004248007800F01F00012879D14048007851
:101B100010B90020BDE8F09F4FF0000A3D4C6AE08C
:101B20006078022804D004280BD005285FD11EE07D
:101B3000607937490978884202D0608804445AE0C5
:101B400055E0A77894F803804FF000092F480079FA
:101B5000B8420BD12D488078404507D14FF0010A9B
:101B60002D4810F807B0014601F807803FE02748EC
:101B70000079B8423AD1A07800F08F0616F0800FB5
:101B800005D006F00F014FF48030884001E00120BD
:101B9000B04005461D488078404515D11F48006873
:101BA00028431E4908601E480068A8431C49086075
:101BB0002046FFF703F83046FFF722F83046FFF7DC
:101BC00039F849EA050911E0D8450FD119EA050F9E
:101BD0000CD112480068A8431049086010480068FA
:101BE000A8430F4908603046FFF717F800BF00BF51
:101BF0002078044400BF2078002891D102E0FFE75C
:101C0000002087E700BF504684E700002CC0072073
:101C100007C00720361C000015C0072008C0072099
:101C20000CC007201201000202000008C91F022098
:101C30000001010203010902430002010080320990
:101C4000040000010202005E0524001001052401C9
:101C50000101042402020524060001070581031086
:101C6000000209040100020A00005E0705020240AA
:101C700000000705820240000000040309041C0361
:101C80004E00580050002000530045004D00490010
:101C900043004F004E004400200024034E00580033
:101CA000500020004C005000430031003700780005
:101CB00078002000560043004F004D0020001A031A
:101CC000440045004D004F0030003000300030002F
:101CD00030003000300030000A03560043004F004F
:101CE0004D00000000093D00000000000000000061
:101CF00000000000000000000000000000000000E4
:101D000000000000000000000000000000000000D3
:101D1000000000000000000000008025000000001E
:101D200008000000010000000000000000000000AA
:04000005000000CD2A
:00000001FF
